:10000000801600209D0A0000FB450000890A0000C0
:10001000890A0000890A0000890A00000000000027
:100020000000000000000000000000005D0C000067
:10003000890A000000000000F90B0000890A000096
:10004000110E0000110E0000110E0000110E000034
:10005000110E0000110E0000110E0000110E000024
:10006000110E0000110E0000110E0000110E000014
:10007000110E0000110E0000110E0000110E000004
:10008000110E0000110E0000110E0000110E0000F4
:10009000110E0000110E0000110E0000110E0000E4
:1000A000110E0000110E0000110E0000110E0000D4
:1000B000110E0000110E0000110E0000110E0000C4
:1000C000110E0000110E0000110E0000110E0000B4
:0C00D000110E0000110E0000110E0000C7
:1000DC0053B94AB9002908BF00281CBF4FF0FF31A3
:1000EC004FF0FF3000F00CB8ADF1080C6DE904CE08
:1000FC0000F008F8DDF804E0DDE9022304B07047F5
:10010C00704700BF2DE9F04786468C460846089E8E
:10011C00154674461946002B40F0C2808542B2FA4F
:10012C0082F245D94AB1C2F1200300FA02FC2EFA40
:10013C0003F3954043EA0C0C94404FEA154EA8B2D9
:10014C00BCFBFEF8230C0EFB18CC08FB00F943EAB1
:10015C000C43994528D9EB1808F1FF3704D299457F
:10016C0002D9A8F102072B44A3EB0903A4B2B3FBF9
:10017C00FEFC0EFB1C330CFB00F044EA0344A042D3
:10018C0014D92C190CF1FF3304D2A04202D9ACF1D2
:10019C0002032C44241A43EA07401EB1D440002326
:1001AC0034607360BDE8F0874746DDE76346F1E7EE
:1001BC0092BB431B01214FEA154EAFB2B3FBFEFCC1
:1001CC00200C0EFB1C330CFB07F840EA034398454C
:1001DC0062D9EB180CF1FF3004D2984502D9ACF17E
:1001EC0002002B44A3EB0803A4B2B3FBFEFC0EFBF2
:1001FC001C330CFB07F744EA0344A7424ED92C19D5
:10020C000CF1FF3304D2A74202D9ACF102032C4407
:10021C00E41B43EA0040C0E7C2F1200320FA03F1DB
:10022C00954090402EFA03F303434FEA154EAFB2BC
:10023C00B1FBFEFC0EFB1C10190C0CFB07F841EA81
:10024C000041884504FA02F422D969180CF1FF30F8
:10025C0004D2884502D9ACF102002944A1EB080173
:10026C009BB2B1FBFEFC0EFB1C110CFB07F743EA27
:10027C0001439F420ED9EB180CF1FF3104D29F427F
:10028C0002D9ACF102012B44DB1B41EA004192E79D
:10029C006046E3E76146F7E76046A3E76346B7E7E6
:1002AC00834206D916B9002108467BE7C6E900E06F
:1002BC00F9E7B3FA83F78FB9834201D3724508D8B3
:1002CC00BEEB020460EB030301209C461EB9002127
:1002DC0068E73846FAE7C6E9004CF8E7C7F1200CA6
:1002EC00BB4022FA0CF41C432EFA0CF120FA0CF34E
:1002FC00B84001434FEA14490EFA07F5B3FBF9F87D
:10030C001FFA84FE09FB18300B0C08FB0EFA43EAAB
:10031C0000439A4502FA07F240D9E31808F1FF307E
:10032C0004D29A4502D9A8F102002344A3EB0A0394
:10033C0089B2B3FBF9F809FB183308FB0EFE41EA4E
:10034C0003418E452CD9611808F1FF3304D28E4538
:10035C0002D9A8F10203214443EA0040A0FB029811
:10036C00A1EB0E014145CE46434602D306D14D4585
:10037C0004D2B9EB020E68EB04030138002EA6D0B0
:10038C00B5EB0E0261EB030101FA0CFC22FA07F348
:10039C004CEA0303F940C6E9003198E74046C5E74B
:1003AC004346D9E770B50A78022A1BD0052A2ED00D
:1003BC00BAB91B4C227852B91A491B4D087805F86A
:1003CC00010B013203F0B1FF102AF8D10870174B62
:1003DC001868836814495D6810224FF0FF33A847F2
:1003EC00207070BDCB68012BFBD1D1E90123D35C0C
:1003FC00312B04D10E48BDE8704003F0A2BF322B64
:10040C0001D10C48F7E7332BEBD10B48F3E78368AA
:10041C000A49DC681022A4466423BDE8704060479A
:10042C00440400207801002045040020D000002066
:10043C00A0550000A4550000A8550000550400204C
:10044C0038B5184C206883681B6853B116490022D4
:10045C00984730B9206804F040FD20B9134803F0E8
:10046C0070FF012038BD206883681149DD681022B7
:10047C006423A84702460028F3D10E490E4D087894
:10048C0005F8010B013203F050FF102AF8D1087067
:10049C002068836808495C684FF0FF33A047074B1E
:1004AC001870FEE7D0000020B1030000AC5500002E
:1004BC00550400207801002045040020440400204D
:1004CC00014B1B68184700BFD4000020014B18607B
:1004DC00704700BFD400002030B585B004460D46EF
:1004EC0010220021684604F0D6FE02238DF802305B
:1004FC002A46044B01932146684603F0B9FC05B02B
:10050C0030BD00BFCD04000080B505460E46174631
:10051C00984603F09BFA034604F0C6FEDFF81890E9
:10052C00044649F80030424630463946A84754F84C
:10053C00090000F02DFB00BF080000002DE9F0477A
:10054C00058B04462807904611D4022905F00705AF
:10055C0040F0CD80204603F06AFF78B10138218B42
:10056C00042811D8DFE800F0C3106D85950001292F
:10057C000CBF45F0100545F02005258388F3118844
:10058C00BFF36F8FBDE8F08701F0070AAA4500F0B2
:10059C00A6800027B9463E46A368002B00F0BD801C
:1005AC0041F00801218388F31188BFF36F8FA16894
:1005BC00002900F0BB800D68002900F0B780D1F84D
:1005CC000480334652462046C047002D76D02B6817
:1005DC0029461D46F0E701F007035A1F012A1BD8D4
:1005EC00002221F00701062B276889B2C4E90022FA
:1005FC0009D13B4603E0628B013262831B68002BFE
:10060C00F9D141F002012183204603F010FF0028AC
:10061C007BD041F0200177E0042B0AD121F00701B7
:10062C0089B22183204603F002FF10B141F0200172
:10063C002183218B01F0070AAA4550D00027B94627
:10064C00AAE7236921F0070141F00601062DD3F832
:10065C00009021832DD1B9F1000F40D041F0080159
:10066C00218388F31188BFF36F8F3A492046C8471E
:10067C0029E021F00701236941F0040189B2042D1E
:10068C00D3F804902183E6D000273E464FF0040AAD
:10069C0082E721F00701236941F0050189B2052D9C
:1006AC00D3F808902183D6D000273E464FF0050A98
:1006BC0072E700273E464FF0060A6DE72B4687E7A8
:1006CC00B9F1000FD1D14FF02003EFF3118883F370
:1006DC001288BFF36F8F238B23F008032383258BA2
:1006EC00EA062ED525F01003238305F0070566696D
:1006FC00218B002EBFF66FAF00232768C4E90033AF
:10070C0021F0070141F001012183218B01F0070A3F
:10071C00AA454FF000097FF43FAF002F9BD041F06A
:10072C000801218388F31188BFF36F8F002FC7D086
:10073C003D68394633465246204603F0A4FE2F4608
:10074C00F4E7AB067FF51AAF25F02003238305F001
:10075C000705FFE6BF440000014B03600020704713
:10076C008854000030BFFFF7FDBF00BF114B124A89
:10077C002DE9F041D518DFF84480013DB5FBF3F5C8
:10078C005D430F4B08EB0304013CB4FBF3F403FB98
:10079C0004540E1B07460B49304604F06EFD7019CD
:1007AC0042460021083E04F076FD3E6704F1080045
:1007BC00BDE8F08101000000000000000400000012
:1007CC00040000007C540000044B9968586988426E
:1007DC0003D003494FF080520A6070471404002084
:1007EC0004ED00E070B5264B15469A6A12F0100F16
:1007FC009A6A14BF1124102412F0080F9A6A18BFB9
:10080C001224920706460AD5586B9A6A140634D5F8
:10081C0019B19A6A22F080029A62132401E06FF0F7
:10082C001500174B9A6A12F0010F9A6A18BF14241C
:10083C0012F0200F9A6A18BF1524D20602D49B6AB4
:10084C009B070AD50E4B5B68190506D5314600F09F
:10085C007BFA10B180F309880224094B9A6A92063C
:10086C0042BF5A6A22F400525A629A6A42F0FF025C
:10087C009A6200232B70204670BD6FF01500CCE7F8
:10088C0000ED00E0134B9A6A12F0007F9A6A14BFD5
:10089C001E201D2012F0807F9A6A18BF1F2012F4B0
:1008AC00002F9A6A18BF212012F4802F9A6A18BF61
:1008BC00222012F4003F9A6A18BF232012F4803FC2
:1008CC009A6A6FEA02426FEA12429A6218BF2420B7
:1008DC00704700BF00ED00E010B5194B0246986A56
:1008EC009C6A10F4805F14BF1720162014F4006F5C
:1008FC009C6A18BF1820A40509D5986B986A000447
:10090C0004D51AB19A6A22F400429A6219200C4B4F
:10091C009A6A12F4806F9A6A18BF1A20D2050CD406
:10092C009B6A13F4005F18BF1C20054A936A43F4BA
:10093C007F43936200230B7010BD1B20F5E700BFB3
:10094C0000ED00E0F0B5484B5B688BB00446C3F398
:10095C000803002585F31188BFF36F8F02F07F40E9
:10096C00B0F17F4F11D102F00C0008280DD0100708
:10097C004CBF0C4601250022033B8DF80720032BAE
:10098C0005D8DFE803F0246367602C46F3E7002307
:10099C009DF80720CAB902AE04F1200720686168EF
:1009AC00324603C20834BC421646F7D1099A002DD0
:1009BC0054D0C2F3080121B96FEA52226FEA4222E5
:1009CC00099202A9184603F00CFE0BB0F0BD264BA1
:1009DC00DA6A9107DBD4DA6A002AD8DBDA6A5200C9
:1009EC00D5D55A69A16942F480725A61BFF34F8F11
:1009FC00BFF36F8F5A6931F8021C22F480725A616E
:100A0C00BFF34F8FBFF36F8F4DF6027291420AD036
:100A1C009A6AD2B24AB10DF1070201212046FFF7C2
:100A2C00E1FE0346B4E72368B2E79A6A12F47F4FFB
:100A3C0005D00DF107010120FFF74EFFF1E79B6A8E
:100A4C00B3F5803FA3D3FFF71DFFEAE70DF10702D3
:100A5C000021E3E70DF107010020EDE722F4FF721E
:100A6C0022F00102ACE700BF00ED00E0024A53693E
:100A7C0043F010035361704700ED00E0EFF3088082
:100A8C00EFF3098101B57246FFF75CFF01BD00BFB2
:100A9C00002080F31488BFF36F8F00F0FDFA002064
:100AAC000D490860BFF34F8F0C4880F3088800F0A5
:100ABC003DF8202080F3118809484FF40461401858
:100ACC0080F30988EFF314800221084380F3148823
:100ADC00BFF36F8F00F000F994ED00E0801600205A
:100AEC00C0080020BFF34F8F0549064BCA6802F4BB
:100AFC00E0621343CB60BFF34F8F00BFFDE700BF35
:100B0C0000ED00E00400FA050749D1F8902000231D
:100B1C00C2F307221846934200DB7047C1F89830A5
:100B2C00C1F8A0000133F6E700ED00E008B572B69D
:100B3C00002383F31388FFF7E7FF144B4FF0FF32CA
:100B4C00C3F88020C3F88420C3F88820C3F88C2015
:100B5C00C3F89020C3F89420C3F89820C3F89C20C5
:100B6C00C3F88021C3F88421C3F88821C3F88C21F1
:100B7C00C3F89021C3F89421C3F89821C3F89C21A1
:100B8C0062B6BFF34F8FBFF36F8F08BD00E100E07B
:100B9C00084B9B6883420BD1EFF3058343B1064BA3
:100BAC005A6842F080525A605A6A22F400425A62E1
:100BBC0004F09ABA1404002000ED00E0094A93688E
:100BCC006FF00A019967084958674B6843F08053E6
:100BDC004B60002383F31188BFF36F8F9368986F7A
:100BEC00704700BF1404002000ED00E015498A682E
:100BFC004FF030001044EFF3098C80E8F01F2020F8
:100C0C0080F31288BFF36F8F0F4F4FF000664A6965
:100C1C008A603E604FF07004141920680B4C206001
:100C2C00506F0023536780F3118804B5104600F011
:100C3C0009F9BDE8044002F1300090E8F01F8CF394
:100C4C00098870471404002004ED00E0C002002065
:100C5C001EF0040F0CBFEFF30880EFF309808169DD
:100C6C0011F8021C0229FFD001B503F0BCFC01BD38
:100C7C0040B2002807DB044A4109012300F01F00A1
:100C8C00834042F82130704700E100E0054B4209F7
:100C9C0000F01F0053F82220012303FA00F010404B
:100CAC00704700BF00E100E040B20028A8BF00F18F
:100CBC00604001F10101B8BF064B4FEA4111ACBFD6
:100CCC0000F5614000F00F00C9B2B4BF195480F8B0
:100CDC000013704714ED00E00B4A08B50B4B22F0E3
:100CEC007F029A60BFF34F8FBFF36F8FD3F88820CA
:100CFC0022F47002C3F8882002F05CFA02F0ACFE19
:100D0C0000F074F802F0A8FA0000000000ED00E01A
:100D1C0042F8203C009B42F81C3C0A49019B42F8DB
:100D2C00183C029B42F8143C21F001014FF08073F7
:100D3C0042F8043C42F8081C0023203A0265436741
:100D4C00704700BF15050000094A0346906870B152
:100D5C0013F1160F006E05D0A0F140029A4205D88F
:100D6C00834203D2814228BF002070470020704785
:100D7C001404002008B514460A4A0B4B9060026F0D
:100D8C001A600D4600F05EF8204685F309880021B4
:100D9C0063B681F31188BFF36F8F00220023FFF736
:100DAC00B3FB00BF14040020C00200200149102234
:100DBC000A60704710ED00E072B6404080F3118875
:100DCC00BFF36F8FBFF34F8F30BF62B6BFF36F8F20
:100DDC00704700BF72B6494081F31188BFF34F8F43
:100DEC0020BF80F3118862B6704700BF044800230F
:100DFC002021C2180133272B82F80013F9D1704738
:100E0C0000E100E001B5EFF30580A0F110004FEA1E
:100E1C00C0000449014409C99847BDE80140024992
:100E2C000847000044530000D5070000024B034A5A
:100E3C000348012100F040B8000001200000002010
:100E4C0088540000026E054B403A1A60044A402157
:100E5C00C3E901121846012100F038B8C402002081
:100E6C0000000B15084AC2F898000B6823F01F030A
:100E7C00034343F01003C2F89C308B6843F001032A
:100E8C00C2F8A030704700BF00ED00E0044B052213
:100E9C00C3F89420BFF34F8FBFF36F8F704700BF21
:100EAC0000ED00E0BFF35F8F024B0022C3F89420EB
:100EBC00704700BF00ED00E010B5034C0123227811
:100ECC0003F0B0FB207010BD6504002008B5094A82
:100EDC000023127803F0A6FB10F1160F03D0064B7B
:100EEC000022072800DD08BDC3F89800C3F8A02035
:100EFC000130F6E76504002000ED00E0F0B5454D4B
:100F0C002C68082C85B000F28280FFF7CBFF002004
:100F1C000C2684420DD1404D404F2C706846FFF793
:100F2C001BFC00240646A6420AD1FFF7AFFF0020A7
:100F3C001CE0696806FB0011FFF794FF0130E8E73D
:100F4C00009800EB04114FEA041CCB683B40B3F54E
:100F5C00000F4AD00CD8B3F5001F30D0B3F5800F7A
:100F6C0038D0B3F5801F12D06FF0150005B0F0BD6E
:100F7C00B3F1807F42D0B3F1007FF5D150F80C3043
:100F8C0088684A6803F03EFB40F4802009E050F882
:100F9C000C3088684A6803F035FB40F0885040F408
:100FAC003020039028780728CDE90123DCD801A94B
:100FBC00FFF758FF2B7801332B700134B3E750F84F
:100FCC000C3088684A6803F01DFB40F0885040F4F0
:100FDC000020E6E750F80C3088684A6803F012FBF2
:100FEC0040F0E06040F40030DBE750F80C308868EB
:100FFC004A6803F007FB40F08270D2E750F80C30DF
:10100C0088684A6803F0FEFA40F08870C9E74FF030
:10101C00FF30ABE794540000650400200000F0FFA3
:10102C0008B5024B1B689847002008BDD002002071
:10103C00034B044A1860937843F002039370704793
:10104C00D0020020D800002008B50649064821F03F
:10105C000701C1F1005202F5803203F0ABF9002018
:10106C0008BD00BFC7160020D4020020044A01238B
:10107C00C2F840354FF080420020C2F878357047F6
:10108C0000E0014020B1034B800143F001031847FD
:10109C00704700BF8054000001F0FAB9084B70B5DE
:1010AC00C31A0D4607499B10044659430648402273
:1010BC0003F007FB2B4601462046BDE8704018475D
:1010CC00F4020020B76DDBB60853000073B50C4C6E
:1010DC000C4A4023041B00930D460B460A49A410EE
:1010EC0061430646094803F019FB011E05DA304638
:1010FC002B4602B0BDE87040184702B070BD00BF6F
:10110C00F402002095470000B76DDBB608530000D1
:10111C0010B54FF02003EFF3118483F31288BFF363
:10112C006F8F074A136823F00201DB07116002D4AA
:10113C00012003F050FE84F31188BFF36F8F10BDB4
:10114C0044030020002270B5012104461046FFF72D
:10115C00ABFD0F4801F084FB0E4B984215D101F00A
:10116C008FFB26690C49304603F0B1F900280BDBE4
:10117C00012535642469084904F11C0003F0A7F922
:10118C00002801DBE564002070BD6FF00400FBE774
:10119C00DD1100000000AD0BB454000070B5014629
:1011AC000C2309484B43C418D4E90E564033002293
:1011BC001844A26303F072FA2DB132462B46034851
:1011CC00BDE87040184770BDF402002008530000C1
:1011DC0010B1012804D07047034B1B6C5B0701D185
:1011EC00FFF7DCBF704700BFF402002008B54FF0DA
:1011FC002003EFF3118183F31288BFF36F8F124A30
:10120C00136843F002001060DA0708D481F31188E8
:10121C00BFF36F8F0120BDE8084001F043BB4FF0D6
:10122C008043D3F80C24D3F80C34DB07EED50748F5
:10123C0003F034FA81F31188BFF36F8F0020BDE8FF
:10124C000840FFF7ABBF00BF44030020340300206D
:10125C001FB500220123CDE90223094ACDF800D0A5
:10126C006B46CDF804D003F088FA002805DB4FF468
:10127C0080420023684602F00DF905B05DF804FBCE
:10128C00AD47000010B5074C23782BB94FF4A5706F
:10129C0003F01EFE01232370BDE81040002001F076
:1012AC0001BB00BF660400202DE9F0413849BFF3B3
:1012BC005B8F0746012251E8003F41E800200028DF
:1012CC00F9D1BFF35B8F33B9324933484B60CB60F4
:1012DC008A6003F00FF97B1E012B2BD8012F07D14D
:1012EC004FF08043D3F81C3403F00303012B21D0BF
:1012FC0003F002FE0546F8B9284B1B78E3B14FF01A
:10130C0080430222C3F808230646DFF894804FF08E
:10131C008044D4F81824D4F81834D20316D503F02A
:10132C000303012B01D0012F10D15DB386F311887B
:10133C00BFF36F8FBDE8F0814FF02003EFF3118600
:10134C0083F31288BFF36F8F0125DEE7ADB1304612
:10135C00FFF740FDD4F81835002BDAD1D4F804216E
:10136C00002AD6D0C4F80431D4F804310123C4F8CF
:10137C001835C8F88031A360CBE70021212002F09A
:10138C004BFBE7E74FF080430222C3F80423D1E77D
:10139C00F0020020E0020020100300208108002051
:1013AC0000E100E008B5074803F097FD38B10648A6
:1013BC00FFF73EFE0448FFF789F8002008BD6FF0E8
:1013CC001200FBE730530000D91300000A2838B58F
:1013DC00074D044604D1AB680D21DB6928469847BC
:1013EC00AB680348DB69E1B29847204638BD00BFC3
:1013FC003053000038B545682B69B3B11035284619
:10140C0001F040FD044680B90146284601F002FD7A
:10141C00084B98420BD108492246284601F0E2FCC1
:10142C00224605210620FFF73FFC002038BD6FF057
:10143C000400FBE70000AD0B49140000430970B534
:10144C0007D10B4B596821B101250C68094E854019
:10145C0001B970BD8A682A4002D04B683046984763
:10146C001CB1236821461C46F2E72346FAE700BF6D
:10147C00480300201C5300002DE9F043476840F25C
:10148C000636D0063B7B87B002EA060654BFC2F391
:10149C004010032001F01F05B6F5837F144645EA82
:1014AC0043158DF8030042D00FD8062E18D007D85C
:1014BC00B6B1022E3DD06FF0150007B0BDE8F08339
:1014CC00B6F5807FF7D101260AE040F2022296425F
:1014DC0031D0B6F5407F30D0B6F5007FEBD1022687
:1014EC0022032CD57A6801238B40C2F808353B695E
:1014FC006BBB05F01F026D0976D1920002F1A04280
:10150C0084F48031D2F80037C1F30041C4F3404475
:10151C0023F4E16344EA410423F007031C4344EA47
:10152C00800444EA0624C2F800470020C5E70726D9
:10153C00D6E70426D4E70526D2E70326D0E76303D3
:10154C0041BF01237A688B40C2F80C35CFE71037C6
:10155C000DF102022946384601F04AFC14F4403FD2
:10156C0080460CD12946384603F0A7FC214B984500
:10157C00DBD19DF80210384601F08EFCD5E701ABAB
:10158C004FF0000903AA29463846CDE90439CDE9C4
:10159C000199CDF80C9001F0FFFA164B98428AD1C4
:1015AC0014F4003315D09DF803308DF80E3084F40C
:1015BC008034C4F300444B4603AA294638468DF8C0
:1015CC000C608DF80D4001F097FB0A4B9842CDD082
:1015DC0071E7CDE9043303AA0DF10303294638461C
:1015EC00039301F0D9FAF0E702F5E07253F82230D8
:1015FC00FFDE00BF0000AD0BF0B54068057B01F0CD
:10160C001F0444EA4514056987B0002D60D0B2F57B
:10161C00001F00F1100506D12146284603F04FFCAF
:10162C00002007B0F0BD01AE0027B2F5800F019786
:10163C00776038D1B3F1007F14BF052304238DF8F4
:10164C0004300023CDE904630393836823FA01F18A
:10165C0011F0010119D1B2F1A07F16D104F01F03D2
:10166C00620903F5E07339D14FF0A04252F82330F0
:10167C00DB070AD40DF1030632462146284601F059
:10168C00B7FB184B984219D0029603AA214628465C
:10169C0001F082FA144B98421DD1012221462846B2
:1016AC0001F006FCBCE7B3F1C06F05D0B3F1007FCD
:1016BC0014BF01230223C2E70323C0E731462846A7
:1016CC0001F0F0FB084B9842DED06FF00B00A8E75E
:1016DC006FF08500A5E76FF01500A2E751F82330F5
:1016EC00FFDE00BF0400AD0B0000AD0B2DE9F04197
:1016FC00594D5A4E00EB8101814202D10020BDE8C8
:10170C00F081046814F4805FC4F3432704F07F0372
:10171C0040F08E807F2B4FEA1444EF5D08BF4FF0F2
:10172C00FF33192C00F28780DFE804F00D13191C2D
:10173C001F251C85858585366185858585858585EF
:10174C00858564797C7FC2F80C355C1C5CD10430D7
:10175C00D2E7C2F814355C1CF9D000245DE0C2F865
:10176C000835F2E7C2F81035F5E75C1CC2F808350D
:10177C00EDD0002404E05C1CC2F80C35E7D0012449
:10178C005FEA531C5AD14FF0010E4FF0A04C0EFAE9
:10179C0003F8CCF80C8508E0C2F80835002FDAD134
:1017AC005C1CD4D00024A6460627D0F8008008F490
:1017BC00005CBCF1000F1CBF4FF0000E012403F0C5
:1017CC001F0C5B0942D14FEA8C0C0CF1A04CC8F3F6
:1017DC00C118DCF80037334043EA880343EA072397
:1017EC0043EA0E0343EA4403CCF80037AFE7C2F8F0
:1017FC000C35D3E7C2F86035B3F1FF3F0468A6D0CF
:10180C00C4F38034002CBAD05C091BD101244FF0F6
:10181C00A04C04FA03FECCF808E5A646C5E7C2F8CE
:10182C006435E9E7C2F86835E6E7C2F86C35E3E7FA
:10183C006FF0150063E76FF0850060E70023C3F8D5
:10184C000C35FFDE0023C3F80835FAE70CF5E07C15
:10185C00002353F82C30F4E7F0550000F0F8FCFFAF
:10186C00F7B51D4643680469D3F800C006464FF02F
:10187C002003EFF3118783F31288BFF36F8FE368B4
:10188C00D86838B187F31188BFF36F8F6FF00F00F2
:10189C0003B0F0BDDA60E36899604FF48003CCF8D4
:1018AC00043301F06043B3F1005FE36811D11961B7
:1018BC00E3685A612146304603F04EF987F31188EC
:1018CC00BFF36F8FE37A012B01D16B1C06D1002083
:1018DC00DEE7D861204603F0B8F8EBE70B480C4A7A
:1018EC00E46825EAE5754FF4004600210023C5FBAA
:1018FC000601FEF7EDFB203402460B4600200021CA
:10190C00CDE90001204602F073FAE0E73F420F00F8
:10191C0040420F002DE9F34100220746012102202D
:10192C00FFF7C2F90220FFF7A3F97E683D6934681E
:10193C000021C4F800152F60D6F80C8001AA40468F
:10194C0002F086FF0028C0F20281019BD8F800202B
:10195C0019791868FFF7CAFE0028C0F2F8806B7A74
:10196C00012B26D1AB7A032B23D1E87A08B10128BD
:10197C001FD12A7A12B1022A1BD10E226B68796808
:10198C00B3F5164FD1F800C000F0E48032D8B3F5AF
:10199C00165F00F0E28018D8B3F5966F00F0DF8088
:1019AC000AD8B3F5967F00F0DD80B3F5167F00F012
:1019BC00DC806FF08500CAE0B3F5166F00F0D880BC
:1019CC00B3F5965FF5D17F4B43E0B3F5E14F00F0F3
:1019DC00D28008D8B3F5615F00F0CF80B3F5964F95
:1019EC00E7D1794B35E047F612218B42E1D14FF428
:1019FC0000032EE0B3F5613F00F0C18015D8B3F5BC
:101A0C00963F00F0BF800AD84DF6C0218B4200F003
:101A1C00BB80B3F5614FCCD14FF46B0319E0B3F538
:101A2C00E13FC6D14FF0EB7313E0B3F5612F00F03B
:101A3C00AE8009D865498B4200F0AC80B3F5E12F3C
:101A4C00B7D14FF0E86304E061498B42B1D14FF05C
:101A5C0080533969CCF824357B681B680243C3F882
:101A6C006C250B1DD5E9010183E803007368990708
:101A7C0013D505F11C0001F00DFB564B984240F0BC
:101A8C009E80287F04F10C0204F5907103F099F903
:101A9C002B7F0120984000F07BFEEB68002B7CD064
:101AAC007B68D7F810801B680422C3F80423D8F88D
:101ABC000C100122C1F8C0204749C3F804130821B7
:101ACC00C3F80015D3F84C11A1B15A60D3F84421D6
:101ADC001AB9D3F82421002AF8D00022C3F84C21DB
:101AEC00D3F84C11C3F81021D3F81011C3F84421CA
:101AFC00D3F84431D8F80C0038490022803003F078
:101B0C0030FBD8F80C30C3F8B480D8F80C0034494A
:101B1C000022203003F025FBD8F80C30C3F8548099
:101B2C0073689A075CBF4FF48073C4F8043373680E
:101B3C00DB0644BF4FF48003C4F804336B69C4F86C
:101B4C00443500200123C4F84805A360E36002B0CB
:101B5C00BDE8F0814FF41D037BE7224B79E74FF48E
:101B6C009E2376E74FF4A03373E74FF41C3370E7F2
:101B7C004FF41D236DE71C4B6BE71C4B69E74FF0D3
:101B8C006C7366E71A4B64E74FF4650361E74FF03B
:101B9C0070635EE74FF080635BE70823C4F80035A1
:101BAC00337A002BBCD1C4F81031D4F81031AB69A6
:101BBC00C4F834350123C4F838352360B0E76FF02E
:101BCC000400C4E700B0130000A04E0090D0030046
:101BDC0040420F000000AD0B10020A00B14C000097
:101BEC00854D00000050270000C0750000F03A0041
:101BFC0000903A012DE9F041044605690E4603F0C8
:101C0C007BF9B0B92A4B1B789BB16427606802F052
:101C1C0093FF002838D1012003F0D1F8013FF5D112
:101C2C000021212001F0F8FEEFE781F31188BFF3CA
:101C3C006F8F4FF02003EFF3118183F31288BFF302
:101C4C006F8FD4F8048040460F4602F075FF0028D1
:101C5C00EBD0EB685BB1DA684AB1D3F8BC20002A50
:101C6C0005DAD8F80020D2F84C25C3F8BC206B69F3
:101C7C001E7069690122204602F004FE87F3118868
:101C8C00BFF36F8FBDE8F0814FF02003EFF31181AC
:101C9C0083F31288BFF36F8F60680F4602F04CFF1E
:101CAC000028E4D181F31188BFF36F8FB8E700BF30
:101CBC00810800202DE9F04143681D680369D5F8BF
:101CCC00081188B0044669B10022C5F80821D5F87E
:101CDC000821DA68D2F8B8300133C2F8B83008B04D
:101CEC00BDE8F081D5F8243123B3C5F82411D5F81B
:101CFC00243143681B68D3F88064C3F880641422D1
:101D0C0003A803F0C8FA0623F2078DF80C3000F193
:101D1C000C81B30700F10B81770700F10A8106F003
:101D2C000806204603A98DF8106002F0D3FD20466A
:101D3C0002F066FED5F81031002B33D0D5F8043301
:101D4C00D8062FD54FF00008C5F810812669D5F8B4
:101D5C00103163681F68F368012283F8CE20F068A5
:101D6C00803003F00AFAF268D7F83C1592F8C930C3
:101D7C0082F8C980F268106E1B1A0B44106F23EAAC
:101D8C00E37108444345106702DD204602F0A9FDCB
:101D9C00F16891F8CA3003F0FF02002B40F0CB80C1
:101DAC0081F8CE20D5F84C3183B3D5F810616EBBD9
:101DBC00C5F84C6114222769D5F84C31314603A87B
:101DCC0003F069FA032303A920468DF80C3002F0C6
:101DDC0081FDFB685A6F511C18D0DA67FF688F4978
:101DEC00B86F8F4A20EAE07C8E464FF400403146B3
:101DFC00CCFB00E100237046FEF76AF902460B4665
:101E0C00CDE9000107F1800001F0F2FFD5F8443173
:101E1C0063B3D5F810614EBBC5F844612769D5F89A
:101E2C004431F968D4F804805831204602F072FD30
:101E3C00F9682046643102F06DFDFB6883F8CA60D6
:101E4C00FB6893F8CB2032B183F8CB6060683246E4
:101E5C00314602F012FED8F80430D80603D5022120
:101E6C00204602F03FFE204602F06CFDD5F82031F2
:101E7C00DBB1D5F80433D90517D563681B684FF06F
:101E8C002001EFF3118281F31288BFF36F8FD3F827
:101E9C00201131B10021C3F82011D3F820110121F8
:101EAC00D96082F31188BFF36F8FD5F85831002BAE
:101EBC003FF415AFD5F804335A027FF510AF6368C1
:101ECC002569D3E90073DB0666D4EB689B68002BAD
:101EDC003FF405AF4FF02003EFF3118283F3128828
:101EEC00BFF36F8FEB68D3F8BC100029ACBFD3F8ED
:101EFC00BC60D7F84C6582F31188BFF36F8FEB6829
:101F0C0093F8CD20002A54D04FF02003EFF3118624
:101F1C0083F31288BFF36F8F2946204602F01CFE14
:101F2C0086F31188BFF36F8FD9E60126F9E60226F6
:101F3C00F7E60426F5E65831204602F0EBFC4FF0AC
:101F4C002003EFF3118183F31288BFF36F8FF368D3
:101F5C005A6EF2B19A65F3689A6EDA65F2680023EC
:101F6C005366F2689366F2681366D7F84C310BB976
:101F7C0001233B60D7F8003223F02003C7F800326E
:101F8C0081F31188BFF36F8FF368002283F8CE20A2
:101F9C0008E701237B60F3E74FF48003C7F80833AD
:101FAC000121204602F09EFDEB68DB68002B8CD1F2
:101FBC0095E699681A6991420CD05969DA69B1426F
:101FCC00324428D1DA61284602F03FFD00289BD12B
:101FDC00EB68DE69E868203003F0CFF814220021AA
:101FEC0003A803F058F9EB689A68CDE90426DB687E
:101FFC009E421CBF01238DF80C304FF48003C7F8B0
:10200C000833EA6800239360EA6803A9D36020468A
:10201C0002F060FC63E61646DCE700BF3F420F00AF
:10202C0040420F0070B5012383400E4ABFF35B8F13
:10203C00DC4352E8001F01EA040542E80056002E7A
:10204C00F7D1BFF35B8F4FF4803282400648C0F863
:10205C000823BFF35F8FBFF36F8F0B4214BF0120B8
:10206C00002070BD580300200010014070B40E49D0
:10207C00D1E90034D01AC31844F1000422F07F4691
:10208C00C1E90034A6F50013B3F5400F09D2074B94
:10209C001B681A0A1B069C19054B42F10005C3E983
:1020AC00004570BC01F0AEBD900100205C03002027
:1020BC009801002011B3BFF35B8F0123104A8340BA
:1020CC0052E800CF4CEA030C42E800C10029F7D1DA
:1020DC00BFF35B8F0B4A4FF480338340C2F8043359
:1020EC00094BBFF35B8F1B68BFF35B8FC340DB07F0
:1020FC0042BF064B4FF40032C3F80021704700BFBB
:10210C0058030020001001405403002000E100E0BF
:10211C000D4B1868010A0006BFF35F8F0B4BD3F809
:10212C000435181841F10001B3F5801F0AD2084B91
:10213C00D3E90023904271EB030303D210F18070BA
:10214C0041F10001704700BF5C030020001001400A
:10215C00980100202DE9F04F85B016461F469DF8DA
:10216C0040A00446FFF75EFF0190FFF7D1FFB0429D
:10217C0071EB070354D23E4B301A67EB01019842C6
:10218C0071F100014FD23B4B03EB0413D3E9022353
:10219C009F4208BF96425ED037494FF4803804F115
:1021AC00500508FA04F8AD00C1F848832046ADB2DA
:1021BC0002F0E6FD26F07F4B05F1804504F5A8738F
:1021CC0005F58835DC464FF003090293029A2CF092
:1021DC007F4341F82230C1F84483D1F80435274AB3
:1021EC006FF00200C01A604420F07F40904232D958
:1021FC00286868B1D1F804350393A3EB0B0020F0E9
:10220C007F40B0F5000F26D9204602F0B9FD039BA4
:10221C00BAF1000F07D109EB030C09F10109D5E75D
:10222C00BAF1000F09D06FF0150520460199FFF7A0
:10223C0041FF284605B0BDE8F08F0123104ABFF3DB
:10224C005B8FA34052E8000F184342E800010029BD
:10225C00F8D1BFF35B8F07490E98230101EB0412F1
:10226C00C8500F9B5360C2E902670025DDE700BF31
:10227C00010080008001002000100140FDFF7F0064
:10228C00540300207FB51C4C1C4BC4F80833C4F815
:10229C0048331B4B00254FF0FF304FF0FF31C4F893
:1022AC000855C3E902014FF48033C4F80433154BCD
:1022BC0002264FF400320121C4F804631120C3F844
:1022CC0080212A46FEF7F0FC1120FEF7D1FC0E4AC5
:1022DC000123A360236013600C4B0D4A0093CDE9DE
:1022EC00015500232846FFF735FF3046FEF7DCFF8B
:1022FC00284604B070BD00BF0010014003000F0061
:10230C008001002000E100E058030020792000004B
:10231C00FFFF7F002DE9F7432F4CD4F804339907C6
:10232C000BD5D4F8043143B12C4A0023C4F8043142
:10233C00D4F80431136801331360D4F80433DA038E
:10234C002AD5BFF35B8F264B53E8002F22F00101F7
:10235C0043E800100028F7D1BFF35B8FD30702D4FA
:10236C00D4F84031C3B10025C4F84051D4F8403101
:10237C00FFF7CEFE4FF02003EFF3118283F31288A8
:10238C00BFF36F8F174BD3E90267B042B94106D246
:10239C0082F31188BFF36F8F03B0BDE8F0834FF069
:1023AC00FF384FF0FF39C3E90289D3E900101D60F3
:1023BC004FF48033C4F84833C4F84051D4F840315A
:1023CC0082F31188BFF36F8F0029E5D0009032465D
:1023DC003B4628468847DFE7001001405C0300209D
:1023EC00540300208001002030B5431C124C85B0F2
:1023FC0005D08442A8BF0446012CB8BF0124FFF7C6
:10240C0087FE0E4B0C4DD3E90013401AB0F5000FAC
:10241C0010D22218AA4228BF2A4652184FF00000A8
:10242C0007490091CDE9010043F10003FFF792FE4B
:10243C0005B030BD2A46F0E7FFFF7F009001002079
:10244C007920000008B5FFF763FE024B1B68C01A29
:10245C0008BD00BF900100204FF0704393F8E02FAF
:10246C00062A09D1D3F8E83FC3F30313033B042B2B
:10247C0002D8024AD05C7047002070471556000005
:10248C00024AD2F80034002BFBD0704700E0014028
:10249C0010B502F085FC40B14FF080538E4AD3F852
:1024AC002433C3F30423C2F84035FFF7D5FF10B132
:1024BC008A4B8B4A5A6702F073FC48B14FF0805339
:1024CC004FF08042D3F84432C3F34233C2F83C3568
:1024DC00FFF7C2FF30B1834AD2F8FC3023F080738F
:1024EC00C2F8FC3002F05CFC40B14FF0804300229B
:1024FC00C3F80C21C3F81021C3F83825FFF7ACFF43
:10250C0020B14FF080430322C3F8A025FFF7A4FFAE
:10251C0060B1754B0522C3F810260122C3F888263A
:10252C000022C3F818263F22C3F814264FF080531C
:10253C00D3F83021511C09BF4FF07043D3F834311C
:10254C0093F8E02FD3F8E83F08BFC3F30313062A30
:10255C004DD1033B042B03D8644AD35C002B46D0EB
:10256C004FF08052624BD2F80414C3F82015D2F805
:10257C000814C3F82415D2F80C14C3F82815D2F893
:10258C001014C3F82C15D2F81414C3F83015D2F863
:10259C001814C3F83415D2F81C14C3F84015D2F82B
:1025AC002014C3F84415D2F82414C3F84815D2F8F3
:1025BC002814C3F84C15D2F82C14C3F85015D2F8C3
:1025CC003014C3F85415D2F83414C3F86015D2F88B
:1025DC003814C3F86415D2F83C14C3F86815D2F853
:1025EC004014C3F86C15D2F84424C3F8702502F0DB
:1025FC00D7FB48B14FF080534FF08042D3F858329C
:10260C0003F04F03C2F8E43E02F0CAFB48B14FF0AE
:10261C008043D3F80024D20744BF6FF00102C3F803
:10262C0000244FF08053D3F83021062A26D1D3F85A
:10263C003431033B042B02D82E4AD35C63B12E4AAF
:10264C00D2F83C3743F48063C2F83C374FF08053E8
:10265C00D3F83031062B11D14FF08053D3F83431ED
:10266C00033B042B02D8254AD35C3BB14FF010231B
:10267C00D3F808224FF08043C3F858254FF01023AD
:10268C00D3F80022002A03DBD3F80432002B22DA21
:10269C001B4901234FF01020C1F804351524FFF716
:1026AC00EFFEC0F80042FFF7EBFEC0F80442FFF764
:1026BC00E7FE0023C1F80435FFF7E2FEBFF34F8FAE
:1026CC000849104BCA6802F4E0621343CB60BFF3B5
:1026DC004F8F00BFFDE710BD0030014000C0074028
:1026EC000DF0ADBA00ED00E00050004010560000B7
:1026FC0000C000400B5600000010004006560000C1
:10270C0000E001400400FA0530B50468CCB1BFF319
:10271C005B8FB4FA84F3C3F11F03DBB201229A403E
:10272C0024EA020250E8005FA54204D140E8002CE4
:10273C00BCF1000FF6D1BFF35B8FE6D102480B70F2
:10274C0030BD0248FCE700BF0000AD0B0200AD0B32
:10275C0010B50368CB40DB0714D401238B4002680F
:10276C00BFF35B8F43EA020150E8004F944204D15F
:10277C0040E8001CBCF1000FF6D1BFF35B8FEED12B
:10278C00014810BD0148FCE70000AD0B0400AD0B87
:10279C00014BC3F80405704700F00140F7B504463F
:1027AC0018B1012823D003B0F0BD4FF080430222B2
:1027BC00C3F808230122DA60C3F80401D3F804310A
:1027CC00064601238DF8073042F210754FF0804712
:1027DC00D4B1012CE7D1D7F80C3403F48033AEBB61
:1027EC0083B3012002F0EBFA013DF4D12AE04FF063
:1027FC0080430022C3F808035860C3F80021D3F8C3
:10280C0000310DF10706DCE7D7F8183403F48033F8
:10281C003EB9002BC7D0012002F0D1FA013DF3D113
:10282C00C1E7D7F8182402F003023260002BBAD0AB
:10283C009DF80700012803D102F0C1FA013DC7D170
:10284C00012CB0D1054B00225A71ACE7D7F80C24FF
:10285C0002F001023270002BEAD1F3E76003002092
:10286C00044B1A7922B9012218609A8002487047E9
:10287C0002487047600300200000AD0B0C00AD0B4C
:10288C0008B5074B1B682BB10020FEF7FFF908B900
:10289C00FEF7EEF94FF080430022C3F8182508BD6F
:1028AC006003002038B5B0B1012855D14FF08042FB
:1028BC000023C2F80031D2F80021304A03F18043E2
:1028CC00012119602E4B1B68002B50D04FF0804318
:1028DC00C3F8040340E04FF08043D3F81814D3F846
:1028EC001824C8032AD502F00303012B04D013B11A
:1028FC000020FFF753FF00234FF08042C2F8183539
:10290C000023C2F80431D2F804311E4AD2F8FC007C
:10291C0040F08073C2F8FC301B4B1C6844F0010182
:10292C0019605D685968491BB1F50A5FFAD31C60E0
:10293C00C2F8FC000823154A0220BFE7D3F8142480
:10294C00D107D8D5D3F81C249207D1D40C4A1268DD
:10295C001AB10222C3F8042338BDD3F80421002A8B
:10296C00FBD00022C3F80421D3F80431F4E7136838
:10297C00002BFCD0002313601368EDE7000100402E
:10298C006003002000ED00E0001000E004010040B6
:10299C0010B54FF08043D3F800216AB10022C3F880
:1029AC000021D3F800210122C3F80823114B5879D8
:1029BC0010B95A711B6898474FF08043D3F8042123
:1029CC0072B10022C3F80421D3F80421D3F81824DF
:1029DC00D3F81824920704D10122C3F818259A6061
:1029EC0010BD0222C3F80823024BBDE810401B683F
:1029FC00012018476003002070B500F108030C4C4F
:102A0C0034F81330DA0505460E4607D5C3F34323D5
:102A1C0004EBC30254F8333052689847A3682BB1C7
:102A2C00E26831462846BDE87040184770BD00BFCB
:102A3C000801002010B4C0B2114A083032F810302E
:102A4C00D9051BD5C3F3432123F4F85322F81030D6
:102A5C0002F10E04002034F8023F13F4807F03D0FF
:102A6C00C3F34323994209D001302028F3D100232A
:102A7C0042F83130034810BCFFF76ABE10BC7047F7
:102A8C000801002060010020F0B505460020044636
:102A9C00012607468C420BD1114BD3F87C2132B165
:102AAC000022C3F87C21D3F87C3140F00040F0BD0B
:102ABC00E3B29B0003F580729B0806FA03F31D42F8
:102ACC000BD002F1804202F5C042D2F800C0BCF13A
:102ADC00000F02D01760126818430134DAE700BF08
:102AEC0000600040CBB20246083308460C4931F86E
:102AFC001330990611D599070FD410685B0B01217F
:102B0C009940C0F80813126802EB8303D3F8102520
:102B1C0022F00302C3F810257047002102F0B0B96F
:102B2C0008010020F7B5CDB2174E0835074636F828
:102B3C001530DB070C4624D5FFF7D4FF36F81530DB
:102B4C009A0606D55B0B3A6803F5A273002142F88E
:102B5C0023102046FFF76EFF002301A826F815303E
:102B6C00019402F03AF9019B00EB8300074BD0F87B
:102B7C000027134043F00203C0F80037044803B0A9
:102B8C00F0BD0448FBE700BF08010020F0F8FCFF93
:102B9C000000AD0B0400AD0B2DE9FF411368074697
:102BAC000C461546FBB1CEB2DFF83C81083638F83E
:102BBC00162002F02202222A22D00022CDE9002285
:102BCC008DF80E208DF80F200DF10E010DF10F0276
:102BDC00204602F00CF938F8163023F0020343F0CB
:102BEC00010328F816306B684BB393F800C05A6891
:102BFC003D4EE3B2083336F81310880702D5B2B154
:102C0C003A481FE021F02001C904C90C26F8131022
:102C1C006AB1BCF1030FF3D86A683868526812784D
:102C2C00BCF1000F11D102F5A27240F822C036F8A7
:102C3C00132022F01C0242EA8C0226F81320AB6807
:102C4C0043BB2B4804B0BDE8F08100EB820041EAA5
:102C5C004231D0F810E52EF0030EC0F810E53F68B5
:102C6C0007EB820741F02001D7F8100526F8131066
:102C7C0020F4473020F44070C7F810052002D7F834
:102C8C0010E500F4F85040EA0C4040EA0E00C7F89A
:102C9C001005CCE7D3E900672046FFF7CBFE002EEA
:102CAC00CFD0114DD5E90023964203D19F4201D1DB
:102CBC00002209E00F480DF10F01FFF725FD0C4B29
:102CCC009842BFD19DF80F2045F83260E4B205EB75
:102CDC00C20308345F6035F8143043EA422343F4EE
:102CEC00807325F81430ACE7080100200400AD0B0C
:102CFC000000AD0B600100202DE9FF4107460C469A
:102D0C001E4612B3CDB2DFF8D080083538F8153036
:102D1C00980701D4990621D413F01C0F02D05378D4
:102D2C00012B1BD001238DF80F300023CDE900239C
:102D3C000DF10F01931C2046013202F058F838F8BF
:102D4C00153043F0030328F81530002E42D0E1B2C1
:102D5C00214D083135F81120930703D41F4804B0D6
:102D6C00BDE8F08196F800E0D7F800C022F0200210
:102D7C000EF5A270D2040023D20C4CF8203025F8AA
:102D8C00112096F801C0BCF1000F23D03868B6783A
:102D9C0000EB8E004FEA0C4CD0F8103523F498134E
:102DAC0023F4F853C0F81035230203F4F8530CF451
:102DBC00403C3605D0F8107543EA0C0306F4801637
:102DCC0042EA4E32334342F020023B4325F81120B5
:102DDC00C0F810350248C2E7080100200400AD0B12
:102DEC000000AD0B014BC3E9021270470801002033
:102DFC00C9B20831044B33F81130990643BF5B0B51
:102E0C000248137002487047080100200000AD0B07
:102E1C000400AD0B70B5184E96F8604005464CBBDF
:102E2C002146402206F1100002F035FA2D68306D73
:102E3C002146884212D10023C5F87C3145F3073076
:102E4C00D5F87C31FDF714FF4FF00043C5F804337F
:102E5C000A48012386F86030B36570BDCBB29B0085
:102E6C0003F580727C2B08BFAC5001F1010108BF47
:102E7C00AB58DEE70248F0E7080100200000AD0B7C
:102E8C000C00AD0B034B93F86000003818BF012009
:102E9C00704700BF080100200148FFF759BC00BF74
:102EAC005C0100200148FFF72FBC00BF5C01002033
:102EBC0073B5CBB20C4608331D4931F81330990663
:102ECC001AD513F0020617D15B0B9C00056804F5AC
:102EDC0080716E50695801682144D1F8104544F056
:102EEC000104C1F810452AB10168012202FA03F36A
:102EFC00C1F8043302B070BDC3F38203042B12D0AB
:102F0C00052B12D001A8019401F067FF019AD0F8AB
:102F1C001035D34003F00103991C204602B0BDE8E4
:102F2C00704001F0ADBF0321F7E70221F5E700BFC8
:102F3C00080100202DE9F347544B554FD3F80403F7
:102F4C00396DC0B240F00040FFF79EFD051E18DA47
:102F5C000023F96D0093684601F0A1FF4FF00108C2
:102F6C0097F85C30DA075AD4396D4FF00040FFF710
:102F7C008BFDF96D684601F092FF0028F0D125F029
:102F8C0000450124002D69D102B0BDE8F08794FA08
:102F9C00A4F4B4FA84F4E00804F1080304F0070282
:102FAC0037F813901DF80030019408FA02F223EA66
:102FBC0002030DF8003001A801F00FFF019B03F58F
:102FCC00E0734FEA990150F82360C9F3820A4B076A
:102FDC00D146C6F3014626D520465146FFF70CFDD7
:102FEC0001A8019401F0F9FE019B03F5E073F6B220
:102FFC0050F82330C3F301439E4207D100212046F1
:10300C0001F03EFF3146204601F03AFF01A8019441
:10301C0001F0E3FE019B08FA03F3C0F82035009C95
:10302C00002CB4D1A0E7022E0CD10321204601F0D4
:10303C0027FF0AF00503012BE8D149462046FFF78C
:10304C00DBFCE3E70221204601F01AFFBAF1030F83
:10305C00F3D0032EDAD1BAF1020FEDE795FAA5F30E
:10306C00B3FA83F304FA03F29B0003F1804303F5F4
:10307C00C04325EA0205D3F81005D3F81015C0F3A8
:10308C000420C1F30141FFF7B7FC7BE7006000406F
:10309C000801002001460148FFF736BB6C010020F7
:1030AC0008B5144BA8220021184602F0F4F80322AC
:1030BC00026111494261114A8161C2614FF480621F
:1030CC000262002282624262C26201660C4941665F
:1030DC001021816603460267C2664267BFF35F8FA9
:1030EC00084911F8010D98540132102AF9D1BFF397
:1030FC005F8F08BD680300201A5600008104002071
:10310C00710400203356000038B54FF02003EFF364
:10311C00118583F31288BFF36F8F064B9C6801F007
:10312C003BFE85F31188BFF36F8F2046BDE8384016
:10313C00FDF72EBD14040020104B70B553F8204041
:10314C00013053F82060A64200D870BDD4E9003598
:10315C0095B153B12846984738B10028B8BF4042C2
:10316C00EB68FF28A8BFFF201870EA68537843F07B
:10317C00010353700834E6E79847FBE788550000D5
:10318C0008B50A4B012203201A70FFF7D5FF00F097
:10319C0069FE0420FFF7D0FF00F00CF9FDF750F9A1
:1031AC00034A137B23F00103137308BD810800202D
:1031BC002002002008B50348034A0021121A01F02E
:1031CC0097FE08BD800100208408002070B5002304
:1031DC0086B00122CDE90423194E1A4D01930F221A
:1031EC00CDE902321849142303FB005506EBC01637
:1031FC0004464FF4C070154B00954FF4A07200FBC1
:10320C000411304600F096F8737B114AEE6023F0FF
:10321C00040373734FF4046304FB033313446B60B4
:10322C000C4B2C74BFF35B8F53E8001F013143E848
:10323C000012002AF8D1BFF35B8F06B070BD00BF3F
:10324C00A00100201404002000110020114F0000E8
:10325C00C00800201004002080B50020A6B0FFF7A5
:10326C006BFF2D4B83F308882C4D2D4E6B692D4F26
:10327C0043F400736B610024E02385F82230EC7773
:10328C002C766C76AC7685F820406B6A43F4E023A0
:10329C006B6285F82340FDF7E9FBFDF787FD4FF0E6
:1032AC00FF33AB62EB62FDF729FEFDF7BFFD40F289
:1032BC000113ADF8243006ABB360CDE91E44219464
:1032CC0001F00AFE0120FFF737FF0220164DFFF731
:1032DC0033FF00F017FB154B75610593012314495F
:1032EC000094CDE903434FF480623B46CDE90144A1
:1032FC00284600F01FF86A7B064622F00402284696
:10330C006A7301F045FE2046FFF760FF3A463146EE
:10331C002846FDF72FFD00BF0011002000ED00E056
:10332C00140400208D3100002002002034560000CF
:10333C00801200202DE9F04385B00732994600F148
:10334C00580322F00706C0E91633109B037306F1ED
:10335C0040050423002743730D440F9B8373884659
:10336C00C0E9067729468760C7730446FDF7FEF966
:10337C0008F140030730C4E9183620F007000E9B13
:10338C00A06602930D9B01932D1A0C9B00932A4669
:10339C004B4641462046FDF7BBFC054B67659B68D9
:1033AC0003B1DB6EE366284605B0BDE8F08300BFD1
:1033BC001404002070B5224C224D86B02646AE4235
:1033CC0004F130040AD300F06DFA1D4C1E4EAC42D1
:1033DC0020D306B0BDE8704000F078BA54F80C3C2D
:1033EC00059354F8103C049354F8143C039354F88C
:1033FC00183C029354F81C3C019354F8203C009365
:10340C0054E90A2354E90C01FFF794FF54F8303CBB
:10341C005E65D3E7D4E90A23B3F1FF3F08BFB2F1ED
:10342C00FF3F05D052EA0301206803D100F01CFADB
:10343C003034CCE73146183000F06EFBF8E700BFB3
:10344C007C5400007C5400005B50000038B50446EE
:10345C004FF02003EFF3118583F31288BFF36F8FC6
:10346C0001F010FE48B10022826701F091FD29465F
:10347C000748BDE8384000F0E5B9D4E902329A4279
:10348C0018BF0133A36085F31188BFF36F8F38BD6C
:10349C008208002013B54FF02004EFF3118184F360
:1034AC001288BFF36F8F846844B1013C846081F350
:1034BC001188BFF36F8F002002B010BD52EA0304D5
:1034CC0006D181F31188BFF36F8F6FF00F00F3E714
:1034DC00CDE900230246024800F096F9ECE700BF64
:1034EC0082080020C3897F2B12D80A4B1B6863B15A
:1034FC00094B90F90E201B689A4209DB437BDB06D3
:10350C0006D1064BC31A18BF012303F00100704704
:10351C000023FAE73C04002038040020A00100201E
:10352C00044BC01A044BC0105843044B01221A54CC
:10353C00704700BFA0020020ABAAAAAA82080020F4
:10354C0070B50E4B0E4C1E7C06EB460304EBC3040D
:10355C000546204601F0E9FD0A4B002228469A5503
:10356C00FFF7C0FF48B1084B08491A68013A2046DA
:10357C00D317BDE8704000F0CFBA70BD1404002022
:10358C00A0020020820800203C0400202D35000001
:10359C0038B50D4D2B4653F8184F9C4200D004B94A
:1035AC00EC68AB6838B95A7BD20604D1A26912B95F
:1035BC00DA897F2A05D89C4202D02046FFF7C0FF4B
:1035CC0023466B6138BD00BF1404002070B590F920
:1035DC000D20437B002A014604DA03F07F0343737A
:1035EC0001F09CFC4B7B154A63F07F0310464B7338
:1035FC0050F8183FD469834208BF002323B9C1E9AE
:10360C0000042160D1610CE091F90E5093F90E6029
:10361C00B5420ED0AE420CDD5868C1E900300160F5
:10362C0059609068431A5842BDE870405841FFF702
:10363C00AFBF9C42E3D01B68E0E700BF140400203E
:10364C0070B490F90D30427B002B29DBD30627D1C7
:10365C0083692BBB134962F07F0242730A4652F80E
:10366C00184F944218BF2346CC6923B9C0E90024F3
:10367C002060C8610CE090F90E5093F90E60B542D1
:10368C000AD0AE4208DD5A68C0E9003210605860BA
:10369C0070BC0020FFF77CBFA342E7D01B68E4E7B7
:1036AC0070BC70471404002008B590F90D20437BC2
:1036BC00002A014604DA03F07F03437301F02EFC69
:1036CC00044B9868431A58425841BDE80840FFF72C
:1036DC005FBF00BF1404002070B515461C4606469B
:1036EC0001F02EFCB4F1FF3F08BFB5F1FF3F08D04D
:1036FC002A46234606F118000249BDE8704000F046
:10370C000BBA70BD5B5000002DE9F041002A437BE1
:10371C000E460CBF10210821194204460AD10B4356
:10372C00DD0903F09F0211D14273082914D0012046
:10373C00FFF72EFF1B4B9B68A3422CD1EFF30583A5
:10374C004BBB3046BDE8F041FDF738BA03F01F0320
:10375C00437301F0E3FBE8E7A36813B1204601F0E3
:10376C00E5FB04F1180001F0E0FC04F158074FF000
:10377C000008A56DBD42DAD0002DD8D0284601F046
:10378C00D5FB05F1180001F0D0FCC5F8788028466F
:10379C00FFF756FFEDE786F31188BFF36F8FBDE897
:1037AC00F08100BF1404002038B54FF02003EFF374
:1037BC00118583F31288BFF36F8F104B104A9C68EE
:1037CC001068A04206D1FFF7BBFE85F31188BFF34A
:1037DC006F8F38BD00211B7C11600A4AD35C002B13
:1037EC00F3D02046FFF77EFE0028EED0637BDB068D
:1037FC0002D12046FFF7EAFE2046E4E7140400203D
:10380C00340400208208002070B50C480C4D8668EA
:10381C002E600C461146DDE904234FF02006EFF331
:10382C00118586F31288BFF36F8F8068FFF754FF02
:10383C002046BDE87040FDF7C1B900BF140400205C
:10384C003404002049B9EFF3058030B9054B5A69AF
:10385C009B689A4201D0FDF7B1B981F31188BFF38F
:10386C006F8F70471404002010B54FF02002EFF357
:10387C00118482F31288BFF36F8F427B510704D4FB
:10388C0084F31188BFF36F8F10BD22F004024273D2
:10389C00FFF7D6FE21460248BDE81040FFF7D2BF25
:1038AC00830800204FF02003EFF3118183F312887B
:1038BC00BFF36F8F044B9A68D37B013BD37381F3B7
:1038CC001188BFF36F8F70471404002010B54FF0B0
:1038DC002003EFF3118483F31288BFF36F8F084B2F
:1038EC009A68D37B0133D3730020FFF751FE84F326
:1038FC001188BFF36F8FBDE8104001F0EBBB00BF28
:10390C0014040020024B03F11802C3E9062270478D
:10391C0014040020F8B54FF02003EFF3118583F366
:10392C001288BFF36F8F19498868437B03F07F03BC
:10393C00437301F0F3FA8B685A7B084662F07F02FE
:10394C005A7350F8182FCC69824208BF002222B952
:10395C00C3E900042360CB610CE093F90E6092F98B
:10396C000E70BE420ED0B7420CDD5168C3E9002187
:10397C000B6053600120FFF70BFE2846BDE8F840B2
:10398C00FDF71CB9A242E3D01268E0E71404002052
:10399C0050EA01032DE9F04105460E4603D1FFF72D
:1039AC00B9FF00202CE0831C71F1FF332ADB01F0FE
:1039BC00D2FB2C184FF02003EFF3118883F31288FD
:1039CC00BFF36F8F114F124BB8681860FFF76CFE86
:1039DC00B86810492A463346183000F09DF8BA688A
:1039EC00537B43F0100353734046FDF7E7F801F0A7
:1039FC00B2FB201A63EB0303012873F10003D0DB45
:103A0C00BDE8F0816FF00104241AD3E71404002000
:103A1C00340400205B500000B1F1FF3F08BFB0F14F
:103A2C00FF3F08B506D1084B986801F0C1FA4FF07A
:103A3C00FF3008BDFFF7ACFF4FF47A7380FB030334
:103A4C00C00B40EA4340F4E714040020014B986893
:103A5C00704700BF1404002008B50648064A074901
:103A6C00121A01F047FABDE80840054A0549064814
:103A7C0001F040BA000000207F01002078560000C1
:103A8C00000000007856000000000020034B1B686B
:103A9C000BB9FEF7D7BC0020704700BF40040020D4
:103AAC0010B50E4B1C689C4204D1FFF7EFFF6FF072
:103ABC00004010BDFFF7EAFF002CF8D0D4E9043227
:103ACC001B1A62EBE072B3F1004F72F10001EEDAF7
:103ADC00002AACBF18460020EBE700BF70010020A5
:103AEC0030B570B10B4B5B6898420AD0036843B198
:103AFC00D3E90421D0E90445121941EB0501C3E9CE
:103B0C000421D0E9003213605A600023C0E900336D
:103B1C0030BD00BF70010020B3F1FF3F08BFB2F110
:103B2C00FF3FF8B504461D4616465CD081604FF049
:103B3C002003EFF3118783F31288BFF36F8F0132E9
:103B4C0075F1FF3324DA2D49D1E900206FF0010320
:103B5C009B1A4FF0FF3262EB00009E1B60EB0500DE
:103B6C00012E70F1000301DA01260020C4E9046083
:103B7C00234ED6F800C07568B44508BF4FF0000C52
:103B8C00BCF1000F0DD1C4E900652C6074601CE021
:103B9C00FFF77CFF013645F10005361845EBE07068
:103BAC00E4E7DCE90420D4E90431934271EB000E24
:103BBC001ADAD21ADCF8043060EB0100CCE90420EC
:103BCC00C4E900C31C60CCF804403368B34206D08F
:103BDC009C4204D1FFF764FF0021FEF705FC87F33C
:103BEC001188BFF36F8FF8BD9B1A61EB0001AC45D8
:103BFC00C4E90431C7D0DCF800C0C1E7B80200202A
:103C0C00700100202DE9F84F4FF02003EFF3118CD9
:103C1C0083F31288BFF36F8FDFF8B0A0DFF8B0909A
:103C2C002C4FC9F80000DAF800000024504508BFFA
:103C3C0000200025D7E90021D9F80030E04680B3F8
:103C4C00D0E9046C4FEAE37EB3427EEB0C0B05DA51
:103C5C00F61A6CEB0E04C0E9046422E0B21841EBD6
:103C6C00E671C0E90445C7E90021FFF739FF88F385
:103C7C001188BFF36F8F836898474FF02003EFF3E1
:103C8C00118883F31288BFF36F8FD9F80030DAF8FC
:103C9C0000009B1B5045C446C9F80030CAD1D7E977
:103CAC0000219A1841EBE3730024C7E90023C9F8FB
:103CBC000040FFF7F5FE2146FEF796FB88F31188CE
:103CCC00BFF36F8FBDE8F84FFFF76EBD700100209A
:103CDC0040040020B802002010B54FF02003EFF391
:103CEC00118483F31288BFF36F8FFFF7CFFE064A60
:103CFC000346D2E90001181841EBE37184F31188F3
:103D0C00BFF36F8F10BD00BFB8020020F8B504469A
:103D1C004FF02003EFF3118783F31288BFF36F8FFB
:103D2C00026822B187F31188BFF36F8FF8BDD0E919
:103D3C000A36581C46F10001022871F1000127D304
:103D4C00012B76F10001BCBF012316465D1E46F126
:103D5C00FF3601F004FA013041F10001401946EB45
:103D6C000101012871F100013ADB01F0F8F9013091
:103D7C0041F100016FF00102401946EB0103121AE8
:103D8C004FF0FF3161EB030318492046FFF7C4FEE7
:103D9C00236B01332363236A73B187F31188BFF359
:103DAC006F8F236A204698474FF02003EFF311875B
:103DBC0083F31288BFF36F8F54F8185FA542B1D00C
:103DCC00002DAFD0284601F00EF90023AB6787F326
:103DDC001188BFF36F8F2846BDE8F84001F0D8B8C2
:103DEC006FF001024FF0FF33CEE700BF193D00002A
:103DFC002DE9F04105461C4690461F464FF0200326
:103E0C00EFF3118683F31288BFF36F8FB4F1FF3F8A
:103E1C0008BFB2F1FF3F05D186F31188BFF36F8F56
:103E2C00BDE8F081531C74F1FF3309DB012A74F1F6
:103E3C000003BCBF0122002412F1FF3844F1FF370C
:103E4C00284601F072F9DDE906010023C5E90A01F3
:103E5C002B63034942463B462846FFF75DFEDBE7F2
:103E6C00193D0000014800F06CBA00BF3956000043
:103E7C002DE9F04F8DB043680293837815469A076D
:103E8C00804640F10D8100240E78002E00F00A814E
:103E9C00252E0BD04B1C03930134029B414630461C
:103EAC0098470028C0F2F6800399EDE74E788B1CFA
:103EBC00252E0393F0D00027B946BB46BBF11F0F4C
:103ECC0038D8A6F12003102B0AD8DFE803F02A0912
:103EDC0009300909092109090928092D09091F00B7
:103EEC00A6F13003092B33D92A2E37D11BF0400F02
:103EFC0055F8043B40F08280002BA7BF4BF0200B01
:103F0C009946C3F100094BF0280B01E04BF0010B73
:103F1C00039B13F8016B0393002ECFD130E04BF0D1
:103F2C00020B4BF0040BF3E74BF0080BF0E74BF0F4
:103F3C00100BEDE7BBF17F0F19D8A6F13003092B5D
:103F4C00D2D81BF0400F03D00A2101FB0737DFE763
:103F5C000A2101FB09394BF0200BD9E72E2E06D193
:103F6C001BF0400F40F09E804BF0400BD0E76C2EC6
:103F7C0031D02BD8682E36D06A2E3CD04C2E3AD06D
:103F8C00002F46F02003B8BF2BF04002A3F16501CF
:103F9C00BCBF1FFA82FB0027022901D9612B2FD14C
:103FAC00073525F00705DFF8ACA2083507271BF00D
:103FBC00080F66D00AEB070B56465E4563D1A4EB9F
:103FCC000A0A06EB0A02A9EB07096FE1742E9FD0CF
:103FDC007A2E9DD0D4E71BF0800F18BF4BF4007BDA
:103FEC004BF0800B94E71BF4807F18BF4BF4007BE5
:103FFC004BF4807B8CE74BF4207B89E71F4687E7EB
:10400C00A6F16301122900F2F080DFE811F0130031
:10401C004F00EE00EE00EE00EE004F00EE00EE0062
:10402C00EE00EE00EE00FE00E900EE00EE001B00DC
:10403C00EE00AF0055F8043B8DF8183001270DF158
:10404C00180AB4E755F804AB834BBAF1000F08BF5C
:10405C009A461BF0400F14BF39464FF0FF315046C3
:10406C0001F0A8F80746A2E7029B4146202098479A
:10407C0000280FDB013EB742F6D34C44A41BB146DB
:10408C0098E74E46F7E716F8010B029B4146984716
:10409C00002892DA98F8023043F0040388F80230D2
:1040AC004FF0FF3420460DB0BDE8F08F1BF0800FB1
:1040BC0034D01BF4007F2CD0073525F00705AA4619
:1040CC0069685AF8080B2BF010050029ADB237DAE5
:1040DC00404261EB410145F480650DF1180B0A2358
:1040EC005A4601F073F8A0EB0B0301936B0662D5F3
:1040FC00019B25F001019F4289B240F3A180002E63
:10410C0000F0998015F0100240F09C80BB460D46E3
:10411C0023E0AA465AF8040BC117D4E7AA461BF4AD
:10412C00807F5AF8041B01D10846F5E71BF4007F89
:10413C0015BF48B208B241F3C01141F3C031C2E718
:10414C0050EA0103C9D11BF0400FC6D0002FC4D1D7
:10415C002BF0110295B2BB46019740F2064115EACD
:10416C0001021CBF0BF1010B00222CE02BF0100202
:10417C001FFA82FB0A231BF0800C49D01BF4007140
:10418C001DBF073525F00705AA46AA461ABF5AF8DF
:10419C00080B69685AF8040B50EA010545D12BF05D
:1041AC0016051BF0400FADB242D0002F40D12BF0C2
:1041BC00170295B2019715F0100248D0019B002E02
:1041CC0042D103F1010B29075AD4EB0706D5D94587
:1041DC006FDD0199A9EB0B035F18CB465B4649E0F9
:1041EC004BF0100B10237826C5E7782B04D1C6F1C1
:1041FC00780343F01003BEE7029B41462520984705
:10420C000028FFF647AF023447E608230026B2E742
:10421C00AA461BF480715AF8040BBDD01BF4007134
:10422C001ABFC0B2614680B2B6E72BF0060295B257
:10423C000DF1180B54E725F01105ADB2BB468CE718
:10424C000D46B8E73B460D4603F1020BBBE7DDF824
:10425C0004B082E76E56000067560000CDE90432C8
:10426C004146029B202098470028FFF613AF049B81
:10427C00059A01339945F1DCA4EB0B01CC189B4654
:10428C000AB3029B4146302098470028FFF602AF44
:10429C008EB901342744019B391B994224DC1D46FD
:1042AC005DBB019AA9EB0B09224455461446914477
:1042BC0035E0019F92E7023441463046029B984715
:1042CC000028E7DAE6E640F206410D42E2D015F0AE
:1042DC00020F14BF2B20202015F4806F04F1010471
:1042EC00414618BF2D20E9E7029B414630209847F4
:1042FC00002804F10104CEDACCE606AB013D4146C0
:10430C00585D029B98470028CADAC3E6029B4146D7
:10431C0020209847002804F10104FFF6BBAEA9EB5E
:10432C000403002BF2DCBFE57047430983EA9013CA
:10433C0003F0010343EA400000F07F0070470020C7
:10434C0070470FB407B504A951F8040B0191FCF7A1
:10435C00C3F803B05DF804EB04B0704700EBC10088
:10436C00408840087047F8B50346FFF7F7FFB0FAEE
:10437C0080F0C0F11F0003EB800CCA00DCF8106069
:10438C00171D0C4606328DB256B9012101FA00F008
:10439C00D9680143D960CCF81040DD539D52F8BD6B
:1043AC00F1000431585AD85303EBC0009E52C5801B
:1043BC005D52F4E7043A2DE9F041CC1D114424F090
:1043CC00070421F007010E1BF708B7FA87F2C2F1B8
:1043DC002405AD004FF000080735C2F12002ED08AE
:1043EC0004604146A760C4F80C80920004F11000F0
:1043FC0000F051FF6B0043F00103638004EBC50236
:10440C007B1B5900A4F800805180A21924F8355068
:10441C00A2F80280A35304EBC70329465A8842F042
:10442C0001025A802046BDE8F041FFF79CBF038B88
:10443C0013F0070305D10368002B0CBF00200320E9
:10444C007047022B05D1408BB0FA80F040098000F8
:10445C007047012B05D10368002B0CBF00200520F1
:10446C0070470020704710B50C4600B111B96FF0C1
:10447C00150010BD081D00F095F80028F9D1A368AF
:10448C00032BF6D9F3E72DE9F0410D460746194603
:10449C00281D90461E4600F096F8044638B1334667
:1044AC00424629463846A446BDE8F0416047BDE87F
:1044BC00F08110B44FF02004EFF3118284F31288D2
:1044CC00BFF36F8F416110BC0121FCF737B838B5D1
:1044DC000C46054658B151B10B6843B14B6833B12A
:1044EC001C22002100F0D7FE2C61002038BD6FF09B
:1044FC001500FBE770B505460E46FFF7B4FF041E2A
:10450C0015DB4FF02003EFF3118283F31288BFF316
:10451C006F8F6B8B2C8B4FF6FF718B4204F0070463
:10452C0007D182F31188BFF36F8F6FF00A04204616
:10453C0070BD022C0CD101336B8382F31188BFF355
:10454C006F8F0023224631462846FFF79CFFEEE78B
:10455C00062C14D8DFE804F004131313041A040017
:10456C00002333606B683BB9C5E90066ACB9022126
:10457C002846FBF7E3FFDAE71E606E60F6E782F38E
:10458C001188BFF36F8F6FF00404D0E782F31188AA
:10459C00BFF36F8F6FF08504C9E782F31188BFF307
:1045AC006F8FC4E7034658B1426802F00302012A38
:1045BC0003D0032A04D1026812B10020986070471E
:1045CC006FF0150070474268816002F00302032A05
:1045DC004FF0000203460CBF006810465A6070474B
:1045EC007047FEF791BD01460068FEF78DBD08B51A
:1045FC00FCF7B8F8BDE80840FCF7E6B8002101204C
:10460C00FFF7EFBF202809D9B0F1004F08D80138C7
:10461C00B0FA80F0C0F11F004000704708207047CE
:10462C003E2070472DE9FF410E469846144605463C
:10463C000027B74220DA6868C8B1B8F1000F07D07C
:10464C00431E184216D11F2814D92A68134211D1BF
:10465C002B680193FFF7D6FFAB6803430393E3B2D8
:10466C00072B07D8204601A9FCF7FCFB01340137C6
:10467C000C35DEE76FF01504204604B0BDE8F08180
:10468C0008B5FCF7CDFC002008BD0369C9B20C22AB
:10469C0001FB0233186C00F0070070474FF0200349
:1046AC00EFF3118283F31288BFF36F8F036803F06B
:1046BC00C00343F00203036082F31188BFF36F8FD2
:1046CC00704770B5C9B203694FF02004EFF3118540
:1046DC0084F31288BFF36F8F0C2606FB0134246C15
:1046EC0014F0C00408D0A24206D085F31188BFF3A1
:1046FC006F8F4FF0FF3070BD06FB013301221A643F
:10470C0085F31188BFF36F8F436803EBC1035B68BC
:10471C0098470020EFE78022FFF7D3BFF8B5069F3C
:10472C000469C9B24FF02005EFF3118685F31288A6
:10473C00BFF36F8F0C2505FB0144256C05F0070CAE
:10474C00BCF1010F0CD1276486F31188BFF36F8F76
:10475C00C4E90E23436853F8313098470020F8BD64
:10476C0005F0C005AF4286F31188BFF36F8F0CBF05
:10477C006FF077004FF0FF30F1E713B58024009411
:10478C00FFF7CCFF02B010BD10B40069CBB21C24F3
:10479C0003FB0400002110BC1047002000F01BBBE1
:1047AC001046FEF753BE43685B68D3F810350B60B8
:1047BC000020704743685B6802EA010021EA0201AD
:1047CC00C3F80805C3F80C150020704743685B68F4
:1047DC000020C3F80815704743685B680020C3F8D5
:1047EC000C15704743685A68D2F8043521EA030067
:1047FC000B40C2F80805C2F80C350020704710B504
:10480C0003695868F8B1884219D19C6808685860E7
:10481C00A14200D19860002008602AB15A680A6051
:10482C009A68596002B99960002010E0814206D163
:10483C000868206098688142EDD19C60EBE70446E3
:10484C0000680028F2D1002AE8D16FF0150010BDE5
:10485C0030B543681360057A446804EBC504A34281
:10486C0002D36FF0010030BD5C798C4201D008336B
:10487C00F0E70020F7E743681B68D3F88004C3F81F
:10488C008004704710B544682368C3F84415C3F816
:10489C0048250022C3F82021D3F82011C3F8582151
:1048AC00D3F858216268D20611D50269D2682AB1B0
:1048BC00D2F8C01041F00101C2F8C0104268126871
:1048CC000821C2F800154FF48002C3F8042301221A
:1048DC009A6010BD0369DA6813680BB15268184707
:1048EC00704770B586B0066904460D461422002147
:1048FC0001A800F0D0FC02238DF80430F3689A6D07
:10490C001B6E029201A92046CDE90335FFF7E2FFA9
:10491C0006B070BD70B50E6886B005460C467EB10B
:10492C001422002101A800F0B6FC04230DEB0301B6
:10493C0028468DF804300296FFF7CCFF0023236045
:10494C0006B070BD10B586B004461422002101A833
:10495C0000F0A1FC052301A920468DF80430FFF7D7
:10496C00B9FF06B010BD70B5436805691B684FF000
:10497C002000EFF3118680F31288BFF36F8FEC6881
:10498C00A06D98B1606EA0B96166EC68A266C3F8C0
:10499C003415C3F83825D3F8002242F02002C3F8AE
:1049AC00002286F31188BFF36F8F70BD6FF00C007F
:1049BC00F7E76FF00F00F4E70369D86820B10160E6
:1049CC00DB6800205A6070476FF08500704710B5A7
:1049DC0002694368D0681B6860B9D3F8104164B1B0
:1049EC00926912780A70C3F81001D3F810210122D1
:1049FC001A6010BD6FF08500FBE74FF0FF30F8E751
:104A0C0038B5436805691C68EB689A6DD2B15B6E6A
:104A1C0053B1D4F8003223F02003C4F80032002341
:104A2C00C4F84C31D4F84C31E868803000F0A5FB68
:104A3C00EB68002083F8CA00EA68012382F8CB30C7
:104A4C00636038BD6FF00D00FBE708B5C368DA682A
:104A5C00D969521A0FD0082A28BF08225A61C36894
:104A6C0099691961C3689868D9690144986900F01B
:104A7C0004FC012008BD1046FCE773B5066814461B
:104A8C00D6F83C550B46F1B10021184600F003FC5A
:104A9C0003460146C6F834150021C6F838450120F6
:104AAC00C6F81011D6F81021F062D6F810010028C3
:104ABC00FBD0C6F81011D6F81021D6F83C052BB94E
:104ACC00C0B202B070BD05246946E3E78542F7D158
:104ADC001A19934201D10020F3E713F8011B0029A6
:104AEC00F7D0EDE770B5044602694FF02003EFF301
:104AFC00118683F31288BFF36F8FD068D0F8C03063
:104B0C0023EA0103C0F8C030D568D5F8C03073B9BA
:104B1C00022907D16068052205F1C401FFF7ADFF3A
:104B2C0085F8C90063681B680022C3F8002586F36A
:104B3C001188BFF36F8F70BD02680346D2F858011D
:104B4C0040B95B689B0706D4D2F82001003818BF27
:104B5C00012070470120704710B504464068FFF7EC
:104B6C00EBFFCB6818B9012283F8CD2010BD0022D1
:104B7C0083F8CD20CB684FF0FF32C3F8BC20CB6854
:104B8C002046D3E90412BDE81040FFF77BBE2DE9A7
:104B9C00F047D0F804A00469DAF8008017469AF8B8
:104BAC00082005468946002A76D1E26892F8CA1098
:104BBC00002974D192F8CB0000F0FF0100286ED1CF
:104BCC005367E268052093FBF0F39367E368C3F83F
:104BDC005890E368DF65E3681966E3685966E36833
:104BEC009966DAF80430DA0623D5E16891F8C960E1
:104BFC00FEB1BE4228BF3E4648463246C43100F0A4
:104C0C003CFBBF1BB14414D1E26892F8C9309B1B2A
:104C1C0082F8C93031462846FFF763FEE168284622
:104C2C005831FFF777FE2846FFF78CFE0020BDE8D1
:104C3C00F0870023C8F83495C8F83875C8F81031D7
:104C4C00D8F81021C8F84C31D8F84C31E36801225F
:104C5C0083F8CA20DAF80430DB0619D54FF02003AC
:104C6C00EFF3118183F31288BFF36F8F2B69DB682D
:104C7C002BB1D3F8C02042F00202C3F8C0206B68FD
:104C8C001B680822C3F8002581F31188BFF36F8FCE
:104C9C000123C8F80030C9E76FF08500C7E76FF053
:104CAC000F00C4E7F8B5456BEB6893F8CE3003F012
:104CBC00FF0703BB2E6873681B681022C3F8082318
:104CCC00EB68D3F8B820D96E91421FBFDA66EB6857
:104CDC005A6FDA67EB68D3E91B42A41A0CD5C3F8F8
:104CEC00B820EB68D3E917128A420AD873681B689C
:104CFC001022C3F80423F8BDD3E91712A018884278
:104D0C0006D98C1A002CF1DD9B6DC3B1012708E08C
:104D1C00002CEBD0D3E91E128A4215DA9B6D002BC6
:104D2C00E4D021463046FFF7DCFDEA68136E2344DD
:104D3C001366EA68136F23441367002FD6D0E86814
:104D4C00803000F01AFAD1E7521ADA67CEE738B59C
:104D5C00426803691568DA68916851B1002482F8D9
:104D6C00CD40D868203000F008FA0123EB602046D3
:104D7C0038BD6FF00D00FBE7436B1868FFF7E7BF1A
:104D8C0000F150039B009BB203F1804303F5883381
:104D9C0000221A601B68704708B50020FBF7A2FEC2
:104DAC004FF08053D3F83001421C04BF4FF07043D6
:104DBC0093F8E00F831F584258417047004700F0AA
:104DCC0087B8C00000F1804000F5F830C0F810152D
:104DDC00C0F814257047FDF7E1BC036803F01F020F
:104DEC005B0902600CBF4FF0A04000207047F7B584
:104DFC00019001A8DDE9084716461D46FFF7EDFFB7
:104E0C00019BB6F1000C18BF4FF0010C00EB8300B6
:104E1C000B1E18BF0123002D43EA4C0314BF4FF0A7
:104E2C000C0C4FF0000C002C43EA0C0314BF4FF495
:104E3C00E06C4FF0000C002F43EA0C03D0F8002775
:104E4C0014BF4FF4403C4FF0000C43EA0C0322EA31
:104E5C00030301B109780EB13678760019430DB110
:104E6C002D78AD0031430CB12478240229430FB1C5
:104E7C003F783F040C433C43C0F8004703B0F0BDFF
:104E8C001FB50DF10F03019300238DF80F10009344
:104E9C001A461946FFF7ABFF05B05DF804FB024656
:104EAC0011F0010007D04FF0A041D1F8203513606C
:104EBC00C1F8203503B900207047FDF733BEFDF76C
:104ECC0011BEFEF7EDB808B5FFF7FBFF002008BDDB
:104EDC0008B1FCF7D7B87047704740B1C368587831
:104EEC0010F001001EBF1878B0FA80F0400970472E
:104EFC0000F0D1B900F0C1B9EFF30580003818BF4C
:104F0C000120704708B54FF02002EFF3118382F3B4
:104F1C001288BFF36F8FFBF74FFFF4E7D0E9003235
:104F2C0013605A600023C0E90033704708B5FFF7DF
:104F3C00F5FF437B23F0020343730023836008BD1A
:104F4C0038B504460D46FEF7AFFB637B43F0020316
:104F5C006373E5B1A5602B689D4209D16B68C4E908
:104F6C0000531C606C6012E06A689342F6D01B68B8
:104F7C00002BF3D094F90E2093F90E108A42F3D043
:104F8C009142F1DD5A68C4E9003214605C6038BDAE
:104F9C0010B54FF02003EFF3118483F31288BFF3A5
:104FAC006F8FFEF74DFB84F31188BFF36F8F10BD2D
:104FBC0010B50446183000F0B8F84FF02003EFF3AA
:104FCC00118183F31288BFF36F8F627B12F0100292
:104FDC0004D081F31188BFF36F8F10BD2046BDE85C
:104FEC001040FEF791BB08B54FF02002EFF3118192
:104FFC0082F31288BFF36F8F83680BB1FFF796FFB4
:10500C0081F31188BFF36F8F08BD38B504464FF09C
:10501C002003EFF3118583F31288BFF36F8F437B6B
:10502C0013F0280F0BD183680BB1FFF77FFF637B65
:10503C0051B903F0FB0363732046FEF701FB85F3C4
:10504C001188BFF36F8F38BD03F0EB03F3E7012139
:10505C001838FFF7DABF08B503464FF02002EFF31C
:10506C00118182F31288BFF36F8F0068834207D0DF
:10507C0008B1FFF75BFF81F31188BFF36F8F08BD99
:10508C000020F8E738B54FF02003EFF3118583F3D8
:10509C001288BFF36F8F0468A0420DD034B1204644
:1050AC00FFF744FF04F1180000F03FF885F3118876
:1050BC00BFF36F8F204638BD0024F7E7034620B9B5
:1050CC00EFF305820AB9FBF779BD83F31188BFF3BF
:1050DC006F8F70474FF02003EFF3118083F312882A
:1050EC00BFF36F8FFFF7EABF4FF02002EFF3118190
:1050FC0082F31288BFF36F8F027BD2070AD581F33C
:10510C001188BFF36F8F404080F311884FF004007B
:10511C0002DF7047437B1B0704D581F31188BFF373
:10512C006F8F70470122FEF7EFBA10B54FF02002D7
:10513C00EFF3118482F31288BFF36F8F03683BB1D6
:10514C00FEF7CEFC002084F31188BFF36F8F10BDE7
:10515C006FF01500F7E708B5FEF7BEFD08BDFEF7CA
:10516C00BBBD0023C0E9081200F11802C0E90622F9
:10517C00C0E9003303634363704710B50446FFF77F
:10518C00D4FFB0B9636A0BB12046984704F11800FC
:10519C00FFF761FF68B1FFF7FBFE4FF02003EFF361
:1051AC00118083F31288BFF36F8FBDE81040FFF7B7
:1051BC0085BF10BD10B5024601448A42134603D088
:1051CC001C780132002CF8D1181A10BDF0B5C3F1BF
:1051DC0037070446FFB203F01F031046082BE6B254
:1051EC0033D0102B3ED06508A40844EA817445EAFC
:1051FC00C1752D194FEA910242EB5102290941EA7E
:10520C0002716D1842EB1212290A41EA02616D1803
:10521C0042EB1222290C41EA02416D1842EB124278
:10522C00AD1842F10002EC0844EA4274D10804EBD8
:10523C008402A6EB4205EDB2092D0CD90134A5F17F
:10524C000A0541F10001EDB212E0E40844EA4174B0
:10525C0006F00705C908303554EA010200F8015B75
:10526C00BCD1F0BD240944EA017406F00F0509090C
:10527C00092D84BFED19EDB2EDE70A44914200F11E
:10528C00FF3300D1704710B511F8014B03F8014FF3
:10529C009142F9D110BD02440346934200D17047AC
:1052AC0003F8011BF9E70000014800687047000093
:0452BC00C00200200C
:0852C00050AEFF7F0100000069
:1052C8007910000000000000511100000853000090
:1052D800D34E000000000000011400001C53000021
:1052E8002119000030530000B11300000000000035
:1052F800912200000000000055100000000000008E
:10530800D3550000C0540000D0540000790100209B
:10531800F4020020E2550000EC540000045500009F
:105328007B01002048030020F855000028550000A4
:0C533800645500007D010020E80000200A
:105344009D290000C94D000000000000094600002E
:1053540030530000C11C000000000000094600009A
:10536400000000000946000000000000094600009B
:10537400412F0000C94D0000000000000946000054
:10538400000000000946000000000000094600007B
:10539400000000000946000000000000094600006B
:1053A400000000000946000000000000094600005B
:1053B400000000000946000000000000094600004B
:1053C4000000000009460000000000002123000046
:1053D400000000000946000000000000094600002B
:1053E400000000000946000000000000094600001B
:1053F400000000000946000000000000094600000B
:1054040000000000094600000000000009460000FA
:1054140000000000094600000000000009460000EA
:1054240000000000094600000000000009460000DA
:1054340000000000094600000000000009460000CA
:1054440000000000094600000000000009460000BA
:1054540000000000094600000000000009460000AA
:10546400000000000946000000000000094600009A
:085474000000000009460000E1
:04547C00FFFFFFFF30
:105480000338FDD870470000000000200000000035
:1054900000000B06020000009C5400000000000009
:1054A000C45500002400020700000020CC55000075
:1054B0001E000B11D9100000A91000000000000010
:1054C000F91100001D11000091120000A747000013
:1054D0005D12000023470000874700000000000025
:1054E000974600000000000000000000FFFFFFFFE3
:1054F00000000050000000000000000000600040BC
:105500000000000085140000B3470000C147000000
:10551000D9470000E5470000F147000005160000EC
:105520000B480000000000000020004002000000C6
:1055300000000000405500000000000000000000D6
:10554000002000404C5500000100000054550000B0
:105550000400000006000000080001000500020031
:1055600007000300C54900006D1800005B4D0000F6
:105570009B4B0000734900000D4A0000DB4900000E
:10558000011C000083480000C8520000C8520000FF
:10559000F8520000005300000853000008530000B8
:1055A000310D0A00320D0A00330D0A0055415254E4
:1055B00020646576696365206E6F7420726561642E
:1055C000790D0A00464C4153485F30005352414D1B
:1055D0005F3000636C6F636B40343030303030309C
:1055E00030006770696F4035303030303030300017
:1055F00000010203040506077561727440343030FF
:1056000030323030300000000000010000000101A5
:10561000000001010101000000005465726D696E17
:10562000616C0000000000000054545220524547B5
:10563000474553006D61696E002A2A2A20426F6F28
:1056400074696E67206E524620436F6E6E65637498
:105650002053444B2076332E352E39392D6E63730B
:1056600031202A2A2A0A00286E756C6C29002A66C5
:085670006C6F61742A00000058
:105678000000000000000000000000000000000022
:105688000000000000000000690400200000000085
:105698000000000000000000000000000000000002
:1056A80000000000000000000000000000000000F2
:1056B80000000000000000000000000000000000E2
:1056C80000000000000000000000000000000000D2
:1056D80000000000000000000000000000000000C2
:1056E80000000000000000000000000000000000B2
:1056F80000000000000000000000000000000000A2
:105708000000000000000000000000000000000091
:105718000000000000000000000000000000000081
:105728000000000000000000000000000000000071
:105738000000000000000000000000000000000061
:10574800305300004B430000000000008D4600006D
:1057580000000000000000000000000040420F00B0
:105768000001030000000020000000006804002081
:105778006704002000000000000000000000000096
:105788000000000000000000000000000000000011
:105798000000000000000000000000000000000001
:1057A80000000000000000000000000000000000F1
:1057B80000000000000000000000000000000000E1
:1057C800000000000000000008000000FF000000CA
:1057D800000000000100000000000000FFFF0F00B3
:0957E8007001002070010020FF97
:0657F100000000000000B2
:0457F70015E015E0C4
:0400000300000A9D52
:00000001FF
