:100000000000012095010000F10F0000F30F000037
:10001000F10F0000F10F0000F10F000000000000E0
:10002000000000000000000000000000F10F0000D0
:10003000F10F000000000000F10F0000F50F0000BC
:10004000F10F0000F10F0000B90C0000F10F0000EB
:10005000F10F0000F10F0000F10F0000F10F0000A0
:100060000000000000000000000000000000000090
:10007000F10F0000F10F0000F10F0000F10F000080
:10008000F10F000000000000F10F0000F10F000070
:10009000F10F0000F10F0000F10F0000F10F000060
:1000A000F10F0000F10F0000000000000000000050
:1000B000F10F0000F10F0000000000000000000040
:1000C000F10F0000F10F0000F10F0000F10F000030
:1000D00000000000F10F0000F90F00000000000018
:1000E0000000000000000000000000000000000010
:1000F0000000000000000000000000000000000000
:1001000000000000000000000000000000000000EF
:1001100000000000000000000000000000000000DF
:1001200000000000000000000000000000000000CF
:1001300000000000000000000000000000000000BF
:1001400000000000000000000000000000000000AF
:10015000000000000000000000000000000000009F
:10016000000000000000000000000000000000008F
:10017000000000000000000000000000000000007F
:10018000000000000000000000000000000000006F
:04019000000000006B
:100194000F481049884208B502D00F4A01F0AAFC62
:1001A40000210E4A0E4801F061FC01F00BFA01F047
:1001B40001FA0C4B0C4A1B6803F5F40303F5905346
:1001C400B3FBF2F3094A136000F06EF800BEFEE7D9
:1001D40000000020B0240000000100001102000013
:1001E40000010020AC0000200024F400A80000203E
:10020000F8B500BFF8BC08BC9E467047F8B500BF03
:10021000F8BC08BC9E4670470348044B834202D09A
:10022000034B03B118477047000100200001002074
:10023000000000000548064B1B1AD90F01EBA30173
:10024000491002D0034B03B118477047000100204A
:10025000000100200000000010B5064C237843B9CF
:10026000FFF7DAFF044B13B10448AFF3008001231A
:10027000237010BD0001002000000000B024000029
:1002800008B5054B1BB105490548AFF30080BDE833
:100290000840FFF7CFBF00BF0000000004010020AE
:1002A000B0240000A3F5803A704700BF174B002B25
:1002B00008BF134B9D46FFF7F5FF00218B460F4605
:1002C0001348144A121A01F0D3FB0E4B002B00D036
:1002D00098470D4B002B00D09847002000210400C8
:1002E0000D000D48002802D00C48AFF3008001F04B
:1002F000DDFB2000290000F041F901F0B1FA00BF58
:1003000000000800000000000000000000000120C4
:100310000001002011030020000000000000000088
:1003200008B503681B689847007E08BD036810B5D0
:100330001B689847C36C13B1BDE81040184710BD47
:10034000704720307047C36C20301847836C2030D2
:100350001847436D20301847036E2030184700209F
:100360007047043000F00ABB134620300A460021D3
:1003700000F0C9BF70B51E4603680C4615461B68E1
:10038000984733462A462146BDE8704000F0BBBF7F
:1003900010B5044600F012FE204610BD1346203072
:1003A0000A46002100F063BF70B51E4603680C4684
:1003B00015461B68984733462A462146BDE87040DB
:1003C00000F055BF043000F075BC10B5D0F88400C3
:1003D0000C4600F0FAFEA042B4BF0020012010BD80
:1003E00010B5836E044620309847BFF35B8F00231F
:1003F00084F82C30BFF35B8F10BD2DE9F0411E4611
:10040000DDE9067803680C4615461B689847CDE978
:10041000067833462A462146BDE8F04101F00AB885
:100420002DE9F0411E46DDE9067803680C461546C5
:100430001B689847CDE9067833462A462146BDE831
:10044000F04100F09FBF10B5BFF35B8F436BBFF36C
:100450005B8F044600F13402013BBFF35B8F52E82F
:10046000001F42E800300028F9D1BFF35B8F00295C
:1004700009DC236C04F120009847BFF35B8F002355
:100480006363BFF35B8F10BD10B4BFF35B8F436B2F
:10049000BFF35B8F00F134020133BFF35B8F52E88F
:1004A000001F42E80034002CF9D1BFF35B8F012913
:1004B00004D1436C5DF8044B203018475DF8044BC1
:1004C000704738B500F12C0204464FF00100BFF32D
:1004D0005B8FD2E84F3FC2E8450F002DF9D1BFF343
:1004E0005B8FDBB20BB1002038BD236D04F120001F
:1004F00098470028F8D1BFF35B8F84F82C00BFF336
:100500005B8FF0E710B5836D044620309847BFF34A
:100510005B8F002384F82C30BFF35B8F10BD38B5A0
:1005200000F12C0204464FF00100BFF35B8FD2E8CC
:100530004F3FC2E8450F002DF9D1BFF35B8FDBB20F
:100540000BB1002038BDE36D04F12000984700286E
:10055000F8D1BFF35B8F84F82C00BFF35B8FF0E71B
:100560000EB403B503AA043052F8041B019200F044
:1005700061F802B05DF804EB03B070472DE9FF416C
:1005800019491A4800F0FAF919491A48FFF7E8FF23
:10059000194B1A4A1B6853431B430CD0180000BF69
:1005A00000BF00BF00BF00BF00BF00BF00BF00BF53
:1005B00000BF0138F3DC0F4FFF25E8460024464614
:1005C000284600F0C5FF0134102C08F8010B054641
:1005D000F6D1224631463846FFF7C6FE241A002CD3
:1005E0000644EADDF5E700BF5823000020010020A3
:1005F000DC2200001C010020A8000020A0860100D1
:1006000010B5084C084B2046A822002140F8043BB6
:1006100001F02EFAE4672046044A0549BDE810407F
:1006200001F018B91C010020F82200000C00002085
:1006300041030000F0B5C1B0134606460A466846BD
:100640004FF4807101F006FA002368468DF8FF3000
:1006500001F060FA052705466C461C36002D01DDC9
:10066000002F01DC41B0F0BD2B4622460021304670
:1006700000F049FE2D1A04440028EFD1002DF1DDD1
:10068000013FEBE703689B68586870470A4A10B55A
:100690000023044652F83300884207D3216802EB56
:1006A000C30349685B68C1F8243510BD0133102BC2
:1006B000F0D10020F9E700BFE023000001207047DF
:1006C000704703685B6801225A60DA604FF0FF32BE
:1006D000C3F81425C3F80C25C3F80825C3F8102562
:1006E0000022C3F80025704703689868704710B56A
:1006F00004686368D3F8FC2F0122C3F8FC2F0022A2
:10070000C3F8FC2F6069431C04D000F01F014009AE
:1007100000F012FFA069411C04D000F01F01400945
:1007200000F00AFFE068421C04D000F01F014009FD
:1007300000F002FF2069431C06D000F01F01BDE855
:100740001040400900F0F8BE10BD2DE9F04F1446EE
:10075000D0F800A0026985B005460E4600274FF08C
:100760000109002C46DD002A02F1FF3841DDEFF3DC
:10077000108B72B6DAF808200394D2F8800003A92F
:1007800000F0D2FC48B1039A314601F0B5F9039A62
:10079000A41A002C16441744ECDC8BF31088DAF80A
:1007A000082092F8A51011B395F819B0D2F880007E
:1007B000BBF1000F2CD0102303A9039300F055FCCC
:1007C000A8B1DAF8082000210AF1840B82F8A510FC
:1007D000039A01920146584601F08EF9DAF80410A6
:1007E000019AC1F84825C1F84405C1F8089042466D
:1007F000B7E74246002A07DCDAF80830D3F8A02031
:10080000E41B1444C3F8A040384605B0BDE8F08F9F
:10081000DAF80410C1F81CB182F8A59000F00AFCC7
:100820000028E4D0DAF8082082F8A5B0DAF804202D
:100830000178C2F81C15DAE72DE9F34706460F46A2
:1008400015460468EFF3108A72B64FF00009A5B19F
:10085000A368019501A9D86F00F007FC014620BBF1
:10086000737E53B1A368D86F00F0C5FC002804DC88
:10087000E36913B1636801225A608AF31088A368A0
:1008800093F8A4206AB1757ED5B1002283F8A42024
:1008900063680422C3F8382580340122C3F8344544
:1008A0001A60484602B0BDE8F087DDF8048038469B
:1008B000424601F021F9C1444744A5EB0805C6E7CB
:1008C000D86F00F001FC0028EBD06368A268C3F881
:1008D000085182F8A450D3F818350370E1E770B5D9
:1008E0000468A36800250646C3E92455C3E92655D4
:1008F000C3F8A050D3F88000E56100F058FC737E87
:10090000E2680BB36368C3F814252269C3F80C25A9
:100910006269C3F81025A269C3F80825D3F8002539
:1009200042F00802C3F800250422C3F8382504F178
:100930008002C3F834250122C3F810511A60A3685D
:10094000012283F8A52070BD6368C3F814252269CD
:10095000C3F80C256269C3F81025A269C3F80825FD
:10096000D3F8002542F00402C3F8002501221A60E2
:100970009A60E4E701207047704700002DE9F74FC7
:100980000D460446002800F06B81002900F06881C4
:100990004868002800F02C818B68002B40F36081B0
:1009A000D1F800A0BAF1000F40F05A81AE4E086BAA
:1009B00077680122D7F8FC3F91F82830C7F8FC2F60
:1009C000002800F01881C96A002940F3148100F062
:1009D0001FFBE067A86B95F828300122002800F083
:1009E0000E81696B002940F30A8100F011FBD5F8F4
:1009F0000480D5F808B0D8F81420C4F8800001238A
:100A000093404FF0A042BBF1000FC2F8083500F34D
:100A1000F980D8F8041095F83C3084F83530D8F8CF
:100A20000030D8F81420E66101F01F0141EA4311BB
:100A3000D8F81030B46002F01F0242EA4312736823
:100A40003261C3F81415C3F80C25D3F86C25F16096
:100A500022F01C02C3F86C2595F91420013240F0F5
:100A6000E580D3F86C25C3F86C25E96804F11C0017
:100A7000FFF70CFE00236060C7F80831C7F81C318F
:100A8000C7F82431C7F84431D7F88024C7F8802448
:100A900094F83520C7F8003132B17268C2F84C3191
:100AA000C2F85031C2F858312A7F7368022AD3F84D
:100AB0006C2540F0C080D8F82410D8F8300042F0FF
:100AC0000102C3F86C25D8F8202001F01F0141EA8B
:100AD0004211D8F83420716102F01F0242EA40123C
:100AE000C3F81015B261C3F80825B2680023C2E943
:100AF0002433C2E92633012182F8A430C2F8A030A1
:100B000082F8A510F361BFF35B8F84F83710BFF351
:100B10005B8FBFF35B8F84F83830BFF35B8F6A7FE6
:100B200084F83620072284F834202A69A2602A7FBC
:100B30002275AA69226195F83F20E27595F83E205A
:100B4000A27595F83D2062752A6CA2612A7D2273F8
:100B50006A6A6267454AE263454A2264454A6264BA
:100B6000454AA264454AE264454A2265454A6265AF
:100B7000454AA265454AE265454A62666422E262E8
:100B8000444AE266444A2267BFF35B8F2163BFF3A6
:100B90005B8FBFF35B8F84F82830BFF35B8F94F8D3
:100BA00035400420002C53D072684FF0080CC2F876
:100BB00000C5C2F838053948C2F83405C2F810310A
:100BC0001160687F4FF0FF33C7F80833002849D021
:100BD0007368002C42D0324AC3F804232B6A314A8E
:100BE0005B010421DBB2C2F8801182F8023311608C
:100BF00003B0BDE8F08F2C4801223021E7E62B48F6
:100C00003021F2E6C14699F80E2099F80C30019295
:100C100099F80D200092D9E901120AF1010A59F858
:100C2000100B00F066FCD345EDD1F2E6D3F86C254D
:100C300042F00E0217E722F00102C3F86C254FF0D4
:100C4000FF32C3F80825C6E90522C3F810254CE792
:100C50007368C3F8000599601960B2E7144ABBE7EE
:100C60000020C5E70120C3E710000020C3060000F4
:100C7000DF080000850600008D060000BD060000AC
:100C800039080000C1060000750900004B0700008C
:100C900079090000EF060000E9060000900000203E
:100CA0009703020000E100E0300000206000002017
:100CB0008702020070470000AB4B2DE9F3419E68AC
:100CC000F4696568D5F8443123B10123EB62002350
:100CD000C5F84431D5F81031002B00F0E78000232F
:100CE000C5F80831C5F81031E361D5F83C350193FA
:100CF000A36801A9D86F00F017FA002800F0CF8090
:100D0000019A04F1800100F0F7FEA368002283F845
:100D1000A420636801221A60D5F81C312BB300238C
:100D2000C5F81C31A36893F83580B8F1000F1CD1C9
:100D300004276368C3F81C81A368D3F8800000F01F
:100D400079F9A368002840F0FC80012283F8A520EF
:100D50005A6F52B1D3F8800000F037FA0346A0680A
:100D60000022D0F874800221C0476368D3F82021A4
:100D700012B9D3F858217AB30027C3F82071C3F809
:100D8000587110230193A36801A9D3F8800000F0E3
:100D90006CF9A3680146002800F0E28083F8A57092
:100DA000019F04F1840318463A4600F0A5FE6168ED
:100DB0000123C1F84875C1F844058B60A3685A6FD8
:100DC00052B1D3F8800000F000FA0346A068002278
:100DD000D0F874800221C047D5F82431002B30D0E0
:100DE000D5F880740023F907C5F824310DD5A26821
:100DF00096F83560D2F890300133C2F89030002E6A
:100E000000F0BE80636801225A60A0687A0748BF7C
:100E1000D0F89830466F44BF0133C0F89830BB0714
:100E200042BFD0F894300133C0F89430D5F8803404
:100E3000C5F880341EB100231A460321B0470123B0
:100E40002B60D5F800318BB1A068D0F88430466FA4
:100E5000002223F08003C5F80021C0F884302EB1B1
:100E60008DF80420012301AA0321B047D5F80431ED
:100E700093B1A0680023C5F80431D0F88430446FE2
:100E800043F08003C0F8843034B180238DF80430FF
:100E900001AA01230321A04702B0BDE8F081A268A6
:100EA000D2F89C300133C2F89C302EE7D5F80821E7
:100EB000002A3FF431AF96F83580B8F1000F3AD1EF
:100EC000A368042783F8A480A368C5F80881D86FB5
:100ED00000F0FAF828BBA368012283F8A420D3F815
:100EE0009C200132C3F89C20A3685A6F4AB1D86F86
:100EF00000F081F90346A0680022D0F87480012137
:100F0000C047A3685A6F002A3FF406AFD86F00F0BD
:100F100072F90346A0680022D0F874800121C0470E
:100F2000FAE6D5F818350370D5F80831002BDBD078
:100F3000013FC9D1D8E7C5F80831E3690133E3615E
:100F4000DFE783F8A58062680178C2F81C15D2F843
:100F50001C21002A3FF4FCAE013F7FF4EAAEF7E625
:100F6000012283F8A52029E71000002083F8A4605F
:100F70006368D3F8183503706368D3F8083163B138
:100F80006368C3F80861A368D86F00F09DF8A36890
:100F90000028EBD1012283F8A420A3685A6F002A0D
:100FA0003FF433AFD86F00F026F90346A068002263
:100FB000D0F874800121C04727E700BF00F062BC71
:100FC00000BEFEE7084A094908B51368184488427C
:100FD00006D900F065FD0C2303604FF0FF3008BD1B
:100FE00010601846FBE700BFA4000020B1AB002052
:100FF000FEE7FEE770470000044B9A6BF1EE103AF3
:10100000136C23F09F031364704700BF00EF00E0F0
:1010100078B103730023036003614FF0FF33436033
:1010200000F12003C0E90521C3612039B1FBF2F2D0
:1010300082607047C0B14368002B14DB426881684E
:10104000531C9942D8BF00230168BFF35B8F9942BC
:1010500008BF4FF0FF334360BFF35B8F4369C06944
:1010600003FB020070470020704770B4034611B9BB
:1010700070BCFFF7DFBF20B14268002A01DB0C68BB
:101080001CB90020086070BC704702684568AA421D
:1010900004EB05000FDD824202DC541B4FF0FF30F1
:1010A000BFF35B8F5860BFF35B8F5A69D8690C60E0
:1010B00002FB0500E7E79E688642DFBFB2FA82F2D4
:1010C00052095042741BEBE700282CD00268436899
:1010D0009A420FD1037B2BBB43688268BFF35B8FBF
:1010E00001339A42D8BF00234360BFF35B8F03698B
:1010F0000133036102688168BFF35B8F531C99421F
:10110000D8BF00230360BFF35B8F4368002B04DA72
:10111000BFF35B8F4260BFF35B8F4369C06903FB22
:10112000020070470020704773B504460D4621B990
:1011300002B0BDE87040FFF7C7BF08B10B6823B924
:1011400000232B60002002B070BD0168426891420C
:101150000AD1027B002AF5D101A90193FFF785FF8F
:101160002369019A13442361236862682E689342BD
:1011700006EB030116DDA068884201DCC61A0021D7
:10118000BFF35B8F002A2160BFF35B8F04DABFF3EC
:101190005B8F6360BFF35B8F6269E0692E6002FB67
:1011A0000300D0E78A42DCBFD61A1146E8E74FF0C9
:1011B000FF33BFF35B8F43600023BFF35B8FBFF34D
:1011C0005B8F0360BFF35B8F70474368002B01DACE
:1011D00080687047026843689A420268436803DD8A
:1011E0008068801A184470479A42BDBF43680068FF
:1011F000181A002070474368002B0DDB4268036813
:101200009A42B9BF0368406842680368B1BF181AC0
:101210008068801AC01870470020704770B500F1D0
:101220000C0204464FF00105BFF35B8FD2E84F3F3D
:10123000C2E8465F002EF9D1BFF35B8FDBB20BB182
:10124000002070BDE36B98470028FAD1BFF35B8F95
:101250002073BFF35B8FF3E710B5836C04469847A8
:10126000BFF35B8F00232373BFF35B8F10BD2DE9AA
:10127000F74F044689461F461646A2B3002B32DDBF
:10128000D0F8108000F10C054FF0010BBFF35B8F1D
:10129000D5E84FAFC5E843BF002BF9D1BFF35B8F53
:1012A0005FFA8AF3D3B9236B494620469847BFF3C8
:1012B0005B8F80B184F81CA0BFF35B8F3A46636BF1
:1012C000314620469847031E0FDA184603B0BDE8A2
:1012D000F08F9846DAE72870BFF35B8FB8F1000F04
:1012E00008F1FF33F5DC0023EFE7A26B0193204602
:1012F0009047BFF35B8F85F800A0BFF35B8F019B26
:10130000002BE2D1EAE72DE9F047044689461F4663
:1013100016467AB1002B0DDDD0F810804FF0000A90
:1013200049462046FFF77AFF40B9B8F1000F08F1AF
:10133000FF3301DC002513E09846F1E7BFF35B8F34
:1013400084F81CA0BFF35B8F3A46236C31462046DD
:101350009847051E04DB2046FFF77EFF002DE4D0F2
:101360002846BDE8F087BFF35B8FC37EBFF35B8F7A
:1013700013B901390029F6DC0029D4BF002001206F
:10138000704700002DE9F84F1F460A9BD0F81080E7
:1013900004460E46154683B10B9B002B0DDD4FF026
:1013A000000A4FF0010B31462046FFF737FF48B9DE
:1013B000B8F1000F08F1FF3302DC4FF0000932E012
:1013C0009846F0E7BDB1BFF35B8F84F81CB0BFF364
:1013D0005B8F636C53B33A462946204698470028F2
:1013E00003DA13492046FFF7BEFFBFF35B8F84F893
:1013F0001CA0BFF35B8F236B314620469847DDE985
:101400000A12636B20469847B0F100090BDBA26B10
:1014100020469047BFF35B8F84F80CA0BFF35B8F2F
:10142000B9F1000FC4D04846BDE8F88F236CD2E76D
:1014300040420F002DE9F04F83B000AF8946D7E955
:101440000CBAD0F8108005461C46114622B900207F
:101450000C37BD46BDE8F08F03EB0A06002EF6DD23
:10146000F31D23F00703ADEB030D22466846C7F8D2
:1014700004D000F041FBBBF1000F1BD0BAF1000F0C
:1014800018DD524659460DEB040000F035FB4FF0D5
:10149000000A49462846FFF7C1FE78B9B8F1000FA7
:1014A00008F1FF3308DC4FF0000BA345CFDBABEBBB
:1014B0000400CDE72646EAE79846EAE7BFF35B8FEC
:1014C00085F81CA0BFF35B8F79682B6C32462846E9
:1014D0009847B0F1000BE8DB2846FFF7BDFEBBF1F3
:1014E000000FE2D1DAE700280CBF4FF0A040002047
:1014F000704708B59DF80820FFF7F5FFC0B1B1F1BE
:10150000FF3F15D0012B0CBF03230023022A10D06C
:1015100002F0FD02012A01D143F00C039DF80C20DA
:1015200001F5E071012A08BF43F4C06340F821309F
:1015300008BD43F00403F1E708B5FFF7D4FF30B16D
:101540004B1C1EBF01F5E071022340F8213008BD9D
:10155000430983EA901303F0010343EA400000F0DB
:101560007F0070474FF08053D3F83001421C04BF16
:101570004FF0704393F8E00F831F58425841704773
:101580004FF0704393F8E02F062A09D1D3F8E83FD3
:10159000C3F30313033B042B02D8024AD05C704709
:1015A000002070476F240000024AD2F80034002B5C
:1015B000FBD0704700E00140014B024A1A607047BF
:1015C000AC0000200090D00310B5FFF7CBFF40B176
:1015D0004FF08053934AD3F82433C3F30423C2F863
:1015E0004035FFF7CDFF10B18F4B904A5A67FFF798
:1015F000B9FF48B14FF080534FF08042D3F84432E6
:10160000C3F34233C2F83C35FFF7BAFF30B1884A22
:10161000D2F8FC3023F08073C2F8FC30FFF7A2FF51
:1016200040B14FF080430022C3F80C21C3F81021D1
:10163000C3F83825FFF7A4FF20B14FF08043032201
:10164000C3F8A025FFF79CFF60B17A4B0522C3F8D1
:1016500010260122C3F888260022C3F818263F224C
:10166000C3F814264FF08053D3F83021511C09BF22
:101670004FF07043D3F8343193F8E02FD3F8E83FBC
:1016800008BFC3F30313062A4DD1033B042B03D831
:10169000694AD35C002B46D04FF08052674BD2F89A
:1016A0000414C3F82015D2F80814C3F82415D2F88E
:1016B0000C14C3F82815D2F81014C3F82C15D2F85E
:1016C0001414C3F83015D2F81814C3F83415D2F82E
:1016D0001C14C3F84015D2F82014C3F84415D2F8EE
:1016E0002414C3F84815D2F82814C3F84C15D2F8BE
:1016F0002C14C3F85015D2F83014C3F85415D2F88E
:101700003414C3F86015D2F83814C3F86415D2F84D
:101710003C14C3F86815D2F84014C3F86C15D2F81D
:101720004424C3F87025FFF71DFF48B14FF08053E4
:101730004FF08042D3F8583203F04F03C2F8E43E32
:10174000FFF710FF48B14FF08043D3F80024D207D1
:1017500044BF6FF00102C3F800244FF08053D3F868
:101760003021062A0ED1D3F83431033B042B02D8A2
:10177000334AD35C33B1334AD2F83C3743F4806305
:10178000C2F83C372A4AD2F8883043F47003C2F8D2
:101790008830BFF34F8FBFF36F8F4FF08053D3F874
:1017A0003021062A0FD1D3F83431033B042B02D861
:1017B000254AD35C3BB14FF01023D3F808224FF0F9
:1017C0008043C3F858254FF01023D3F80022002A95
:1017D00003DBD3F80432002B22DA1C4901234FF03B
:1017E0001020C1F804351524FFF7DEFEC0F80042D2
:1017F000FFF7DAFEC0F80442FFF7D6FE0023C1F877
:101800000435FFF7D1FEBFF34F8F0949104BCA686B
:1018100002F4E0621343CB60BFF34F8F00BFFDE7DC
:1018200010BD00BF0030014000C007400DF0ADBA50
:1018300000ED00E0005000406A24000000C00040BD
:1018400065240000001000406024000000E001401A
:101850000400FA050B460146184600F0C1B8000026
:1018600008B5064B044613B10021AFF30080044BCA
:101870001B6803B198472046FFF7A2FB0000000059
:1018800008030020024B0146186800F04BB900BF66
:10189000B000002070B50F4E0C463168054611B9F6
:1018A00000F0EEF830602146284600F0E9F8431CCD
:1018B00003D14FF0FF34204670BDC41C24F0030454
:1018C000A042F8D0211A284600F0DAF80130F2D10F
:1018D000EFE700BFC80100202DE9F041CD1C25F045
:1018E000030508350C2D38BF0C25002D064601DBFD
:1018F000A94204D90C2333600020BDE8F081314FA8
:1019000000F062F83B681C4644BB29463046FFF7AE
:10191000C1FF431C044650D13C682146002941D1F7
:10192000002C44D02368304604EB030800F0A8F8EC
:1019300080453CD121686D1A29463046FFF7AAFF41
:10194000013034D023682B4423603B68002B36D011
:101950005A68A24229D100225A600EE02268521B26
:101960001DD40B2A16D96119A342256018BF5960EE
:10197000636808BF396062514B60304600F02AF856
:1019800004F10B00231D20F00700C21AB5D01B1A6A
:10199000A350B2E7A3426268DED13A60EDE7234686
:1019A0006468B1E70C464968B8E71346CEE70C23F4
:1019B0003360304600F00EF89EE70560DDE75B60BF
:1019C000FFDE00BFCC010020014800F093B800BF4B
:1019D00010030020014800F08EB800BF1003002063
:1019E00010B504460448134620B10A460220214699
:1019F000AFF3008010BD00BF0000000030B51446FA
:101A0000002C9BB005461A4605DA8B2303604FF085
:101A1000FF301BB030BD4FF40273ADF80C3014BF73
:101A200004F1FF332346029305934FF6FF730091B1
:101A30000491ADF80E3069461E9B00F019F9431C65
:101A4000BCBF8B232B60002CE3D0009B00221A70BC
:101A5000DFE7000007B5009313460A460146034836
:101A60000068FFF7CBFF03B05DF804FBB000002077
:101A700002440346934200D1704703F8011BF9E783
:101A800038B5064D0023044608462B60FFF79AFA46
:101A9000431C02D12B6803B1236038BD0C03002026
:101AA000014B1868704700BFB000002070B50D4DA5
:101AB0000D4C641BA4100026A64209D10B4D0C4C02
:101AC000FEF79EFB641BA4100026A64205D170BD44
:101AD00055F8043B98470136EEE755F8043B984724
:101AE0000136F2E700000020000000200000002086
:101AF00008000020704770470A44914200F1FF330C
:101B000000D1704710B511F8014B03F8014F914215
:101B1000F9D110BD034613F8012B002AFBD1181A86
:101B20000138704738B50546002941D051F8043CCA
:101B30000C1F002BB8BFE418FFF746FF1D4A1368BF
:101B400033B9636014602846BDE83840FFF742BFF0
:101B5000A34208D9206821188B4201BF19685B682D
:101B600009182160EDE71A465B680BB1A342FAD968
:101B700011685018A0420BD12068014450188342CC
:101B80001160E0D118685B68536008441060DAE7C0
:101B900002D90C232B60D6E7206821188B4204BFA2
:101BA00019685B68636004BF091821605460CAE764
:101BB00038BD00BFCC0100202DE9F0478E681F46DC
:101BC000BE420B6882460C4690462DD8B1F90C20D7
:101BD00012F4906F26D06569096905EB4505A3EB02
:101BE000010905EBD5757B1C4B446D109D4238BF38
:101BF0001D46530527D52946FFF76EFE064660B3FE
:101C000021694A46FFF778FFA38923F4906343F0E4
:101C10008003A381266165614E44A5EB090526601A
:101C2000A5603E46BE4200D93E4620683246414647
:101C300000F0B4FAA3689B1BA360236833442360BD
:101C40000020BDE8F0872A4600F012FB0646002877
:101C5000E0D121695046FFF765FF0C23CAF8003038
:101C6000A38943F04003A3814FF0FF30E9E7000070
:101C70002DE9F04F98468B891B069DB007460D460F
:101C8000144610D50B6973B94021FFF725FE286073
:101C9000286130B90C233B604FF0FF301DB0BDE828
:101CA000F08F40236B610023099320238DF82930A6
:101CB000CDF80C803023DFF89C818DF82A304FF06E
:101CC000010923469A4613F8012B0AB1252AF9D1B6
:101CD000BAEB040B0BD05B46224629463846FFF789
:101CE0006BFF013000F0A780099A5A4409929AF8D4
:101CF0000030002B00F09F8000234FF0FF32CDE931
:101D000005230AF1010A049307938DF853301A93BF
:101D10005446052214F8011B4E4800F059FA049A63
:101D2000D8B9D00644BF20238DF85330110744BFE3
:101D30002B238DF853309AF800302A2B15D0079AB0
:101D4000544600204FF00A0C214611F8013B303B6D
:101D5000092B4BD9B0B1079214E0A0EB080309FAA4
:101D600003F313430493A246D2E7039B191D1B6898
:101D70000391002BBBBF5B4242F002020793079323
:101D8000B8BF049223782E2B0AD163782A2B32D144
:101D9000039B1A1D1B68039243EAE3730234059305
:101DA000DFF8C0A021780322504600F011FA38B1C4
:101DB000049BA0EB0A0040228240134301340493A9
:101DC00014F8011B24488DF82810062200F000FAB0
:101DD000002836D0214B1BBB039B073323F007039E
:101DE00008330393099B334409936AE70CFB0232DF
:101DF0000C460120A8E700230134059319464FF053
:101E00000A0C204610F8012B303A092A03D9002B7E
:101E1000C6D00591C4E70CFB012104460123F0E77D
:101E200003AB00932A460E4B04A93846AFF300805B
:101E3000421C0646D6D1AB895B063FF52DAF09980B
:101E40002CE703AB00932A46054B04A9384600F063
:101E500079F8EDE7742400007E2400000000000003
:101E6000B91B00007A2400002DE9F0471646984679
:101E70008A680B69DDF820909342B8BF134633603F
:101E800091F8432007460C460AB1013333602368BA
:101E9000990642BF336802333360256815F00605A2
:101EA00006D104F1190AE36832689B1AAB4226DCBA
:101EB00094F843302268003B18BF012392062BD4CC
:101EC00004F1430241463846C84701301ED023681A
:101ED000226903F00603042B02BFE5683368ED1A9C
:101EE000A3680CBF25EAE57500259342C4BF9B1A81
:101EF000ED1800261A34B5421AD1002008E001235B
:101F0000524641463846C847013003D14FF0FF30B2
:101F1000BDE8F0870135C6E7E1185A1C302081F88A
:101F20004300224494F8451082F843100233C7E777
:101F30000123224641463846C8470130E6D00136E3
:101F4000D9E700002DE9FF470F7E0C9E782F9146C0
:101F500080460C469A4601F1430207D8622F0AD800
:101F6000002F00F0DD80582F00F0C38004F14206FE
:101F700084F842703AE0A7F16303152BF6D801A16B
:101F800051F823F0DD1F0000F11F00006D1F00005D
:101F90006D1F00006D1F00006D1F0000F11F00008D
:101FA0006D1F00006D1F00006D1F00006D1F000001
:101FB000072100007F200000BF2000006D1F0000EF
:101FC0006D1F0000292100006D1F00007F20000010
:101FD0006D1F00006D1F0000C720000033681A1D30
:101FE0001B68326004F1420684F842300123A8E005
:101FF00031682368081D30601E0601D50D6803E0B6
:102000005D06FBD5B1F900506168002D78DA2D200E
:10201000002984F84300A1602DDA5E486D420A234E
:102020001646B5FBF3F103FB1157C75D06F8017DBA
:102030002F46BB420D46F4D9082B0BD12368DF078E
:1020400008D5236961689942DEBF302306F8013C58
:1020500006F1FF36921B2261CDF800A04B4603AA81
:1020600021464046FFF700FF01306FD14FF0FF30AF
:1020700004B0BDE8F08723F004032360CDE72168B6
:102080003368080653F8045B02D4490648BFADB272
:102090006F2F4048336014BF0A230823002184F8BF
:1020A00043106668A660002EBADB216821F00401A7
:1020B0002160002DB4D1002EB2D11646BCE72368B2
:1020C00043F0200323603448782784F84570236860
:1020D00031681F0651F8045B02D45F0648BFADB2F9
:1020E0003160D90744BF43F0200323601DB11023A2
:1020F000D4E72848E9E7236823F020032360F6E7C4
:1021000024480A23CDE7336825686169181D3060CB
:102110002E061B6801D5196002E06806FBD5198000
:1021200000232361164697E733681A1D32601E6844
:1021300062680021304600F04BF808B1801B6060F7
:1021400063682361002384F8433085E723693246BE
:1021500049464046D047013088D023689B0714D4B5
:10216000E068039B9842B8BF184681E701233246D6
:1021700049464046D04701303FF478AF0135E36827
:1021800003995B1AAB42F1DCEAE7002504F119067A
:10219000F5E700BF8524000096240000884210B5B2
:1021A00001EB020402D98442234607D8431EA14210
:1021B00008D011F8012B03F8012FF8E7024401467B
:1021C0008A4200D110BD13F8014D02F8014DF7E726
:1021D00001F0FF01102A2BDB10F0070F08D010F8D8
:1021E000013B013A8B422DD010F0070F42B3F6D1DC
:1021F000F0B441EA012141EA014122F007047FF0F5
:1022000000070023F0E80256083C85EA010586EA4B
:10221000010685FA47F5A3FA87F586FA47F6A5FA87
:1022200087F68EB9EED1F0BC01F0FF0102F0070293
:1022300032B110F8013B013A83EA010313B1F8D13E
:102240000020704701387047002D06BF354603381F
:10225000073815F0010F07D1013015F4807F02BF58
:10226000013015F4C03F0130F0BC0138704700BFA9
:102270002DE9F041804615460C4621B9BDE8F041F4
:102280001146FFF729BB2AB9FFF74CFC0024204672
:10229000BDE8F08100F01AF88542064602D8B5EB99
:1022A000500FF4D829464046FFF716FB0746002892
:1022B000ECD0B5422A46214628BF3246FFF71CFC27
:1022C00021464046FFF72EFC3C46E0E751F8043C2F
:0C22D000181F002BBCBF0B58C018704733
:1022DC0055415254205052425320546573740A0D88
:1022EC00000000000000000000000000430300009C
:1022FC0021030000470300004D03000047040000C9
:10230C0089040000A90300007503000021040000EB
:10231C00FB030000C304000053030000050500008C
:10232C001F05000059030000E1030000CB0300006F
:10233C002D03000041030000910300006303000023
:10234C00C50300009D0300006903000000000000AD
:10235C00A02300000200000040420F000800000013
:10236C00FF0000000100000000010000010000005F
:10237C005F030000010000000000000000000000EE
:10238C000000000000000000010000000000000040
:10239C000000000000000000080000000100000028
:1023AC00000000000000000006000000010000001A
:1023BC000100000000000000070000000100000008
:1023CC0000000000000000000500000001000000FB
:1023DC0001000000B004000000F0040060090000DF
:1023EC0000D00900C012000000B0130080250000CE
:1023FC00005027004038000000003B00004B00005C
:10240C0000A04E008070000000F0750000960000E7
:10241C0000509D0000E1000000F0EB00002C0100DA
:10242C0000903A0100C2010000E0D70100840300D3
:10243C0000B0AF0390D003000000000400080700B8
:10244C0000705F0700100E0000D0BE0E40420F005F
:10245C00000000100000000001000000010100005D
:10246C000101010100000000232D302B2000686CBD
:10247C004C0065666745464700303132333435369B
:10248C0037383941424344454600303132333435D4
:0B249C00363738396162636465660002
:0824A800FCDDFF7F01000000D4
:1024B0008102000001060000590200000000000037
:1024C000000000000020004000000000FFFFFFFFB0
:1024D000FFFFFFFFFFFFFFFFFFFFFFFF0000000008
:1024E00000000000000000000000000000000000EC
:1024F00000000000000000000000000000000000DC
:1025000000000000000000000000000000000000CB
:1025100000000000000000000000000000000000BB
:1025200000000000000000000000000000000000AB
:10253000000000000000000000000000000000009B
:10254000000000000000000000000000000000008B
:102550000000000014030020010000000090D003E0
:10256000B400002000000000D0010020380200204C
:10257000A002002000000000000000000000000099
:10258000000000000000000000000000000000004B
:10259000000000000000000000000000000000003B
:1025A000000000000000000000000000000000002B
:040000030000019563
:00000001FF
