:1000000000000420110400003F2000003F200000F9
:100010003F2000003F2000003F2000003F20000064
:100020000000000000000000000000003F20000071
:100030003F200000000000003F2000003F200000A3
:100040000000000000000000000000003F20000051
:10005000000000003F200000000000000000000041
:100060004D2D0000752D00009D2D0000C52D0000B8
:10007000000000003F2000003F2000003F20000063
:100080003F2000003F2000000000000000000000B2
:100090003F2000003F2000000000000000000000A2
:1000A0003F20000000000000000000003F20000092
:1000B0003F2000003F2000003F2000003F200000C4
:1000C0003F2000003F2000003F2000003F200000B4
:1000D0003F200000000000003F2000000000000062
:1000E0003F200000000000003F2000000000000052
:1000F0000000000000000000000000000000000000
:10010000000000003F200000000000000000000090
:1001100000000000000000000000000000000000DF
:10012000000000003F200000000000000000000070
:1001300000000000000000000000000000000000BF
:100140003F20000000000000000000000000000050
:10015000000000000000000000000000000000009F
:10016000000000000000000000000000000000008F
:10017000000000000000000000000000000000007F
:10018000000000000000000000000000000000006F
:10019000000000000000000000000000000000005F
:1001A000000000000000000000000000000000004F
:1001B000000000000000000000000000000000003F
:1001C000000000000000000000000000000000002F
:1001D000000000000000000000000000000000001F
:1001E000000000000000000000000000000000000F
:1001F00000000000000000000000000000000000FF
:1002000000000000000000000000000000000000EE
:1002100000000000000000000000000000000000DE
:1002200000000000000000000000000000000000CE
:1002300000000000000000000000000000000000BE
:1002400000000000000000000000000000000000AE
:10025000000000000000000000000000000000009E
:10026000000000000000000000000000000000008E
:10027000000000000000000000000000000000007E
:10028000000000000000000000000000000000006E
:10029000000000000000000000000000000000005E
:1002A000000000000000000000000000000000004E
:1002B000000000000000000000000000000000003E
:1002C000000000000000000000000000000000002E
:1002D000000000000000000000000000000000001E
:1002E000000000000000000000000000000000000E
:1002F00000000000000000000000000000000000FE
:1003000000000000000000000000000000000000ED
:1003100000000000000000000000000000000000DD
:1003200000000000FFFFFFFFFFFFFFFFFFFFFFFFD9
:10033000FFFFFFFFFFFFFFFFFFFFFFFFFFFFFFFFCD
:10034000FFFFFFFFFFFFFFFFFFFFFFFFFFFFFFFFBD
:10035000FFFFFFFFFFFFFFFFFFFFFFFFFFFFFFFFAD
:10036000FFFFFFFFFFFFFFFFFFFFFFFFFFFFFFFF9D
:10037000FFFFFFFFFFFFFFFFFFFFFFFFFFFFFFFF8D
:10038000FFFFFFFFFFFFFFFFFFFFFFFFFFFFFFFF7D
:10039000FFFFFFFFFFFFFFFFFFFFFFFFFFFFFFFF6D
:1003A000FFFFFFFFFFFFFFFFFFFFFFFFFFFFFFFF5D
:1003B000FFFFFFFFFFFFFFFFFFFFFFFFFFFFFFFF4D
:1003C000FFFFFFFFFFFFFFFFFFFFFFFFFFFFFFFF3D
:1003D000FFFFFFFFFFFFFFFFFFFFFFFFFFFFFFFF2D
:1003E000FFFFFFFFFFFFFFFFFFFFFFFFFFFFFFFF1D
:1003F000FFFFFFFFFFFFFFFFFFFFFFFFFFFFFFFF0D
:10040000FFFFFFFFFFFFFFFFFFFFFFFFFEFFFFFFFD
:1004100080B500AF114A124B9A4205D0114B1A46D3
:100420000F490E4802F036FD0F4B1A4600210F48C7
:1004300002F03DFD02F0ECFA02F0DCFA0C4B1B6816
:1004400003F5F40303F590530A4AA2FB03239B0D23
:10045000094A136000F042F8FEE700BF00000020E8
:1004600098390000C002000085010000C002002091
:0C0470005802002083DE1B4350020020D5
:10047C00F8B500BFF8BC08BC9E467047F8B500BF85
:10048C00F8BC08BC9E46704710B5054C237833B9B0
:10049C00044B13B1044800E000BF0123237010BDCE
:1004AC00C0020020000000009839000008B5034B82
:1004BC001BB10349034800E000BF08BD0000000069
:1004CC00C402002098390000A3F5803A704700BFA1
:1004DC00174B002B08BF134B9D46FFF7F5FF002170
:1004EC008B460F461348144A121A02F0DAFC0E4BD4
:1004FC00002B00D098470D4B002B00D098470020C4
:10050C00002104000D000D48002802D00C4800E02A
:10051C0000BF02F08DFC2000290000F0BFFB02F0B0
:10052C0073FC00BF00000800000000000000000089
:10053C0000000420C0020020450400200000000040
:10054C000000000080B483B000AF03463960FB713B
:10055C003B685AB297F9073013405BB2DBB21846CE
:10056C000C37BD465DF8047B704780B485B000AF96
:10057C0078600B46FB707B68FB60FB78FB72FB685A
:10058C0001221146D3E8CF2FC3E8C01F0028F9D1B0
:10059C00D3B200BF18461437BD465DF8047B7047D4
:1005AC0080B584B000AF78600B46FB707B68FB6055
:1005BC00FB78FB72FB7A4FF6FF711846FFF7C2FF10
:1005CC000346BB72FB680022C3E88F2F00BF00BF3D
:1005DC001037BD4680BD80B582B000AF7860052174
:1005EC007868FFF7C2FF034618460837BD4680BD42
:1005FC0080B582B000AF786005217868FFF7D0FF36
:10060C0000BF0837BD4680BD80B582B000AF7860B2
:10061C007B681433184600F071FB0346002BD4BFE3
:10062C0001230023DBB2002B09D07B68DB697868DF
:10063C0098477B6814330021184600F073FB00BF09
:10064C000837BD4680BD80B582B000AF78607B684E
:10065C001433184600F083FB0346012B0CBF012317
:10066C000023DBB2002B03D07B681B6A78689847A9
:10067C0000BF0837BD4680BD80B582B000AF786042
:10068C007B685B6A78689847034618460837BD460E
:10069C0080BD80B582B000AF786039607B689B6AA2
:1006AC00396878689847034618460837BD4680BDB8
:1006BC0080B584B000AF786039607B680C33184625
:1006CC00FFF789FF0346002B01D000230FE07B6866
:1006DC00DB6A3968786898470346FB73FB7B002B11
:1006EC0004D17B680C331846FFF782FFFB7B18465E
:1006FC001037BD4680BD80B584B000AFF860B960DE
:10070C007A60FB681B6B7A68B968F868984703468F
:10071C0018461037BD4680BD80B582B000AF7860FA
:10072C007B685B6B786898477B680C331846FFF7DF
:10073C005FFF00BF0837BD4680BD80B584B000AFF9
:10074C00786039607B680C331846FFF744FF03462A
:10075C00002B01D000230FE07B689B6B3968786815
:10076C0098470346FB73FB7B002B04D17B680C334F
:10077C001846FFF73DFFFB7B18461037BD4680BD82
:10078C0080B584B000AFF860B9607A60FB68DB6B51
:10079C007A68B968F8689847034618461037BD461A
:1007AC0080BD80B582B000AF78607B685B6C786888
:1007BC0098477B680C331846FFF71AFF00BF0837C1
:1007CC00BD4680BD80B582B000AF78607B689B6C05
:1007DC00002B03D07B689B6C7868984700BF083768
:1007EC00BD4680BD80B483B000AF78607B681B7E53
:1007FC0018460C37BD465DF8047B704780B582B057
:10080C0000AF78607B681B681B6878689847034664
:10081C001846FFF7E7FF034618460837BD4680BD6C
:10082C0080B582B000AF78607B681B681B68786805
:10083C00984703461846FFF7E7FE00BF0837BD464A
:10084C0080BD80B582B000AF78607B681B681B6888
:10085C007868984703461846FFF7F5FE00BF08373F
:10086C00BD4680BD80B584B000AFF860B9607A60D9
:10087C003B60FB681B681B68F86898473B687A68A4
:10088C00B96801F077FE034618461037BD4680BDA7
:10089C0080B584B000AFF860B9607A603B60FB68EB
:1008AC001B681B68F86898473B687A68B96801F060
:1008BC0099FE034618461037BD4680BD80B586B0FC
:1008CC0002AFF860B9607A603B60FB681B681B681C
:1008DC00F8689847FB690193BB6900933B687A6899
:1008EC00B96801F0B7FE034618461037BD4680BD07
:1008FC0080B586B002AFF860B9607A603B60FB6887
:10090C001B681B68F8689847FB690193BB690093E7
:10091C003B687A68B96801F0F0FE03461846103758
:10092C00BD4680BD80B483B000AF786039600123D0
:10093C0018460C37BD465DF8047B704780B582B015
:10094C0000AF78607B681B681B6878689847034623
:10095C001846FFF737FF00BF0837BD4680BD80B58E
:10096C0082B000AF78607B6820331846FFF784FEB6
:10097C00034618460837BD4680BD80B582B000AF2F
:10098C00786039607B6820333A6811461846FFF767
:10099C0080FE034618460837BD4680BD80B483B040
:1009AC0000AF7860044A7B681A607B6818460C3785
:1009BC00BD465DF8047B70479038000080B582B06E
:1009CC0000AF78607B681846FFF7E8FF084A7B6841
:1009DC001A607B680433A4220021184602F061FAE5
:1009EC007B687A689A677B6818460837BD4680BD75
:1009FC002838000080B483B000AF7860044A7B686C
:100A0C001A607B6818460C37BD465DF8047B70474E
:100A1C002838000080B582B000AF78607868FFF7A6
:100A2C00E9FF786801F0F7FA7B6818460837BD468D
:100A3C0080BD80B582B000AF786039607B680433CC
:100A4C003968184600F0A6FE034618460837BD461E
:100A5C0080BD80B483B000AF78607B6824331846C7
:100A6C000C37BD465DF8047B704780B582B000AF93
:100A7C00786039607B6804333A6811461846FFF792
:100A8C007CFF034618460837BD4680BD80B582B052
:100A9C0000AF78607B6804331846FFF760FF0346AD
:100AAC0018460837BD4680BD80B582B000AF78606F
:100ABC007B6824331846FFF7C6FD00BF0837BD46D8
:100ACC0080BD80B582B000AF78607B682433184657
:100ADC00FFF79AFD00BF0837BD4680BD80B582B0D8
:100AEC0000AF786039607B6804333A681146184669
:100AFC0001F086FA00BF0837BD4680BD80B584B0D2
:100B0C0000AFF860B9607A60FB6803F124007B6881
:100B1C00BA68002101F02EFD034618461037BD4679
:100B2C0080BD80B582B000AF786039607B682433BB
:100B3C0039681846FFF7BCFD034618460837BD4612
:100B4C0080BD80B584B000AFF860B9607A60FB6896
:100B5C0024337A68B9681846FFF7CDFD034618466A
:100B6C001037BD4680BD80B582B000AF78607B6821
:100B7C0024331846FFF7D0FD00BF0837BD4680BDB3
:100B8C0080B584B000AFF860B9607A60FB6803F19F
:100B9C0024007B68BA68002101F024FD0346184646
:100BAC001037BD4680BD80B582B000AF786039602B
:100BBC007B68243339681846FFF7BFFD0346184697
:100BCC000837BD4680BD80B584B000AFF860B96011
:100BDC007A60FB6824337A68B9681846FFF7D0FD51
:100BEC00034618461037BD4680BD80B582B000AFB5
:100BFC0078607B6824331846FFF7D3FD00BF0837B5
:100C0C00BD4680BD0EB480B585B000AF786007F1ED
:100C1C002003FB607B680433FA68F969184600F01E
:100C2C00EFF800BF1437BD46BDE8804003B07047F5
:100C3C0080B582B000AF786039607B68D3F88030C3
:100C4C00184601F0D6FB02463B689342CCBF012309
:100C5C000023DBB2002B01D0002300E00123184657
:100C6C000837BD4680BD80B485B000AFF8607A60AF
:100C7C003B600B46FB72FB7A032B07D0032B06DC85
:100C8C00012B01DC002B02E0022B00E000BF002353
:100C9C0018461437BD465DF8047B704780B592B09A
:100CAC0000AF13491348FFF7C4FE034687F84730DB
:100CBC0011491048FFF7A6FFFF2387F8463007F1CC
:100CCC004603012219460B48FFF75AFF0346002B37
:100CDC00CCBF01230023DBB2002BF0D097F84630B9
:100CEC00184601F095FD034687F84630E7E700BF4C
:100CFC00C4370000DC0200200C38000080B483B044
:100D0C0000AF78607B68D3E8EF2F02F1FF32C3E8C5
:100D1C00E12F0029F7D1134618460C37BD465DF874
:100D2C00047B704780B586B000AF786039607B6813
:100D3C007B613B683B610523FB73FB7B4FF6FF71CB
:100D4C001846FFF7FFFB0346BB737B693A69C3E8A0
:100D5C00AF2F00BF3B6818461837BD4680BD80B426
:100D6C0083B000AF78607B68D3E8EF2F02F101020B
:100D7C00C3E8E12F0029F7D1134618460C37BD46BE
:100D8C005DF8047B7047000080B582B000AF7860DE
:100D9C0039607B68012B0CD13B684FF6FF72934294
:100DAC0007D10648FFF70AFE054A0649034802F038
:100DBC0017F800BF0837BD4680BD00BFDC0200201D
:100DCC000C000020010A000080B500AF4FF6FF7147
:100DDC000120FFF7D9FF80BD80B584B000AFF8606B
:100DEC00B9607A60FB6803F120007B68BA68002167
:100DFC0001F0F8FB034618461037BD4680BD0000D5
:100E0C0080B588B000AFF860B9607A60164B1B688B
:100E1C0019467B68BA68154802F03AF9134802F093
:100E2C0003F90346FB61114BBB610A237B6110E0A4
:100E3C00FA69B969F868FFF7CFFF3861FA693B695D
:100E4C00D31AFB613B69BA691344BB617B69013BF3
:100E5C007B61FB69002B02DD7B69002BE8DC00BFAA
:100E6C002037BD4680BD00BF540200208403002003
:100E7C0080B483B000AF0346FB7197F90730002BA9
:100E8C000BDBFB7903F01F02074997F907305B096D
:100E9C00012000FA02F241F8232000BF0C37BD46B6
:100EAC005DF8047B704700BF00E100E080B483B0C4
:100EBC0000AF0346FB7197F90730002B0CDBFB7975
:100ECC0003F01F02074997F907305B09012000FA6C
:100EDC0002F2603341F8232000BF0C37BD465DF8A9
:100EEC00047B704700E100E080B483B000AF0346A0
:100EFC003960FB7197F90730002B0ADB3B68DAB2DB
:100F0C000C4997F907305201D2B20B4483F80023F5
:100F1C000AE03B68DAB20849FB7903F00F03043BA3
:100F2C005201D2B20B441A7600BF0C37BD465DF8A5
:100F3C00047B704700E100E000ED00E0F0B587B005
:100F4C0002AF786039607B68002B31D03B68002B96
:100F5C002EDD0023FB60FA683B689A4229DAFB68B5
:100F6C001B017A6813441868FB681B017A681344E8
:100F7C005C68FB681B017A6813449D68FB681B0165
:100F8C007A6813441E7BFB681B017A6813445B7BF5
:100F9C00FA68120179680A44927B019200933346F5
:100FAC002A46214601F03AFEFB680133FB60D2E78A
:100FBC0000BF1437BD46F0BD80B483B000AFEFF373
:100FCC0010833B603B687B6072B600BF7B68184641
:100FDC000C37BD465DF8047B704780B485B000AF1C
:100FEC0078607B68FB60FB6883F3108800BF00BFF0
:100FFC001437BD465DF8047B704790B58DB000AFDB
:10100C00786039603B681B68FB620023BB6200237D
:10101C007B62FB6A5B683B623B6AD3F84431FB77CB
:10102C00FB7F002B07D0FB6A5B680122DA623B6A0C
:10103C000022C3F844213B6AD3F80831002B14BFBB
:10104C0001230023DBB2002B03D03B6A0022C3F840
:10105C000821FB6A5B68D3F81031002B14BF012305
:10106C000023DBB2002B46D0FB6A5B680022C3F87E
:10107C001021FB6A9B689B6F184601F0B6F8B861AB
:10108C00BB69002B05D0FB6A93F88C20BB691A70E6
:10109C0006E0FB6A9B68D3F898200132C3F89820CD
:1010AC00FB6A9B68002283F8A020FB6A5B68012224
:1010BC00C3F83825FB6A03F18C02FB6A5B68C3F842
:1010CC003425FB6A5B6801221A60FB6A9B681B6F04
:1010DC00002B10D0FB6A9B689B6F184601F0B9F986
:1010EC00B862FB6A9B681C6FFB6A9868BB6A00223B
:1010FC000121A04778623B6AD3F81C31002B14BF46
:10110C0001230023DBB2002B05D03B6A0022C3F87D
:10111C001C2100237B62FB6A5B68D3F82031002B17
:10112C0005D1FB6A5B68D3F85831002B01D0012341
:10113C0000E00023002B50D0FB6A5B680022C3F850
:10114C002021FB6A5B680022C3F858211023FB6046
:10115C00FB6A9B68DB6F07F10C021146184600F026
:10116C00DDFF78617B69002B1CD0FB6A9B68002239
:10117C0083F8A120FB6A7C33FA687969184601F080
:10118C0083FEFA68FB6A5B68C3F84825FB6A03F1C7
:10119C007C02FB6A5B68C3F84425FB6A5B6801222E
:1011AC009A6004E0FB6A9B68012283F8A120FB6A29
:1011BC009B681B6F002B10D0FB6A9B68DB6F18467B
:1011CC0001F017F9B862FB6A9B681C6FFB6A9868A0
:1011DC00BB6A00220221A047B8623B6AD3F82431D3
:1011EC00002B14BF01230023DBB2002B20D03B6A61
:1011FC00D3F880343B613B6A0022C3F824213B6A5C
:10120C00D3F880243B6AC3F880240023BB62FB6ABA
:10121C009B681B6F002B08D0FB6A9B681C6FFB6ADA
:10122C009868BB6A00220321A0473B6A01221A601E
:10123C003B6AD3F80031002B14BF01230023DBB22F
:10124C00002B20D03B6A0022C3F80021FB6A9B686C
:10125C00D3F88020FB6A9B6822F08002C3F88020C0
:10126C00FB6A9B681B6F002B0DD00023FB720123C4
:10127C00BB62FB6A9B681C6FFB6A986807F10B02E8
:10128C00BB6A0321A0473B6AD3F80431002B14BF7F
:10129C0001230023DBB2002B20D03B6A0022C3F8D1
:1012AC000421FB6A9B68D3F88020FB6A9B6842F0A0
:1012BC008002C3F88020FB6A9B681B6F002B0DD04B
:1012CC008023BB720123BB62FB6A9B681C6FFB6AA9
:1012DC00986807F10A02BB6A0321A04700BF3437A4
:1012EC00BD4690BD80B483B000AF78607B681B684E
:1012FC009B685B6818460C37BD465DF8047B7047ED
:10130C0080B487B000AF786039607B681B68FB6085
:10131C0000237B6100233B613B690F2B1ADC114AD4
:10132C003B6952F833301A463B6893420ED80D4A4B
:10133C003B69DB0013445A68FB685B68C3F82425DF
:10134C00084A3B6952F833307B6103E03B69013357
:10135C003B61E1E77B6918461C37BD465DF8047BB1
:10136C00704700BFD838000080B483B000AF7860FD
:10137C003960012318460C37BD465DF8047B704775
:10138C0080B58AB000AFF860B9607A60FB681B6802
:10139C003B6200237B62FFF70FFEF8617B68002B3A
:1013AC0023D07B687B613B6A9B689B6F07F11402BF
:1013BC001146184600F0B2FEB861BB69002B13D081
:1013CC007B691A46B969B86801F05EFD7B697A6A77
:1013DC0013447B627B691A46BB681344BB607B6910
:1013EC007A68D31A7B60D9E700BFF869FFF7F5FD7F
:1013FC003B6A9B6893F8A030DBB2002B14D03B6A9D
:10140C009B68002283F8A0203B6A5B680122C3F82A
:10141C0038253B6A03F18C023B6A5B68C3F83425C0
:10142C003B6A5B6801221A607B6A18462837BD4606
:10143C0080BD80B483B000AF786000BF0C37BD4670
:10144C005DF8047B704780B483B000AF786039607E
:10145C00012318460C37BD465DF8047B704780B5F8
:10146C008CB000AFF860B9607A60FB681B687B6277
:10147C000023FB62FB681B69BB627B68002B06DDEB
:10148C00BB6A5A1EBA62002B01DD012300E0002367
:10149C00002B63D0FFF790FD38627B68002B23DDB7
:1014AC007B687B617B6A9B68DB6F07F114021146DA
:1014BC00184600F0FDFEF861FB69002B13D07B6928
:1014CC001A46B968F86901F0DFFC7B697A68D31AAF
:1014DC007B607B691A46BB681344BB607B69FA6A04
:1014EC001344FB62D9E700BF386AFFF776FD7B6ACD
:1014FC009B6893F8A130DBB2002BBED0FB685B7EFF
:10150C00012BBAD110233B617B6A9B68DB6F07F11F
:10151C0010021146184600F001FEB861BB69002BA1
:10152C00ABD07B6A9B68002283F8A1207B6A7C335A
:10153C003A69B969184601F0A7FC3A697B6A5B689D
:10154C00C3F848257B6A03F17C027B6A5B68C3F8AD
:10155C0044257B6A5B6801229A608EE7BB6A002B8C
:10156C000CDC7B6A9B68D3F89C207968FB6ACB1AED
:10157C0019467B6A9B680A44C3F89C20FB6A184690
:10158C003037BD4680BD80B483B000AF786000BFFB
:10159C000C37BD465DF8047B704780B485B000AF56
:1015AC0078607B681B68FB60FB685B68BB60BB6832
:1015BC0001225A60BB680122DA60BB684FF0FF322F
:1015CC00C3F81425BB684FF0FF32C3F80C25BB6879
:1015DC004FF0FF32C3F80825BB684FF0FF32C3F859
:1015EC001025BB680022C3F8002500BF1437BD4688
:1015FC005DF8047B704780B584B000AF78607B6881
:10160C001B68FB60FB689B680022C3F88C20FB689E
:10161C009B680022C3F89020FB689B680022C3F8EB
:10162C009420FB689B680022C3F89820FB689B6899
:10163C000022C3F89C20FB689B68DB6F184600F007
:10164C00BAFE7B685B7E012B31D1FB685B68FA6864
:10165C00D268C3F81425FB685B68FA681269C3F892
:10166C000C25FB685B68FA685269C3F81025FB68A7
:10167C005B68FA689269C3F80825FB685B68D3F865
:10168C000025FB685B6842F00802C3F80025FB6884
:10169C0003F18C02FB685B68C3F83425FB685B685C
:1016AC000022C3F81021FB685B6801221A60FB68FA
:1016BC009B68012283F8A12000BF1037BD4680BD76
:1016CC0080B485B000AF78607B681B68FB60FB68FA
:1016DC005B68BB60BB6803F6FC731B68BB6803F6F6
:1016EC00FC731A4601231360BB6803F6FC731A469D
:1016FC000023136000BF1437BD465DF8047B7047B0
:10170C0080B485B000AF78607B685B6803F264538B
:10171C00FB607B685B6803F5AD63BB60BB681B68F3
:10172C00012B0CBF01230023DBB2002B03D07B6801
:10173C005B680122DA60FB681B68012B0CBF01237C
:10174C000023DBB2002B1FD07B685B680F22C3F831
:10175C0000257B685B6801225A60FB681B68002BC4
:10176C0014BF01230023DBB2002B00D0F5E77B680C
:10177C005A687B685B68D2F88024C3F880247B6845
:10178C005B680022C3F8002500BF1437BD465DF826
:10179C00047B704780B58CB000AF786039607B6893
:1017AC00002B02D03B68002B02D1002300F021BC9F
:1017BC003B685B68002B03D03B689B68002B02DC0A
:1017CC00002300F016BC3B681B68002B03DB3B6856
:1017DC001B68032B02DD002300F00BBC3B681B686D
:1017EC00FB629249FA6A1346DB0013441B010B445B
:1017FC0004331B68BB62BB6A03F6FC731B68BB6AD1
:10180C0003F6FC731A46012313603B681B6B002B19
:10181C0012D03B68DB6A002B0EDD3B68186B3B6813
:10182C00DB6A19463B6893F82830012200F004FC6F
:10183C0002467B689A6712E0FA6A1346DB0013448F
:10184C001B011833794A1344181D3B6893F8283050
:10185C000122302100F0F0FB02467B689A673B685E
:10186C009B6B002B12D03B685B6B002B0EDD3B6837
:10187C00986B3B685B6B19463B6893F828300122E8
:10188C0000F0DAFB02467B68DA6712E0FA6A13466C
:10189C00DB0013441B014833644A1344181D3B6896
:1018AC0093F828300122302100F0C6FB02467B68F9
:1018BC00DA673B685B687B627B6A10331A687B6A09
:1018CC0010335B683A62FB613B6A03F08003002BC8
:1018DC0005D00122FB699A40554B9A6004E0012225
:1018EC00FB699A40534B9A6000BF3B689B68194652
:1018FC00786AFFF723FBFA6A1346DB0013441B01DB
:10190C004A4A1A447B681A624849FA6A1346DB0051
:10191C0013441B010B4408337A681A607B6801225C
:10192C0083F839207B6A5B6803F01F027B6A1B68B3
:10193C005B01134318463D49FA6A1346DB00134416
:10194C001B010B440C3318607B6A10335B6803F08B
:10195C001F027B6A10331B685B0113431846334923
:10196C00FA6A1346DB0013441B010B441033186056
:10197C002E49FA6A1346DB0013441B010B44043353
:10198C0019682A48FA6A1346DB0013441B01034406
:10199C000C331B68C1F814352449FA6A1346DB0072
:1019AC0013441B010B44043319682048FA6A13468C
:1019BC00DB0013441B01034410331B68C1F80C35C6
:1019CC001A49FA6A1346DB0013441B010B44043317
:1019DC001B68D3F86C151548FA6A1346DB001344E0
:1019EC001B01034404331B6821F01C02C3F86C2553
:1019FC003B6893F91430B3F1FF3F1DD10B49FA6AE0
:101A0C001346DB0013441B010B44043319680748CD
:101A1C00FA6A1346DB0013441B01034404331B68AE
:101A2C00D1F86C25C3F86C251EE000BF1000002017
:101A3C0000258440002584508349FA6A1346DB0054
:101A4C0013441B010B4404331B68D3F86C157E48FC
:101A5C00FA6A1346DB0013441B01034404331B686E
:101A6C0041F00E02C3F86C257B6803F120023B6841
:101A7C00DB6819461046FFF743FC03461A467B68A1
:101A8C005A60BB6A0022C3F80821BB6A0022C3F863
:101A9C001C21BB6A0022C3F82421BB6A0022C3F8B4
:101AAC004421BB6AD3F88024BB6AC3F88024BB6A88
:101ABC000022C3F800217B6893F83930012B23D125
:101ACC006149FA6A1346DB0013441B010B440433CF
:101ADC001B680022C3F84C215B49FA6A1346DB00F1
:101AEC0013441B010B4404331B680022C3F8502120
:101AFC005549FA6A1346DB0013441B010B440433AB
:101B0C001B680022C3F858213B681B7F022B40F056
:101B1C00A1804D49FA6A1346DB0013441B010B44A8
:101B2C0004331B68D3F86C154748FA6A1346DB007C
:101B3C0013441B01034404331B6841F00102C3F836
:101B4C006C257B6A20335B6803F01F027B6A2033B1
:101B5C001B685B01134318463B49FA6A1346DB00CA
:101B6C0013441B010B44143318607B6A30335B68DD
:101B7C0003F01F027B6A30331B685B01134318466A
:101B8C003149FA6A1346DB0013441B010B4418332A
:101B9C0018602D49FA6A1346DB0013441B010B44F1
:101BAC00043319682848FA6A1346DB0013441B01F6
:101BBC00034414331B68C1F810352349FA6A1346E1
:101BCC00DB0013441B010B44043319681E48FA6AEA
:101BDC001346DB0013441B01034418331B68C1F884
:101BEC0008357B6A20331A687B6A20335B683A615C
:101BFC00FB603B6903F08003002B05D00122FB68DE
:101C0C009A40124BDA6004E00122FB689A40104BB8
:101C1C00DA6000BF7B6A30331A687B6A30335B68EA
:101C2C00BA617B61BB6903F08003002B05D00122F4
:101C3C007B699A40054BDA6054E001227B699A403B
:101C4C00034BDA604EE000BF1000002000258440FA
:101C5C0000258450B649FA6A1346DB0013441B0175
:101C6C000B4404331B68D3F86C15B148FA6A13465D
:101C7C00DB0013441B01034404331B6821F00102F5
:101C8C00C3F86C25AA49FA6A1346DB0013441B01FE
:101C9C000B4404331B684FF0FF32C3F80825A449EA
:101CAC00FA6A1346DB0013441B010B4404331B6814
:101CBC004FF0FF32C3F810259D49FA6A1346DB003A
:101CCC0013441B010B4414334FF0FF321A60984934
:101CDC00FA6A1346DB0013441B010B4418334FF014
:101CEC00FF321A609249FA6A1346DB0013441B0157
:101CFC000B4408331B68002283F8A0208C49FA6A35
:101D0C001346DB0013441B010B4408331B680122F0
:101D1C0083F8A1208649FA6A1346DB0013441B01A1
:101D2C000B4408331B680022C3F88C208049FA6AE4
:101D3C001346DB0013441B010B4408331B680022C1
:101D4C00C3F890207A49FA6A1346DB0013441B014E
:101D5C000B4408331B680022C3F894207449FA6AB8
:101D6C001346DB0013441B010B4408331B68002291
:101D7C00C3F898206E49FA6A1346DB0013441B0122
:101D8C000B4408331B680022C3F89C207B68072295
:101D9C0083F838203B681A697B689A603B681A7F25
:101DAC007B681A753B689A697B681A613B6893F883
:101DBC003F207B681A763B6893F83E207B68DA7587
:101DCC003B6893F83D207B689A753B681A6C7B687E
:101DDC00DA613B6893F914207B681A733B685A7F6D
:101DEC007B685A753B685A6A7B681A677B68514AEC
:101DFC00DA637B68504A1A647B68504A5A647B6881
:101E0C004F4A9A647B684F4ADA647B684E4A1A657B
:101E1C007B684E4A5A657B684D4A9A657B684D4A89
:101E2C00DA657B684C4A5A667B6864221A637B6865
:101E3C004A4ADA667B68343301211846FEF772FF92
:101E4C007B682C331846FEF7D3FBFA6A1346DB008B
:101E5C0013441B01364A13441846FFF751FC7B68A8
:101E6C0093F83930012B43D13149FA6A1346DB0020
:101E7C0013441B010B4404331B680822C3F80025D0
:101E8C002B49FA6A1346DB0013441B010B44043341
:101E9C001B680122C3F83825FA6A1346DB00134489
:101EAC001B018833224A1344181D2149FA6A134630
:101EBC00DB0013441B010B4404331B680246C3F8BC
:101ECC0034251B49FA6A1346DB0013441B010B44EF
:101EDC0004331B680022C3F810211549FA6A134613
:101EEC00DB0013441B010B4404331B6801221A60F2
:101EFC00BB6A4FF0FF32C3F808233B685B7F002BB3
:101F0C0076D03B6818687B682033154A194600F078
:101F1C00F7FE7B6893F83930012B26D10449FA6A15
:101F2C001346DB0013441B010B4404331B6819E0FC
:101F3C0010000020A715000003160000F11200008D
:101F4C000D130000751300008D1300003F140000EA
:101F5C00531400006B14000093150000CD16000004
:101F6C0007100000254AC3F80423FB6A032B3FD853
:101F7C0001A252F823F000BF951F0000AF1F000014
:101F8C00C91F0000E31F00000820FEF78FFF3B680D
:101F9C001B6A19460820FEF7A7FF0820FEF768FF0A
:101FAC0026E00920FEF782FF3B681B6A19460920D0
:101FBC00FEF79AFF0920FEF75BFF19E00A20FEF7F7
:101FCC0075FF3B681B6A19460A20FEF78DFF0A2035
:101FDC00FEF74EFF0CE00B20FEF768FF3B681B6A18
:101FEC0019460B20FEF780FF0B20FEF741FF00BFC8
:101FFC00012318463037BD4680BD00BF9703020051
:10200C0080B483B000AF7860396000BF0C37BD4638
:10201C005DF8047B704780B582B000AF786078685B
:10202C0000F02AFF00BF0837BD4680BD80B400AF6A
:10203C00FEE780B400AFFEE780B487B000AFF86075
:10204C00B9607A60FB70FB68002B01D1002323E0A0
:10205C00FB687B617B69FA781A737B6900221A61D1
:10206C007B6900221A607B694FF0FF325A607B69F2
:10207C007A685A617B69BA689A61BB68A3F12002DD
:10208C007B68B2FBF3F31A467B699A60FB6803F139
:10209C0020027B69DA617B6918461C37BD465DF806
:1020AC00047B704780B489B000AF78607B68002BEC
:1020BC0003D07B685B68002B01DA002328E07B6887
:1020CC005B68BB61BB690133FB617B689B68FA6928
:1020DC009A4201DB0023FB617B681B68FA699A4218
:1020EC0002D14FF0FF33FB617B6804337B61FB69EA
:1020FC00FB60FB681A467B69C3E8AF2F7B68DA6923
:10210C007B685B69B96901FB03F313443B613B6971
:10211C0018462437BD465DF8047B704780B58AB0FD
:10212C0000AF786039603B68002B04D17868FFF70A
:10213C00B9FF034655E07B68002B07D07B685B68D2
:10214C00002B03DB3B681B68002B04D13B6800228F
:10215C001A60002345E03B681B687B627B681B6848
:10216C00FB617B685B68BB61BA697B6A13443B6249
:10217C00BA69FB699A420BDA3A6AFB699A4219DB33
:10218C004FF0FF333B62FA69BB69D31A7B6211E0F3
:10219C007B689B683A6A9A420CDBFB69002B02D184
:1021AC004FF0FF3300E000233B627B689A68BB6909
:1021BC00D31A7B627B6804337B613B6AFB60FB68F0
:1021CC001A467B69C3E8AF2F7B68DA697B685B6969
:1021DC00B96901FB03F313443B613B687A6A1A60EB
:1021EC003B6918462837BD4680BD80B48DB000AF22
:1021FC0078607B68002B01D1002353E07B681A6860
:10220C007B685B689A421FD17B681B7B002B01D0DB
:10221C00002347E07B685B680133FB627B689B684B
:10222C00FA6A9A4201DB0023FB627B6804337B620F
:10223C00FB6A3B613B691A467B6AC3E8AF2F7B683C
:10224C001B695A1C7B681A617B681B683B623B6A82
:10225C000133BB627B689B68BA6A9A4201DB00233C
:10226C00BB627B68FB61BB6AFB60FB681A46FB695F
:10227C00C3E8AF2F7B685B68002B09DA7B680433FB
:10228C00BB613B6ABB60BB681A46BB69C3E8AF2F36
:10229C007B68DA697B685B69396A01FB03F3134479
:1022AC007B617B6918463437BD465DF8047B70470B
:1022BC0080B58CB000AF786039603B68002B04D1DE
:1022CC007868FFF792FF034671E07B68002B03D020
:1022DC003B681B68002B04D13B6800221A6000236A
:1022EC0065E07B681A687B685B689A4214D17B68EE
:1022FC001B7B002B01D0002359E03B681B683B6122
:10230C0007F1100319467868FFF708FF7B681B6913
:10231C003A691A447B681A613B681B68FB627B68EC
:10232C001B687B627B685B683B627A6AFB6A13445E
:10233C00BB627A6A3B6A9A420CDD7B689B68BA6A1C
:10234C009A4211DB7B689A687B6AD31AFB62002382
:10235C00BB6209E0BA6A3B6A9A4205DB3A6A7B6A5D
:10236C00D31AFB623B6ABB627B68FB61BB6AFB6096
:10237C00FB681A46FB69C3E8AF2F3B6A002B09DAEE
:10238C007B680433BB617B6ABB60BB681A46BB6964
:10239C00C3E8AF2F7B68DA697B685B69796A01FBFC
:1023AC0003F313447B613B68FA6A1A607B69184635
:1023BC003037BD4680BD80B487B000AF78607B6895
:1023CC0004337B614FF0FF33FB60FB681A467B697B
:1023DC00C3E8AF2F7B683B610023BB60BB681A4628
:1023EC003B69C3E8AF2F00BF1C37BD465DF8047BCB
:1023FC00704780B485B000AF78600023FB607B68C9
:10240C005B68002B02DA7B689B681CE07B681A68AF
:10241C007B685B689A4209DD7B689A687B681B68FD
:10242C00D21A7B685B681344FB600BE07B681A680C
:10243C007B685B689A4205DA7B685A687B681B6824
:10244C00D31AFB60FB6818461437BD465DF8047B55
:10245C00704780B485B000AF78600023FB607B6868
:10246C005B68002B01DA002316E07B685A687B68F6
:10247C001B689A4206DA7B681A687B685B68D31A19
:10248C00FB6008E07B689A687B685B68D21A7B68A3
:10249C001B681344FB60FB6818461437BD465DF897
:1024AC00047B704780B584B000AF786039607B687E
:1024BC000C331846FEF78FF80346002B01D000238F
:1024CC000FE07B68DB6A3968786898470346FB73D2
:1024DC00FB7B002B04D17B680C331846FEF788F885
:1024EC00FB7B18461037BD4680BD80B582B000AF6F
:1024FC0078607B685B6B786898477B680C33184610
:10250C00FEF776F800BF0837BD4680BD80B584B0B5
:10251C0000AF786039607B680C331846FEF75BF8C7
:10252C000346002B01D000230FE07B689B6B3968BE
:10253C00786898470346FB73FB7B002B04D17B68C0
:10254C000C331846FEF754F8FB7B18461037BD4683
:10255C0080BD80B582B000AF78607B685B6C7868BA
:10256C0098477B680C331846FEF742F800BF0837D3
:10257C00BD4680BD80B586B000AFF860B9607A60AA
:10258C003B607B68002B02D03B68002B01DC0023F6
:10259C0024E000237B61FB681B693B61B968F86828
:1025AC00FFF780FF0346002B09D0FB681B6B3A68D2
:1025BC007968F86898477861F868FFF796FF7B6947
:1025CC00002B06DC3B695A1E3A61002B01DD01230E
:1025DC0000E00023002B00D0E0E77B691846183799
:1025EC00BD4680BD80B586B000AFF860B9607A603A
:1025FC003B607B68002B02D03B68002B01DC002386
:10260C0024E000237B61FB681B693B61B968F868B7
:10261C00FFF77CFF0346002B09D0FB68DB6B3A68A5
:10262C007968F86898477861F868FFF792FF7B69DA
:10263C00002B06DC3B695A1E3A61002B01DD01239D
:10264C0000E00023002B00D0E0E77B691846183728
:10265C00BD4680BD80B586B000AFF860B9607A60C9
:10266C003B6000237B61FB681B693B613B6A002B71
:10267C0002D07B6A002B01DC00233AE0B968F868D1
:10268C00FFF744FF0346002B24D07B68002B12D0AD
:10269C00FB681B6C002B07D0FB681B6C3A687968D5
:1026AC00F8689847786106E0FB68DB6B3A687968F4
:1026BC00F86898477861FB68DB6AB968F8689847EE
:1026CC00FB681B6B7A6A396AF86898477861F86816
:1026DC00FFF70BFF7B69002B06DC3B695A1E3A6146
:1026EC00002B01DD012300E00023002B00D0C5E707
:1026FC007B6918461837BD4680BDB0B58AB000AFAF
:10270C00F860B9607A603B606B461D460023FB6144
:10271C003B683B62FB681B697B627B68002B04D0C7
:10272C003A68FB6B1344002B01DC00236BE03A6826
:10273C00FB6B13445C1EBC612346013318464FF0FF
:10274C0000014FF000024FF00003CB0043EA50733E
:10275C00C2002346013318464FF000014FF000022F
:10276C004FF00003CB0043EA5073C2002346013301
:10277C000733DB08DB00ADEB030D6B4600337B61ED
:10278C007B693A687968184600F07EFBBB6B002BBE
:10279C000ED0FB6B002B0BDD7A693B681344FA6B94
:1027AC00B96B184600F070FB3A6AFB6B13443B6242
:1027BC00B968F868FFF7AAFE0346002B09D0FB683E
:1027CC00DB6B79693A6AF8689847F861F868FFF743
:1027DC00C0FEFB69002B06DC7B6A5A1E7A62002B5A
:1027EC0001DD012300E00023002B00D0E0E7FA69B3
:1027FC003B689A4204DBFA693B68D31AFB6101E03F
:10280C000023FB61FB69AD4618462837BD46B0BDB9
:10281C0080B485B000AF0346FB71FB799B09DAB23B
:10282C00FB795B09DBB25340DBB203F00103FB73B2
:10283C00FB795B005AB297F90F3013435BB2DBB2F2
:10284C0003F07F03DBB218461437BD465DF8047BFA
:10285C007047000080B400AFBFF34F8F00BF064B32
:10286C00DB6803F4E0620449044B1343CB60BFF311
:10287C004F8F00BF00BFFDE700ED00E00400FA053C
:10288C0080B483B000AF0E4B1B687B600D4B1B6894
:10289C003B607B68092B0CD13B68012B03D03B6858
:1028AC00022B02D003E0012304E0012302E0012308
:1028BC0000E0002318460C37BD465DF8047B7047DA
:1028CC003001FF003401FF0080B483B000AF0E4B29
:1028DC001B687B600D4B1B683B607B68092B0CD124
:1028EC003B68012B03D03B68022B02D003E0012391
:1028FC0004E0002302E0002300E0002318460C371C
:10290C00BD465DF8047B70473001FF003401FF00C9
:10291C0080B483B000AF0E4B1B687B600D4B1B6803
:10292C003B607B68092B0CD13B68012B03D03B68C7
:10293C00022B02D003E0002304E0012302E0012378
:10294C0000E0002318460C37BD465DF8047B704749
:10295C003001FF003401FF0080B483B000AF0E4B98
:10296C001B687B600D4B1B683B607B68092B0CD193
:10297C003B68012B03D03B68022B02D003E0012300
:10298C0004E0002302E0002300E0002318460C378B
:10299C00BD465DF8047B70473001FF003401FF0039
:1029AC0080B483B000AF0E4B1B687B600D4B1B6873
:1029BC003B607B68092B0CD13B68012B03D03B6837
:1029CC00022B02D003E0012304E0012302E00123E7
:1029DC0000E0002318460C37BD465DF8047B7047B9
:1029EC003001FF003401FF0080B400AF034B044AF8
:1029FC001A6000BFBD465DF8047B7047580200208A
:102A0C000090D00380B582B000AFFFF739FF0346CA
:102A1C00002B09D04FF050230022C3F814214FF0A3
:102A2C0050230022C3F81821FFF74EFF0346002B5A
:102A3C0006D05E4B01221A605D4B0122C3F878254B
:102A4C00FFF766FF0346002B03D0594B0122C3F856
:102A5C007825FFF781FF0346002B02D0554B0E2241
:102A6C001A60FFF79DFF0346002B05D0524B002246
:102A7C001A60524B01221A6000237B6000237B609A
:102A8C0011E04FF47F024FF47F017B68603351F803
:102A9C00333019467B686033DB0013445B680B6092
:102AAC007B6801337B607B68FF2B08D84FF47F0277
:102ABC007B68603352F83330B3F1FF3FE1D100F063
:102ACC009BF80346002B04D100F084F80346002B3E
:102ADC004FD000BF3A4BD3F80034012BFAD1384B0E
:102AEC000122C3F8042500BF354BD3F80034012B69
:102AFC00FAD100F081F80346002B13D0314BDB697F
:102B0C00314A1360304B1B6823F001032F4A1360CA
:102B1C002C4A2E4B1B68D36100BF294BD3F80034D1
:102B2C00012BFAD100F056F80346002B15D0254B9B
:102B3C001B6A254A1360244B1B6823F0FF0343F0E8
:102B4C002003224A13601F4A204B1B68136200BFEC
:102B5C001B4BD3F80034012BFAD1194B0022C3F8CC
:102B6C00042500BF164BD3F80034012BFAD1FFF724
:102B7C0071FE174BD3F88C30154A43F44063C2F8FE
:102B8C008C30134BD3F88830114A43F47003C2F8DD
:102B9C008830BFF34F8F00BFBFF36F8F00BFFFF7BD
:102BAC0023FF00BF0837BD4680BD00BF384A005028
:102BBC0000400050E4AE03500C470050104700504A
:102BCC00009003500080FF00040400200804002043
:102BDC0000ED00E080B400AF064B1B6AB3F1FF3F81
:102BEC0001D1012300E000231846BD465DF8047BAB
:102BFC00704700BF0080FF0080B400AF064BDB695C
:102C0C0003F00103002B01D0012300E00023184640
:102C1C00BD465DF8047B70470080FF0080B487B030
:102C2C0000AFF860B9607A60FB7000237B61234BC6
:102C3C003B61FB6803F08003002B01D0204B3B6110
:102C4C00FB68B3F1FF3F32D0BB68B3F1FF3F2ED02E
:102C5C00FB78012B03D17B6943F003037B6197F86D
:102C6C002030032B14D801A252F823F09D2C000025
:102C7C00892C0000932C0000892C00007B6943F008
:102C8C000C037B6104E07B6943F004037B6100BFB0
:102C9C0097F82430012B03D17B6943F4C0637B612B
:102CAC003B69BA688032796943F8221000E000BFB2
:102CBC001C37BD465DF8047B704700BF002584506F
:102CCC000025844080B483B000AF0346FB7197F9B4
:102CDC000730002B0CDBFB7903F01F02074997F937
:102CEC0007305B09012000FA02F2603341F823201F
:102CFC0000BF0C37BD465DF8047B704700E100E077
:102D0C0080B485B000AFF860B9607A60FB68002BC6
:102D1C000EDBFB68032B0BDC0849FB68BA6841F837
:102D2C003320064AFB68DB0013447A685A6000E0E3
:102D3C0000BF1437BD465DF8047B70470C040020BF
:102D4C0080B500AF074B1B68002B06D0054B5B68AA
:102D5C00044A12681146002098470820FFF7B2FF7A
:102D6C0000BF80BD0C04002080B500AF074B9B68F2
:102D7C00002B06D0054BDB68044A926811460120F3
:102D8C0098470920FFF79EFF00BF80BD0C04002070
:102D9C0080B500AF074B1B69002B06D0054B5B6958
:102DAC00044A12691146022098470A20FFF78AFF4D
:102DBC0000BF80BD0C04002080B500AF074B9B69A1
:102DCC00002B06D0054BDB69044A9269114603209F
:102DDC0098470B20FFF776FF00BF80BD0C04002046
:102DEC000B460146184600F001B8000010B5054C22
:102DFC0013462CB10A460146022000E000BF10BD6C
:102E0C002046FCE70000000008B5074B044613B150
:102E1C00002100E000BF054B1868836A03B1984796
:102E2C00204600F0A7FC00BF00000000583900004D
:102E3C0070B50D4D00260D4C641BA410A64209D193
:102E4C000B4D00260B4CFDF713FB641BA410A64284
:102E5C0005D170BD55F8043B01369847EEE755F89F
:102E6C00043B01369847F2E70000002000000020E8
:102E7C000000002008000020024B0146186800F0FA
:102E8C0019B800BF5C0200200A44431E914200D1D5
:102E9C00704710B511F8014B914203F8014FF9D16D
:102EAC0010BD02440346934200D1704703F8011B46
:102EBC00F9E7000037B5002947D051F8043C0C1F46
:102ECC000190002BB8BFE41800F0F0F8204A0198EC
:102EDC001368154633B96360146003B0BDE8304025
:102EEC0000F0EAB8A3420BD921686218934202BFE2
:102EFC001A685B685218636008BF22602C60ECE7AC
:102F0C001A465B680BB1A342FAD911685518A54251
:102F1C000BD12468214454181160A342DDD11C68E4
:102F2C005B68214453601160D7E702D90C2303601E
:102F3C00D3E7256861198B4202BF19685B68491990
:102F4C00636008BF21605460C7E703B030BD00BFA9
:102F5C002C040020F8B5CD1C064625F003050835D9
:102F6C000C2D38BF0C25002D01DBA94203D90C23F5
:102F7C0033600020F8BD00F099F821490A68144626
:102F8C009CB9204F3B6823B92146304600F03CF8F1
:102F9C0038602946304600F037F8431C23D10C2307
:102FAC003046336000F088F8E3E723685B1B17D4E6
:102FBC000B2B03D923601C44256004E06368A242F8
:102FCC000CBF0B605360304600F076F804F10B0038
:102FDC00231D20F00700C21ACCD01B1AA350C9E73E
:102FEC0022466468CCE7C41C24F00304A042E3D05E
:102FFC00211A304600F008F80130DDD1CFE700BFD0
:10300C002C0400203004002038B50023054D044664
:10301C0008462B6000F0A0FB431C02D12B6803B1C7
:10302C00236038BD38040020034613F8012B002A16
:10303C00FBD1181A0138704730B5141E05469BB0E9
:10304C00184605DA8B234FF0FF302B601BB030BDD8
:10305C004FF40273024600912846ADF80C3014BFB1
:10306C0004F1FF33234604916946029305934FF60E
:10307C00FF73ADF80E301E9B00F080F8431CBCBFF4
:10308C008B232B60002CE1D0009B00221A70DDE713
:10309C0007B5009313460A46014603480068FFF73C
:1030AC00CBFF03B05DF804FB5C020020014800F08C
:1030BC00FBBA00BF40040020014800F0F6BA00BF84
:1030CC00400400202DE9F0478E6882460C4690465D
:1030DC009E421F4638D88A8912F4906F32D02568E8
:1030EC0001330969A5EB0109656905EB45054B44FD
:1030FC0005EBD5756D109D4238BF1D46530531D576
:10310C002946FFF727FF064650B90C234FF0FF3036
:10311C00CAF80030A38943F04003A381BDE8F087CF
:10312C004A462169FFF7B0FEA38923F4906343F06C
:10313C008003A38126614E446561A5EB09052660D9
:10314C003E46A560BE4200D93E4632464146206806
:10315C0000F0BAFAA368226800209B1B3244A360DB
:10316C002260DBE72A4600F0C9FA06460028E1D1C6
:10317C0021695046FFF79EFEC7E700002DE9F04F8E
:10318C0098468B899DB007461B060D4614460ED5F6
:10319C000B6963B94021FFF7DDFE2860286120B977
:1031AC000C233B604FF0FF30D1E040236B610023D8
:1031BC00CDF80C804FF00109DFF8AC810993202386
:1031CC008DF8293030238DF82A3023469A4613F88F
:1031DC00012B0AB1252AF9D1BAEB040B0BD05B46B3
:1031EC00224629463846FFF76DFF013000F0AA80D1
:1031FC00099A5A4409929AF80030002B00F0A280E8
:10320C0000234FF0FF320AF1010A049307938DF863
:10321C0053301A93CDE9052354460522524814F82D
:10322C00011B00F043FA049AD8B9D00644BF2023FE
:10323C008DF85330110744BF2B238DF853309AF877
:10324C0000302A2B15D0079A544600204FF00A0C58
:10325C00214611F8013B303B092B4ED9B0B10792F6
:10326C0014E0A0EB0803A24609FA03F313430493FA
:10327C00D2E7039B191D1B68002B0391BBBF5B425C
:10328C0042F0020207930793B8BF049223782E2BC7
:10329C000CD163782A2B35D1039B02341A1D1B6881
:1032AC00002B0392B8BF4FF0FF330593DFF8C8A093
:1032BC0003222178504600F0F9F940B14023A0EBED
:1032CC000A00013403FA00F0049B0343049314F83E
:1032DC00011B062225488DF8281000F0E7F900287C
:1032EC0038D0234B1BBB039B073323F00703083356
:1032FC000393099B3344099367E70CFB02320C469A
:10330C000120A5E7002301344FF00A0C1946059360
:10331C00204610F8012B303A092A03D9002BC5D0CE
:10332C000591C3E70CFB012104460123F0E703AB35
:10333C002A4604A9384600930E4B00E000BF421CFD
:10334C000646D6D1AB895B063FF52CAF09981DB06C
:10335C00BDE8F08F03AB2A4604A938460093054B11
:10336C0000F07CF8EBE700BF5C3900006639000028
:10337C0000000000D1300000623900002DE9F04758
:10338C00164699468A6807460B690C46DDF820807C
:10339C009342B8BF1346336091F843200AB101330E
:1033AC0033602368990642BF336802333360256863
:1033BC0015F0060506D104F1190AE36832689B1A68
:1033CC00AB4229DC94F84320131E226818BF01235A
:1033DC0092062ED404F1430249463846C0470130C8
:1033EC0021D023681A3454F80E5C03F006033268BB
:1033FC000026042B54F8123C08BFAD1A54F80A2CC2
:10340C0014BF002525EAE5759342C4BF9B1AED183D
:10341C00B5421AD1002008E00123524649463846ED
:10342C00C047013003D14FF0FF30BDE8F0870135C4
:10343C00C3E7E1185A1C30200233224481F84300C0
:10344C0094F8451082F84310C4E7012322464946FC
:10345C003846C0470130E6D00136D9E72DE9FF47A1
:10346C000C46914680469A46277E04F143020C99FD
:10347C00782F07D8622F0AD8002F00F0D880582F49
:10348C0000F0A38004F1420684F842703AE0A7F100
:10349C006303152BF6D801A050F823F0013500007A
:1034AC001535000091340000913400009134000077
:1034BC009134000015350000913400009134000067
:1034CC009134000091340000213600004535000095
:1034DC0003360000913400009134000043360000A4
:1034EC009134000045350000913400009134000007
:1034FC000B3600000B6804F142061A1D1B680A60AB
:10350C0084F842300123A3E0256808682E0600F1F8
:10351C0004030AD505680B60002D03DA2D236D42D8
:10352C0084F843305E480A2319E015F0400F056813
:10353C000B6018BF2DB2EFE70B682568181D0860EB
:10354C00280601D51D6802E06906FBD51D886F2F82
:10355C0053480CBF08230A23002184F843106668E3
:10356C00002EA660A2BF216821F0040121600DB9D4
:10357C00002E4DD01646B5FBF3F103FB1157C75D7A
:10358C0006F8017D2F460D46BB42F4D9082B0BD112
:10359C002368DF0708D5236961689942DEBF3023B1
:1035AC0006F8013C06F1FF36921B22614B4603AA3A
:1035BC0021464046CDF800A0FFF7E0FE01304CD18B
:1035CC004FF0FF3004B0BDE8F087354884F8457003
:1035DC0023680E681F0656F8045B0E6014D5D907D5
:1035EC0044BF43F0200323601DB9236823F020035C
:1035FC0023601023B0E7236843F020032360782373
:10360C00284884F84530E3E75E0648BFADB2E6E7EC
:10361C001646BBE70B6826681D1D60690D603506F4
:10362C001B6801D5186002E07106FBD518800023D9
:10363C0016462361BAE70B681A1D0A6000211E6842
:10364C006268304600F032F808B1801B6060636835
:10365C002361002384F84330A8E7236932464946A6
:10366C004046D0470130ABD023689B0713D4E068A9
:10367C00039B9842B8BF1846A4E70123324649463B
:10368C004046D04701309BD00135E36803995B1A63
:10369C00AB42F2DCEBE7002504F11906F5E700BFBD
:1036AC006D3900007E39000070477047C9B2024482
:1036BC0010B59042034601D1002303E01C78013081
:1036CC008C42F6D1184610BD884210B501EB0204AD
:1036DC0002D98442234607D8431EA14208D011F8D0
:1036EC00012B03F8012FF8E7024401468A4200D16E
:1036FC0010BD13F8014D02F8014DF7E7F8B5074678
:10370C0014460E4621B91146BDE8F840FFF722BC1D
:10371C0022B92546FFF7CEFB2846F8BD00F014F879
:10372C00A0420FD221463846FFF714FC054600286C
:10373C00F2D031462246FFF7A7FB31463846FFF759
:10374C00B9FBE9E73546E7E751F8043C181F002BB5
:10375C00BCBF0B58C01870470449054A0B68002BB6
:10376C0008BF13461A1818460A6070473404002024
:10377C0048040020FEE700BF000000001C00000011
:10378C000100000000000000000000001D0000000F
:10379C000100000001000000000000001A00000001
:1037AC000100000000000000000000001B000000F1
:1037BC000100000001000000000000008437000040
:1037CC000400000040420F0008000000FF00000051
:1037DC00010000000001000001000000730C00005B
:1037EC0001000000000000000000000000000000CC
:1037FC0000000000010000000000000000000000BC
:10380C0055415254205052425320546573740A0D42
:10381C000000000000000000000000005F0A000033
:10382C0009080000770A0000990A0000CF0A00007E
:10383C00B50A0000710800009D080000C9080000CE
:10384C00FD0800002F0B00004F0B0000730B000055
:10385C00B30B0000D30B0000F70B00003D0C000075
:10386C0049090000010A0000210A00003F0A00007B
:10387C00E90A0000090B00008D0B0000000000009D
:10388C000000000039200000090800003920000069
:10389C00392000002D0800004F08000071080000BE
:1038AC009D080000C9080000FD0800003920000038
:1038BC003920000039200000392000003920000098
:1038CC00392000003109000049090000B004000053
:1038DC0000F004006009000000D00900C0120000D4
:1038EC0000B0130080250000005027004038000075
:1038FC0000F03A00004B000000A04E008070000069
:10390C0000C075000096000000009D0000E1000062
:10391C000000EB00002C010000903A0100C20100F5
:10392C000000D601008403000000B00390D0030017
:10393C0000000004000807000000400700100E0003
:10394C000000000F40420F00000000106002002039
:10395C00232D302B2000686C4C006566674546476C
:10396C0000303132333435363738394142434445EF
:10397C00460030313233343536373839616263645E
:03398C006566006D
:0839900044CBFF7F01000000A1
:10399800B9040000D50D00009504000000000000E7
:1039A800000000000080005000000000000000003F
:1039B80000000000000000000000000001000000FE
:1039C80000000000000000000000000000000000EF
:1039D80000000000000000000000000000000000DF
:1039E80000000000000000000000000000000000CF
:1039F80000000000000000000000000000000000BF
:103A080000000000000000000000000000000000AE
:103A1800000000000000000000000000000000009E
:103A2800000000000000000000000000000000008E
:103A3800010000000090005000000000000000009D
:103A4800000000000000000000000000010000006D
:103A5800000000000000000000000000000000005E
:103A6800000000000000000000000000000000004E
:103A7800000000000000000000000000000000003E
:103A8800000000000000000000000000000000002E
:103A9800000000000000000000000000000000001E
:103AA800000000000000000000000000000000000E
:103AB80000000000000000000000000000000000FE
:103AC8000200000000A000500000000000000000FC
:103AD80000000000000000000000000001000000DD
:103AE80000000000000000000000000000000000CE
:103AF80000000000000000000000000000000000BE
:103B080000000000000000000000000000000000AD
:103B1800000000000000000000000000000000009D
:103B2800000000000000000000000000000000008D
:103B3800000000000000000000000000000000007D
:103B4800000000000000000000000000000000006D
:103B58000300000000B0005000000000000000005A
:103B6800000000000000000000000000010000004C
:103B7800000000000000000000000000000000003D
:103B8800000000000000000000000000000000002D
:103B9800000000000000000000000000000000001D
:103BA800000000000000000000000000000000000D
:103BB80000000000000000000000000000000000FD
:103BC80000000000000000000000000000000000ED
:103BD80000000000000000000000000000000000DD
:103BE80001000000800000000090D0036002002067
:103BF80000000000000000000000000000000000BD
:103C080000000000000000000000000000000000AC
:103C1800000000000000000000000000000000009C
:103C2800000000000000000000000000000000008C
:103C3800000000000000000000000000000000007C
:103C4800000000000000000000000000000000006C
:0400000300000411E4
:00000001FF
