:10000000000004201104000017260000172600003D
:1000100017260000172600001726000017260000EC
:100020000000000000000000000000001726000093
:100030001726000000000000172600001726000009
:100040000000000000000000000000001726000073
:100050000000000017260000000000000000000063
:10006000D5360000FD360000253700004D37000072
:1000700000000000172600001726000017260000C9
:1000800017260000172600000000000000000000F6
:1000900017260000172600000000000000000000E6
:1000A00017260000000000000000000017260000D6
:1000B000172600001726000017260000172600004C
:1000C000172600001726000017260000172600003C
:1000D00017260000000000001726000000000000A6
:1000E0001726000000000000172600000000000096
:1000F0000000000000000000000000000000000000
:1001000000000000172600000000000000000000B2
:1001100000000000000000000000000000000000DF
:100120000000000017260000000000000000000092
:1001300000000000000000000000000000000000BF
:100140001726000000000000000000000000000072
:10015000000000000000000000000000000000009F
:10016000000000000000000000000000000000008F
:10017000000000000000000000000000000000007F
:10018000000000000000000000000000000000006F
:10019000000000000000000000000000000000005F
:1001A000000000000000000000000000000000004F
:1001B000000000000000000000000000000000003F
:1001C000000000000000000000000000000000002F
:1001D000000000000000000000000000000000001F
:1001E000000000000000000000000000000000000F
:1001F00000000000000000000000000000000000FF
:1002000000000000000000000000000000000000EE
:1002100000000000000000000000000000000000DE
:1002200000000000000000000000000000000000CE
:1002300000000000000000000000000000000000BE
:1002400000000000000000000000000000000000AE
:10025000000000000000000000000000000000009E
:10026000000000000000000000000000000000008E
:10027000000000000000000000000000000000007E
:10028000000000000000000000000000000000006E
:10029000000000000000000000000000000000005E
:1002A000000000000000000000000000000000004E
:1002B000000000000000000000000000000000003E
:1002C000000000000000000000000000000000002E
:1002D000000000000000000000000000000000001E
:1002E000000000000000000000000000000000000E
:1002F00000000000000000000000000000000000FE
:1003000000000000000000000000000000000000ED
:1003100000000000000000000000000000000000DD
:1003200000000000FFFFFFFFFFFFFFFFFFFFFFFFD9
:10033000FFFFFFFFFFFFFFFFFFFFFFFFFFFFFFFFCD
:10034000FFFFFFFFFFFFFFFFFFFFFFFFFFFFFFFFBD
:10035000FFFFFFFFFFFFFFFFFFFFFFFFFFFFFFFFAD
:10036000FFFFFFFFFFFFFFFFFFFFFFFFFFFFFFFF9D
:10037000FFFFFFFFFFFFFFFFFFFFFFFFFFFFFFFF8D
:10038000FFFFFFFFFFFFFFFFFFFFFFFFFFFFFFFF7D
:10039000FFFFFFFFFFFFFFFFFFFFFFFFFFFFFFFF6D
:1003A000FFFFFFFFFFFFFFFFFFFFFFFFFFFFFFFF5D
:1003B000FFFFFFFFFFFFFFFFFFFFFFFFFFFFFFFF4D
:1003C000FFFFFFFFFFFFFFFFFFFFFFFFFFFFFFFF3D
:1003D000FFFFFFFFFFFFFFFFFFFFFFFFFFFFFFFF2D
:1003E000FFFFFFFFFFFFFFFFFFFFFFFFFFFFFFFF1D
:1003F000FFFFFFFFFFFFFFFFFFFFFFFFFFFFFFFF0D
:10040000FFFFFFFFFFFFFFFFFFFFFFFFFEFFFFFFFD
:1004100080B582B000AF124A124B9A4205D0124BFF
:100420001A4610490E4803F0A5F9104B7B607A6814
:1004300000210F4800F004F902F086FF02F076FF79
:100440000C4B1B6803F5F40303F590530A4AA2FB17
:1004500003239B0D094A136000F044F8FEE700BF38
:100460000000002014430000DC0300002C03000007
:10047000DC030020D803002083DE1B43D4030020CC
:10048000F8B500BFF8BC08BC9E467047F8B500BF81
:10049000F8BC08BC9E46704710B5054C237833B9AC
:1004A000044B13B1044800E000BF0123237010BDCA
:1004B000DC030020000000001443000008B5034BDB
:1004C0001BB10349034800E000BF08BD0000000065
:1004D000E003002014430000002A01D002F5807AD6
:1004E000704700BF162031A1ABBE304841680029DB
:1004F00001D0364A11600168002901D132490160FA
:100500008168C2682A4B002900D00B469D46FFF740
:10051000E3FF00218B460F462648274A121A00F0B7
:100520008FF800F0F7FA15202649ABBE2549096877
:10053000002001B40B780131002B15D0202BF9D00D
:10054000222B01D0272B01D11A0001E020220139F2
:1005500002B401300B780131002B05D09A42F9D159
:1005600000224B1E1A70E5E76946020092006A44B9
:100570006B469A4206D9043A14681D6815601C60DF
:100580000433F6E76C460725AC43A54604000D008E
:100590000A48002802D00A4800E000BF00F02CF80A
:1005A0002000290000F076FE00F012F80C00002078
:1005B00000000420DC0300200807002000000000E9
:1005C000000000001C010020080700208801002016
:1005D00008B5074B044613B1002100E000BF054BEE
:1005E0001868836A03B19847204600F00DFB00BFEE
:1005F000000000003441000070B50D4D00260D4C88
:10060000641BA410A64209D10B4D00260B4CFFF72A
:1006100037FF641BA410A64205D170BD55F8043BFA
:1006200001369847EEE755F8043B01369847F2E764
:100630000000002000000020000000200800002032
:1006400002440346934200D1704703F8011BF9E7C7
:100650000A4B10B50446186818B183690BB900F04D
:100660004FFB132C07D8064850F83420013202D033
:1006700000EBC40010BD0020FCE700BF24010020F7
:1006800008040020F8B5431C044609D100F0DAFA4A
:1006900013260546002730463946ABBE06462E6077
:1006A0002046F8BDF8B50446132600F0CBFA002723
:1006B000054630463946ABBE064620462E60F8BD9C
:1006C00030B585B0062401AD0392CDE90101204685
:1006D0002946ABBE04462046FFF7D4FF05B030BD27
:1006E00037B515460191FFF7B3FF0446019938B9B4
:1006F00000F0A8FA092303604FF0FF3003B030BDCB
:100700002A460068FFF7DCFF431CF7D02A1A63680B
:10071000134410466360F1E7F7B50C461646FFF741
:1007200097FF054640B900F08DFA092303604FF0AA
:10073000FF34204603B0F0BD022E03D900F082FA48
:100740001623F3E7012E12D14368E418F6D42B6880
:100750000A266F46CDE9003430463946ABBE064620
:100760003046FFF78FFF0028E1DB6C60E1E7022EE7
:10077000EDD103680C266F46009330463946ABBE78
:1007800006463046FFF77EFF431CD0D00444DEE728
:10079000FFF7C2BF30B585B0052401AD0392CDE9A6
:1007A000010120462946ABBE04462046FFF76AFFFA
:1007B00005B030BD37B515460191FFF749FF044636
:1007C000019930B900F03EFA092303604FF0FF3081
:1007D00012E02A460068FFF7DDFF0028F6DB6268BA
:1007E0002B1AA8421A44626005D1002003B0BDE86C
:1007F0003040FFF757BF184603B030BD37B502246D
:1008000001AD019020462946ABBE04462046FFF7C5
:1008100039FF03B030BD000038B50546FFF718FFBB
:10082000044630B900F00EFA092303604FF0FF30A0
:1008300038BD013D012D09D8094B9A681B699A42C0
:1008400004D14FF0FF3303600020F1E72068FFF789
:10085000D5FF0028ECD14FF0FF332360E8E700BF5D
:10086000080400200D4A0346116810B509B90C4967
:1008700011601068694603448B4206D809490A4C46
:100880000968A14208D08B4206D900F0DBF90C239D
:1008900003604FF0FF3010BD1360FCE7F803002049
:1008A0000807002088010020ADDEFECA70B50C46A6
:1008B000FFF7CEFE054630B900F0C4F90923036006
:1008C0004FF0FF3070BD63680C2643F40053636043
:1008D0004FF48063A36430462946ABBE05462846E4
:1008E000FFF7D0FE431C1CBF20610020EAE70B4647
:1008F0005822002110B504461846FFF7A1FE014614
:100900002046BDE81040FFF7D1BF38B50D4604467C
:10091000582200212846FFF793FE2046002100F0D0
:1009200011F8431C04460BD06B68294643F401437D
:100930006B60FFF7BBFF054620462C46FFF76CFFB8
:10094000204638BD2B4B2DE9F043814697B00F462A
:1009500000251E4653F83540611C36D00135142D54
:10096000F8D100F06FF918234FF0FF3403603CE03A
:10097000C7F3004440F20163BA074846CDF800903F
:1009800048BF44F002041F4218BF44F004043B0770
:1009900044BF24F0040444F0080400F0FEFACDE95A
:1009A0000140012420464146ABBE0446002C07DB33
:1009B00046F83540002306EBC5062C46736014E06C
:1009C0002046FFF76FFE04460FE007F42063E84679
:1009D000B3F5206FCCD141464846FFF796FF013072
:1009E000C6D000F02FF911230360204617B0BDE8F0
:1009F000F08300BF080400202DE9F74306461546A2
:100A00000F462A480021FFF79DFF04462A46002191
:100A10003046FFF715FE631C16D020464FF00C0938
:100A2000FFF716FE804648464146ABBE804640462C
:100A3000FFF728FE032802DDC31EAB4208DC204678
:100A40004FF0FF34FFF7E8FE204603B0BDE8F08327
:100A5000042220460DEB0201FFF742FE0328EEDDE3
:100A60009DF80430532BEAD19DF80530482BE6D190
:100A70009DF80630462BE2D19DF80730422BDED19F
:100A8000012239462046FFF747FE0028D7DB2A46D9
:100A900031462046FFF724FE05462046FFF7BCFE00
:100AA0002846FFF7EFFD0446CEE700BF38410000BF
:100AB00037B500210122094D01A8094C29602260A7
:100AC000FFF79AFF002807DD9DF8043003F00102CC
:100AD00003F002032A60236003B030BD8C010020C4
:100AE0009001002010B5044C2268002A01DAFFF7BB
:100AF000DFFF206810BD00BF8C01002010B5044C42
:100B00002268002A01DAFFF7D3FF206810BD00BF7A
:100B1000900100202DE9F04F032385B0DFF8AC9061
:100B200000240DF104080125CDF8049003930294EC
:100B300028464146ABBE0546204A2346204E4FF08C
:100B4000FF311446356042F833100133142BFAD1CB
:100B50001C4DFFF7D3FFD0B14FF0030A0423CDF8AB
:100B600004900127CDF80CA0029338464146ABBE55
:100B70008346154BCDF80490C3F800B00823CDF898
:100B80000CA0029338464146ABBE07462F602B6847
:100B9000013302BF0C4B1B682B60336800262360B7
:100BA0006660FFF7ABFF30B1074B1B68C4E9023644
:100BB0002B68C4E9043605B0BDE8F08F08040020B6
:100BC00000040020FC030020040400204E4100002B
:100BD00070B5FFF73DFD0925044620B900F032F855
:100BE0000560204670BD28462146ABBE0446012C58
:100BF000F7D000F027F8002405461326304621469A
:100C0000ABBE06462E60ECE70146034A4FF0FF30CC
:100C100008B500F003F800BF2600020007B5CDE9D3
:100C20000021FFF75FFF002814BF20241824FFF7DE
:100C300059FF20B16D4620462946ABBE0446009DB3
:100C4000F9E70000014B1868704700BF240100203D
:100C5000002310B504468360818119464366C28132
:100C600008228361C0E90033C0E904335C30FFF738
:100C7000E7FC054B24626362044BA362044BE3620E
:100C8000044B236310BD00BF150F0000370F000099
:100C90006F0F0000930F0000014900F0AFB800BFD4
:100CA000F910000070B54A1E68250E46554305F13F
:100CB000740100F0C5F8044640B1002105F1680256
:100CC000C0E900160C30A060FFF7BAFC204670BDEA
:100CD000014800F0B3B800BF00070020014800F051
:100CE000AEB800BF00070020014800F0A7B800BF61
:100CF000FB060020014800F0A2B800BFFB06002060
:100D000010B50446FFF7F0FFA3691BB1BDE8104022
:100D1000FFF7F0BFC4E9123323652046124B134A94
:100D20001B68A262A34204BF0123A36100F020F864
:100D30006060204600F01CF8A060204600F018F823
:100D400000220421E0606068FFF782FF0122092190
:100D5000A068FFF77DFF02221221E068FFF778FF0D
:100D60000123A361D2E700BF34410000990C0000C9
:100D7000F8B50746FFF7ACFF1E4B1E68B36913B901
:100D80003046FFF7BDFF4836D6E90134013B03D5B5
:100D900033680BB33668F7E7B4F90C50D5B9164B86
:100DA00004F158006566E36000F047F8FFF796FF2E
:100DB0000822294604F15C002560A561C4E90155BB
:100DC000C4E90455FFF73CFCC4E90D55C4E91255CC
:100DD0002046F8BD6834D9E704213846FFF762FFA2
:100DE000044630600028D5D1FFF778FF0C233B6024
:100DF000EEE700BF344100000100FFFF2DE9F8439A
:100E00000646884600F148040027D4E90195B9F167
:100E1000010905D52468002CF7D13846BDE8F883D0
:100E2000AB89012B07D9B5F90E30013303D0294620
:100E30003046C04707436835E9E770477047704759
:100E4000F8B5CD1C064625F0030508350C2D38BF36
:100E50000C25002D01DBA94203D90C2333600020AF
:100E6000F8BD00F097F921490A6814469CB9204F53
:100E70003B6823B92146304600F03CF838602946EB
:100E8000304600F037F8431C23D10C233046336042
:100E900000F086F9E3E723685B1B17D40B2B03D91B
:100EA00023601C44256004E06368A2420CBF0B6011
:100EB0005360304600F074F904F10B00231D20F05C
:100EC0000700C21ACCD01B1AA350C9E72246646897
:100ED000CCE7C41C24F00304A042E3D0211A30461E
:100EE00000F008F80130DDD1CFE700BFA8040020F2
:100EF000AC04002038B50023054D044608462B609D
:100F0000FFF7B0FC431C02D12B6803B1236038BD4E
:100F10000407002010B50C46B1F90E1000F096F948
:100F20000028ABBF636DA3891B1823F48053ACBFAB
:100F30006365A38110BD2DE9F0411F468B890546ED
:100F40000C46DB05164605D502230022B1F90E102A
:100F500000F00EF9A3893246B4F90E10284623F4A6
:100F60008053A3813B46BDE8F04100F01FB810B5A7
:100F70000C46B1F90E1000F0FBF8431CA38915BF15
:100F8000606523F4805343F48053A38118BFA38189
:100F900010BDB1F90E1000F01BB8034613F8012B79
:100FA000002AFBD1181A01387047000038B50446F2
:100FB000064D0846114600222A601A46FFF7FAFB42
:100FC000431C02D12B6803B1236038BD0407002005
:100FD00038B50023054D044608462B60FFF71CFC7E
:100FE000431C02D12B6803B1236038BD04070020E5
:100FF0008A892DE9F041054610070C4658D44B6804
:10100000002B05DC0B6C002B02DC0020BDE8F0811E
:10101000E66A002EF9D0002312F480522F682B606C
:1010200032D0606DA3895A0705D56368C01A636B17
:101030000BB1236CC01A00230246E66A2846216AD7
:10104000B047431CA38906D129681D292CD8294AF9
:10105000CA40D60728D50022D904626022692260DE
:1010600004D5421C01D12B6803B96065616B2F6008
:101070000029CAD004F14403994202D0284600F066
:1010800095F800206063C1E7216A01232846B04734
:10109000411CC7D12B68002BC4D01D2B01D0162BAF
:1010A00001D12F60B1E7A38943F04003A381ADE7ED
:1010B0000F69002FA9D093070E680F600CBF4B6912
:1010C0000023A6EB07088B60B8F1000F9DDD4346B7
:1010D0003A46216A2846A66AB047002806DCA3895A
:1010E0004FF0FF3043F04003A3818FE70744A8EBA4
:1010F0000008E9E70100402038B50B6905460C46B9
:1011000013B90025284638BD18B183690BB9FFF71C
:10111000F7FD144B9C421BD16C68B4F90C30002BCA
:10112000EFD0626ED00704D4990502D4A06DFFF70A
:1011300085FE28462146FFF75BFF636E0546DA070A
:10114000E0D4A3899B05DDD4A06DFFF778FED9E735
:10115000054B9C4201D1AC68DFE7044B9C4208BFC1
:10116000EC68DAE77441000094410000544100004B
:1011700038B50446064D0846114600222A601A4634
:10118000FFF706FB431C02D12B6803B1236038BD77
:10119000040700200148FFF751BE00BFFC060020F5
:1011A0000148FFF74CBE00BFFC06002037B5002900
:1011B00047D051F8043C0C1F0190002BB8BFE41835
:1011C000FFF7E8FF204A01981368154633B96360BA
:1011D000146003B0BDE83040FFF7E2BFA3420BD973
:1011E00021686218934202BF1A685B6852186360F4
:1011F00008BF22602C60ECE71A465B680BB1A34283
:10120000FAD911685518A5420BD124682144541805
:101210001160A342DDD11C685B68214453601160FA
:10122000D7E702D90C230360D3E7256861198B4205
:1012300002BF19685B684919636008BF2160546088
:10124000C7E703B030BD00BFA804002038B504468E
:10125000064D0846114600222A601A46FFF740FA5A
:10126000431C02D12B6803B1236038BD0407002062
:1012700080B584B000AFF860B9607A60F8687B68C8
:10128000BA68002101F05CFC034618461037BD46E1
:1012900080BD000080B59CB000AF1E4802F0FEFA91
:1012A0001D491E4800F064FD034687F863300122A3
:1012B0001B491C4801F0F4FEFF2387F86F30002320
:1012C000BB6600237B667B6E5B2B11DC97F86F306F
:1012D000184601F06DFC034687F86F303A1D7B6EAF
:1012E000134497F86F201A707B6E01337B66EAE730
:1012F0003B1D5C2219460B48FFF7BAFFBB6E01335A
:10130000BB66BB6EDBB2002BDBD1B96E064802F0C8
:101310003FFAD6E73C420000F4410000D00500202F
:10132000F0050020740600205042000080B483B015
:1013300000AF7860396000BF0C37BD465DF8047BB4
:10134000704780B500AF4FF6FF710120FFF7EEFF49
:1013500080BD000080B483B000AF0346FB7197F9F5
:101360000730002B0BDBFB7903F01F02074997F9CD
:1013700007305B09012000FA02F241F8232000BF88
:101380000C37BD465DF8047B704700BF00E100E00C
:1013900080B483B000AF0346FB7197F90730002B90
:1013A0000CDBFB7903F01F02074997F907305B0953
:1013B000012000FA02F2603341F8232000BF0C370D
:1013C000BD465DF8047B704700E100E080B483B067
:1013D00000AF03463960FB7197F90730002B0ADB39
:1013E0003B68DAB20C4997F907305201D2B20B448C
:1013F00083F800230AE03B68DAB20849FB7903F07E
:101400000F03043B5201D2B20B441A7600BF0C37D3
:10141000BD465DF8047B704700E100E000ED00E0B0
:10142000F0B587B002AF786039607B68002B31D0AF
:101430003B68002B2EDD0023FB60FA683B689A4274
:1014400029DAFB681B017A6813441868FB681B01E2
:101450007A6813445C68FB681B017A6813449D68D2
:10146000FB681B017A6813441E7BFB681B017A68CA
:1014700013445B7BFA68120179680A44927B0192FB
:10148000009333462A46214602F06AF8FB6801338E
:10149000FB60D2E700BF1437BD46F0BD80B483B017
:1014A00000AF03463960FB713B685AB297F90730C9
:1014B00013405BB2DBB218460C37BD465DF8047BC7
:1014C000704780B584B000AF78600B46FB707B68D6
:1014D000FB60FB78FB72FB7A4FF6FF711846FFF753
:1014E000DDFF0346BB72FB680022C3E88F2F00BFFD
:1014F00000BF1037BD4680BD80B582B000AF7860B8
:1015000005217868FFF7DDFF00BF0837BD4680BDC5
:1015100080B483B000AFEFF310833B603B687B6027
:1015200072B600BF7B6818460C37BD465DF8047B79
:10153000704780B485B000AF78607B68FB60FB6863
:1015400083F3108800BF00BF1437BD465DF8047BED
:10155000704790B58DB000AF786039603B681B680C
:10156000FB620023BB6200237B62FB6A5B683B6219
:101570003B6AD3F84431FB77FB7F002B07D0FB6A33
:101580005B680122DA623B6A0022C3F844213B6AAD
:10159000D3F80831002B14BF01230023DBB2002B4A
:1015A00003D03B6A0022C3F80821FB6A5B68D3F8CA
:1015B0001031002B14BF01230023DBB2002B46D0D7
:1015C000FB6A5B680022C3F81021FB6A9B689B6F73
:1015D000184601F0FCF8B861BB69002B05D0FB6A26
:1015E00093F88C20BB691A7006E0FB6A9B68D3F8FD
:1015F00098200132C3F89820FB6A9B68002283F888
:10160000A020FB6A5B680122C3F83825FB6A03F15E
:101610008C02FB6A5B68C3F83425FB6A5B680122B5
:101620001A60FB6A9B681B6F002B10D0FB6A9B68DB
:101630009B6F184601F0FFF9B862FB6A9B681C6F4C
:10164000FB6A9868BB6A00220121A04778623B6A66
:10165000D3F81C31002B14BF01230023DBB2002B75
:1016600005D03B6A0022C3F81C2100237B62FB6A81
:101670005B68D3F82031002B05D1FB6A5B68D3F897
:101680005831002B01D0012300E00023002B50D063
:10169000FB6A5B680022C3F82021FB6A5B680022BA
:1016A000C3F858211023FB60FB6A9B68DB6F07F1CE
:1016B0000C021146184601F023F878617B69002B73
:1016C0001CD0FB6A9B68002283F8A120FB6A7C3354
:1016D000FA687969184602F04DF8FA68FB6A5B68A7
:1016E000C3F84825FB6A03F17C02FB6A5B68C3F818
:1016F0004425FB6A5B6801229A6004E0FB6A9B68F0
:10170000012283F8A120FB6A9B681B6F002B10D07D
:10171000FB6A9B68DB6F184601F05DF9B862FB6AF3
:101720009B681C6FFB6A9868BB6A00220221A04775
:10173000B8623B6AD3F82431002B14BF0123002385
:10174000DBB2002B20D03B6AD3F880343B613B6A8C
:101750000022C3F824213B6AD3F880243B6AC3F8F3
:1017600080240023BB62FB6A9B681B6F002B08D0A0
:10177000FB6A9B681C6FFB6A9868BB6A00220321A6
:10178000A0473B6A01221A603B6AD3F80031002B64
:1017900014BF01230023DBB2002B20D03B6A0022C0
:1017A000C3F80021FB6A9B68D3F88020FB6A9B6822
:1017B00022F08002C3F88020FB6A9B681B6F002B1D
:1017C0000DD00023FB720123BB62FB6A9B681C6F78
:1017D000FB6A986807F10B02BB6A0321A0473B6ACA
:1017E000D3F80431002B14BF01230023DBB2002BFC
:1017F00020D03B6A0022C3F80421FB6A9B68D3F81F
:101800008020FB6A9B6842F08002C3F88020FB6A5C
:101810009B681B6F002B0DD08023BB720123BB6222
:10182000FB6A9B681C6FFB6A986807F10A02BB6A37
:101830000321A04700BF3437BD4690BD80B483B0BC
:1018400000AF78607B681B689B685B6818460C3744
:10185000BD465DF8047B704780B487B000AF786008
:1018600039607B681B68FB6000237B6100233B6160
:101870003B690F2B1ADC114A3B6952F833301A4688
:101880003B6893420ED80D4A3B69DB0013445A680B
:10189000FB685B68C3F82425084A3B6952F833307B
:1018A0007B6103E03B6901333B61E1E77B691846FB
:1018B0001C37BD465DF8047B704700BF58420000EE
:1018C00080B483B000AF78603960012318460C37CC
:1018D000BD465DF8047B704780B58AB000AFF86004
:1018E000B9607A60FB681B683B6200237B62FFF78C
:1018F0000FFEF8617B68002B23D07B687B613B6A1D
:101900009B689B6F07F114021146184600F0F8FE21
:10191000B861BB69002B13D07B691A46B969B868F6
:1019200001F028FF7B697A6A13447B627B691A465F
:10193000BB681344BB607B697A68D31A7B60D9E7C4
:1019400000BFF869FFF7F5FD3B6A9B6893F8A0308C
:10195000DBB2002B14D03B6A9B68002283F8A020E6
:101960003B6A5B680122C3F838253B6A03F18C02AD
:101970003B6A5B68C3F834253B6A5B6801221A60E6
:101980007B6A18462837BD4680BD80B483B000AF5F
:10199000786000BF0C37BD465DF8047B704780B4AB
:1019A00083B000AF78603960012318460C37BD461C
:1019B0005DF8047B704780B58CB000AFF860B9600B
:1019C0007A60FB681B687B620023FB62FB681B6913
:1019D000BB627B68002B06DDBB6A5A1EBA62002B15
:1019E00001DD012300E00023002B63D0FFF790FD11
:1019F00038627B68002B23DD7B687B617B6A9B6898
:101A0000DB6F07F114021146184600F043FFF8613E
:101A1000FB69002B13D07B691A46B968F86901F09D
:101A2000A9FE7B697A68D31A7B607B691A46BB681A
:101A30001344BB607B69FA6A1344FB62D9E700BFB9
:101A4000386AFFF776FD7B6A9B6893F8A130DBB2BA
:101A5000002BBED0FB685B7E012BBAD110233B610B
:101A60007B6A9B68DB6F07F110021146184600F095
:101A700047FEB861BB69002BABD07B6A9B68002234
:101A800083F8A1207B6A7C333A69B969184601F072
:101A900071FE3A697B6A5B68C3F848257B6A03F18B
:101AA0007C027B6A5B68C3F844257B6A5B68012221
:101AB0009A608EE7BB6A002B0CDC7B6A9B68D3F8CC
:101AC0009C207968FB6ACB1A19467B6A9B680A449A
:101AD000C3F89C20FB6A18463037BD4680BD80B4F1
:101AE00083B000AF786000BF0C37BD465DF8047B63
:101AF000704780B485B000AF78607B681B68FB607E
:101B0000FB685B68BB60BB6801225A60BB6801224E
:101B1000DA60BB684FF0FF32C3F81425BB684FF0A2
:101B2000FF32C3F80C25BB684FF0FF32C3F808251D
:101B3000BB684FF0FF32C3F81025BB680022C3F822
:101B4000002500BF1437BD465DF8047B704780B5A3
:101B500084B000AF78607B681B68FB60FB689B68A3
:101B60000022C3F88C20FB689B680022C3F89020F9
:101B7000FB689B680022C3F89420FB689B680022E6
:101B8000C3F89820FB689B680022C3F89C20FB6880
:101B90009B68DB6F184600F000FF7B685B7E012BC3
:101BA00031D1FB685B68FA68D268C3F81425FB681A
:101BB0005B68FA681269C3F80C25FB685B68FA6811
:101BC0005269C3F81025FB685B68FA689269C3F82C
:101BD0000825FB685B68D3F80025FB685B6842F06A
:101BE0000802C3F80025FB6803F18C02FB685B6800
:101BF000C3F83425FB685B680022C3F81021FB683A
:101C00005B6801221A60FB689B68012283F8A120AF
:101C100000BF1037BD4680BD80B584B000AF78608E
:101C20007B681B68FB60FB685B68BB60BB6803F696
:101C3000FC731B68BB6803F6FC731A460123136030
:101C4000BB6803F6FC731A4600231360FB685B69EC
:101C5000B3F1FF3F0BD0FB685B695B091A46FB6879
:101C60005B6903F01F031946104601F0CDFCFB68C9
:101C70009B69B3F1FF3F0BD0FB689B695B091A4678
:101C8000FB689B6903F01F031946104601F0BCFC7A
:101C9000FB68DB68B3F1FF3F0BD0FB68DB685B09D7
:101CA0001A46FB68DB6803F01F031946104601F073
:101CB000ABFCFB681B69B3F1FF3F0BD0FB681B69F2
:101CC0005B091A46FB681B6903F01F03194610469F
:101CD00001F09AFC00BF1037BD4680BD80B485B0CE
:101CE00000AF78607B685B6803F26453FB607B68DD
:101CF0005B6803F5AD63BB60BB681B68012B0CBF61
:101D000001230023DBB2002B03D07B685B68012238
:101D1000DA60FB681B68012B0CBF01230023DBB2D8
:101D2000002B1FD07B685B680F22C3F800257B68FF
:101D30005B6801225A60FB681B68002B14BF0123FB
:101D40000023DBB2002B00D0F5E77B685A687B6884
:101D50005B68D2F88024C3F880247B685B6800222B
:101D6000C3F8002500BF1437BD465DF8047B7047FB
:101D700080B58CB000AF786039607B68002B02D0F2
:101D80003B68002B02D1002300F021BC3B685B685C
:101D9000002B03D03B689B68002B02DC002300F083
:101DA00016BC3B681B68002B03DB3B681B68032BDE
:101DB00002DD002300F00BBC3B681B68FB6292490C
:101DC000FA6A1346DB0013441B010B4404331B68FF
:101DD000BB62BB6A03F6FC731B68BB6A03F6FC7349
:101DE0001A46012313603B681B6B002B12D03B6823
:101DF000DB6A002B0EDD3B68186B3B68DB6A19461B
:101E00003B6893F82830012200F008FC02467B680A
:101E10009A6712E0FA6A1346DB0013441B01183379
:101E2000794A1344181D3B6893F828300122302169
:101E300000F0F4FB02467B689A673B689B6B002BC3
:101E400012D03B685B6B002B0EDD3B68986B3B68E8
:101E50005B6B19463B6893F82830012200F0DEFBEB
:101E600002467B68DA6712E0FA6A1346DB00134425
:101E70001B014833644A1344181D3B6893F828300B
:101E80000122302100F0CAFB02467B68DA673B681A
:101E90005B687B627B6A10331A687B6A10335B680D
:101EA0003A62FB613B6A03F08003002B05D00122FC
:101EB000FB699A40554B9A6004E00122FB699A4005
:101EC000534B9A6000BF3B689B681946786AFFF7DE
:101ED000A7FAFA6A1346DB0013441B014A4A1A4464
:101EE0007B681A624849FA6A1346DB0013441B01F7
:101EF0000B4408337A681A607B68012283F8392022
:101F00007B6A5B6803F01F027B6A1B685B011343FB
:101F100018463D49FA6A1346DB0013441B010B4483
:101F20000C3318607B6A10335B6803F01F027B6A16
:101F300010331B685B01134318463349FA6A134692
:101F4000DB0013441B010B44103318602E49FA6A5E
:101F50001346DB0013441B010B44043319682A4861
:101F6000FA6A1346DB0013441B0103440C331B685D
:101F7000C1F814352449FA6A1346DB0013441B01E7
:101F80000B44043319682048FA6A1346DB001344F3
:101F90001B01034410331B68C1F80C351A49FA6A57
:101FA0001346DB0013441B010B4404331B68D3F8B6
:101FB0006C151548FA6A1346DB0013441B010344F1
:101FC00004331B6821F01C02C3F86C253B6893F9AD
:101FD0001430B3F1FF3F1DD10B49FA6A1346DB0001
:101FE00013441B010B44043319680748FA6A13466B
:101FF000DB0013441B01034404331B68D1F86C2538
:10200000C3F86C251EE000BF940100200025844029
:10201000002584508349FA6A1346DB0013441B01F0
:102020000B4404331B68D3F86C157E48FA6A1346D8
:10203000DB0013441B01034404331B6841F00E0210
:10204000C3F86C257B6803F120023B68DB68194606
:102050001046FFF701FC03461A467B685A60BB6ACC
:102060000022C3F80821BB6A0022C3F81C21BB6A06
:102070000022C3F82421BB6A0022C3F84421BB6AB2
:10208000D3F88024BB6AC3F88024BB6A0022C3F85B
:1020900000217B6893F83930012B23D16149FA6A1A
:1020A0001346DB0013441B010B4404331B6800225E
:1020B000C3F84C215B49FA6A1346DB0013441B0149
:1020C0000B4404331B680022C3F850215549FA6AB7
:1020D0001346DB0013441B010B4404331B6800222E
:1020E000C3F858213B681B7F022B40F0A1804D496B
:1020F000FA6A1346DB0013441B010B4404331B68CC
:10210000D3F86C154748FA6A1346DB0013441B01E9
:10211000034404331B6841F00102C3F86C257B6A59
:1021200020335B6803F01F027B6A20331B685B016E
:10213000134318463B49FA6A1346DB0013441B015C
:102140000B44143318607B6A30335B6803F01F0262
:102150007B6A30331B685B01134318463149FA6AC6
:102160001346DB0013441B010B44183318602D4940
:10217000FA6A1346DB0013441B010B44043319684D
:102180002848FA6A1346DB0013441B010344143346
:102190001B68C1F810352349FA6A1346DB00134463
:1021A0001B010B44043319681E48FA6A1346DB000E
:1021B00013441B01034418331B68C1F808357B6ABC
:1021C00020331A687B6A20335B683A61FB603B69A5
:1021D00003F08003002B05D00122FB689A40124BCC
:1021E000DA6004E00122FB689A40104BDA6000BF1D
:1021F0007B6A30331A687B6A30335B68BA617B6113
:10220000BB6903F08003002B05D001227B699A4053
:10221000054BDA6054E001227B699A40034BDA6097
:102220004EE000BF9401002000258440002584502A
:10223000B649FA6A1346DB0013441B010B4404330E
:102240001B68D3F86C15B148FA6A1346DB001344D7
:102250001B01034404331B6821F00102C3F86C2501
:10226000AA49FA6A1346DB0013441B010B440433EA
:102270001B684FF0FF32C3F80825A449FA6A1346D9
:10228000DB0013441B010B4404331B684FF0FF3287
:10229000C3F810259D49FA6A1346DB0013441B015D
:1022A0000B4414334FF0FF321A609849FA6A134610
:1022B000DB0013441B010B4418334FF0FF321A604C
:1022C0009249FA6A1346DB0013441B010B4408339E
:1022D0001B68002283F8A0208C49FA6A1346DB00B1
:1022E00013441B010B4408331B68012283F8A1200F
:1022F0008649FA6A1346DB0013441B010B4408337A
:102300001B680022C3F88C208049FA6A1346DB0060
:1023100013441B010B4408331B680022C3F89020B0
:102320007A49FA6A1346DB0013441B010B44083355
:102330001B680022C3F894207449FA6A1346DB0034
:1023400013441B010B4408331B680022C3F8982078
:102350006E49FA6A1346DB0013441B010B44083331
:102360001B680022C3F89C207B68072283F8382072
:102370003B681A697B689A603B681A7F7B681A75AC
:102380003B689A697B681A613B6893F83F207B68D9
:102390001A763B6893F83E207B68DA753B6893F8C1
:1023A0003D207B689A753B681A6C7B68DA613B68F4
:1023B00093F914207B681A733B685A7F7B685A75BF
:1023C0003B685A6A7B681A677B68514ADA637B68A4
:1023D000504A1A647B68504A5A647B684F4A9A6430
:1023E0007B684F4ADA647B684E4A1A657B684E4ABE
:1023F0005A657B684D4A9A657B684D4ADA657B6809
:102400004C4A5A667B6864221A637B684A4ADA66D9
:102410007B6834330121184600F0E0F87B682C33E8
:102420001846FFF769F8FA6A1346DB0013441B01EC
:10243000364A13441846FFF751FC7B6893F839304D
:10244000012B43D13149FA6A1346DB0013441B01C7
:102450000B4404331B680822C3F800252B49FA6A91
:102460001346DB0013441B010B4404331B68012299
:10247000C3F83825FA6A1346DB0013441B0188337E
:10248000224A1344181D2149FA6A1346DB001344FB
:102490001B010B4404331B680246C3F834251B4957
:1024A000FA6A1346DB0013441B010B4404331B6818
:1024B0000022C3F810211549FA6A1346DB001344C1
:1024C0001B010B4404331B6801221A60BB6A4FF0E6
:1024D000FF32C3F808233B685B7F002B76D03B6854
:1024E00018687B682033154A194601F0D3F87B68D9
:1024F00093F83930012B26D10449FA6A1346DB00E0
:1025000013441B010B4404331B6819E094010020A1
:10251000F31A00004F1B00003D180000591800007E
:10252000C1180000D91800008B1900009F19000085
:10253000B7190000DF1A0000191C00005315000035
:10254000254AC3F80423FB6A032B3FD801A252F8A3
:1025500023F000BF652500007F25000099250000BD
:10256000B32500000820FEF713FF3B681B6A1946DD
:102570000820FEF72BFF0820FEF7ECFE26E00920DE
:10258000FEF706FF3B681B6A19460920FEF71EFF8F
:102590000920FEF7DFFE19E00A20FEF7F9FE3B688E
:1025A0001B6A19460A20FEF711FF0A20FEF7D2FE29
:1025B0000CE00B20FEF7ECFE3B681B6A19460B2073
:1025C000FEF704FF0B20FEF7C5FE00BF01231846EF
:1025D0003037BD4680BD00BF9703020080B586B08E
:1025E00000AF786039607B687B613B683B610523A5
:1025F000FB73FB7B4FF6FF711846FEF74FFF034658
:10260000BB737B693A69C3E8AF2F00BF3B681846CC
:102610001837BD4680BD80B400AFFEE780B487B0F8
:1026200000AFF860B9607A60FB70FB68002B01D1E5
:10263000002323E0FB687B617B69FA781A737B696E
:1026400000221A617B6900221A607B694FF0FF3219
:102650005A607B697A685A617B69BA689A61BB681B
:10266000A3F120027B68B2FBF3F31A467B699A6000
:10267000FB6803F120027B69DA617B6918461C372D
:10268000BD465DF8047B704780B489B000AF7860C8
:102690007B68002B03D07B685B68002B01DA00238A
:1026A00028E07B685B68BB61BB690133FB617B68C9
:1026B0009B68FA699A4201DB0023FB617B681B6817
:1026C000FA699A4202D14FF0FF33FB617B68043311
:1026D0007B61FB69FB60FB681A467B69C3E8AF2F2F
:1026E0007B68DA697B685B69B96901FB03F31344B2
:1026F0003B613B6918462437BD465DF8047B704753
:1027000080B58AB000AF786039603B68002B04D197
:102710007868FFF7B9FF034655E07B68002B07D0C8
:102720007B685B68002B03DB3B681B68002B04D1D4
:102730003B6800221A60002345E03B681B687B620F
:102740007B681B68FB617B685B68BB61BA697B6AFD
:1027500013443B62BA69FB699A420BDA3A6AFB6935
:102760009A4219DB4FF0FF333B62FA69BB69D31A17
:102770007B6211E07B689B683A6A9A420CDBFB69DA
:10278000002B02D14FF0FF3300E000233B627B6857
:102790009A68BB69D31A7B627B6804337B613B6AAE
:1027A000FB60FB681A467B69C3E8AF2F7B68DA6978
:1027B0007B685B69B96901FB03F313443B613B68C8
:1027C0007A6A1A603B6918462837BD4680BD80B4D6
:1027D0008DB000AF78607B68002B01D1002353E0FF
:1027E0007B681A687B685B689A421FD17B681B7B99
:1027F000002B01D0002347E07B685B680133FB625C
:102800007B689B68FA6A9A4201DB0023FB627B6863
:1028100004337B62FB6A3B613B691A467B6AC3E80F
:10282000AF2F7B681B695A1C7B681A617B681B6829
:102830003B623B6A0133BB627B689B68BA6A9A421F
:1028400001DB0023BB627B68FB61BB6AFB60FB684A
:102850001A46FB69C3E8AF2F7B685B68002B09DA77
:102860007B680433BB613B6ABB60BB681A46BB69CB
:10287000C3E8AF2F7B68DA697B685B69396A01FB63
:1028800003F313447B617B6918463437BD465DF81A
:10289000047B704780B58CB000AF786039603B68CE
:1028A000002B04D17868FFF792FF034671E07B6844
:1028B000002B03D03B681B68002B04D13B6800222F
:1028C0001A60002365E07B681A687B685B689A423F
:1028D00014D17B681B7B002B01D0002359E03B689F
:1028E0001B683B6107F1100319467868FFF708FF82
:1028F0007B681B693A691A447B681A613B681B68EC
:10290000FB627B681B687B627B685B683B627A6A00
:10291000FB6A1344BB627A6A3B6A9A420CDD7B68AD
:102920009B68BA6A9A4211DB7B689A687B6AD31A01
:10293000FB620023BB6209E0BA6A3B6A9A4205DB8C
:102940003A6A7B6AD31AFB623B6ABB627B68FB61B3
:10295000BB6AFB60FB681A46FB69C3E8AF2F3B6AA2
:10296000002B09DA7B680433BB617B6ABB60BB6800
:102970001A46BB69C3E8AF2F7B68DA697B685B697D
:10298000796A01FB03F313447B613B68FA6A1A60BE
:102990007B6918463037BD4680BD80B487B000AF34
:1029A00078607B6804337B614FF0FF33FB60FB682A
:1029B0001A467B69C3E8AF2F7B683B610023BB608D
:1029C000BB681A463B69C3E8AF2F00BF1C37BD4642
:1029D0005DF8047B704780B485B000AF7860002359
:1029E000FB607B685B68002B02DA7B689B681CE0FD
:1029F0007B681A687B685B689A4209DD7B689A6825
:102A00007B681B68D21A7B685B681344FB600BE031
:102A10007B681A687B685B689A4205DA7B685A684B
:102A20007B681B68D31AFB60FB6818461437BD46E9
:102A30005DF8047B704780B485B000AF78600023F8
:102A4000FB607B685B68002B01DA002316E07B6883
:102A50005A687B681B689A4206DA7B681A687B684A
:102A60005B68D31AFB6008E07B689A687B685B68E8
:102A7000D21A7B681B681344FB60FB681846143746
:102A8000BD465DF8047B704780B485B000AF7860C8
:102A90000B46FB707B68FB60FB78FB72FB680122D6
:102AA0001146D3E8CF2FC3E8C01F0028F9D1D3B215
:102AB00000BF18461437BD465DF8047B704780B5EB
:102AC00082B000AF786005217868FFF7DDFF03462C
:102AD00018460837BD4680BD80B584B000AF786029
:102AE00039607B680C331846FFF7E9FF0346002B7B
:102AF00001D000230FE07B689B6B396878689847AA
:102B00000346FB73FB7B002B04D17B680C33184618
:102B1000FEF7F2FCFB7B18461037BD4680BD80B542
:102B200082B000AF78607B685B6C786898477B68A0
:102B30000C331846FEF7E0FC00BF0837BD4680BDE9
:102B400080B586B000AFF860B9607A603B607B68A2
:102B5000002B02D03B68002B01DC002324E0002383
:102B60007B61FB681B693B61B968F868FFF7B4FFDC
:102B70000346002B09D0FB68DB6B3A687968F8687C
:102B800098477861F868FFF7CAFF7B69002B06DC7D
:102B90003B695A1E3A61002B01DD012300E000234E
:102BA000002B00D0E0E77B6918461837BD4680BD92
:102BB00080B485B000AF0346FB71FB799B09DAB2A4
:102BC000FB795B09DBB25340DBB203F00103FB731B
:102BD000FB795B005AB297F90F3013435BB2DBB25B
:102BE00003F07F03DBB218461437BD465DF8047B63
:102BF000704780B584B000AF78607B681B68FB606D
:102C0000FB681B6D002B06D0FB681B6DDB69FA6847
:102C1000126D1046984700BF1037BD4680BD80B585
:102C200084B000AF78607B681B68FB60FB681B6D3D
:102C3000002B06D0FB681B6D1B6AFA68126D1046EC
:102C4000984700BF1037BD4680BD80B584B000AF47
:102C500078607B681B68FB60FB681B6D002B08D0ED
:102C6000FB681B6D5B6AFA68126D10469847034655
:102C700000E0002318461037BD4680BD80B584B003
:102C800000AF786039607B681B68FB60FB681B6D78
:102C9000002B09D0FB681B6D9B6AFA68126D3968BE
:102CA00010469847034600E0002318461037BD46FB
:102CB00080BD80B584B000AF786039607B681B68E8
:102CC000FB60FB681B6D002B09D0FB681B6DDB6A8A
:102CD000FA68126D396810469847034600E00023F1
:102CE00018461037BD4680BD80B588B000AFF8608B
:102CF000B9607A60FB681B68BB610023FB61BB693C
:102D0000002283F858207B68002B45DDBB691B6DD2
:102D10001B6BBA69106D0122B96898470346002BF6
:102D2000CCBF01230023DBB2002BECD0BB681B78A7
:102D3000C02B04D1BB69012283F858202CE0BB686A
:102D40001B78DB2B1ED1BB691B6D1B6BBA69106D29
:102D500007F11701012298470346002BD4BF012336
:102D60000023DBB2002B00D0EDE7FB7DDC2B03D191
:102D7000BB68C0221A7005E0FB7DDD2B02D1BB6869
:102D8000DB221A70BB680133BB607B68013B7B6050
:102D9000FB690133FB61B6E7FB6918462037BD4686
:102DA00080BD80B588B000AFF860B9607A60FB681C
:102DB0001B68BB610023FB61BB69002283F85820BC
:102DC000BB681B78DB2B28D1BB691B6D1B6BBA69F9
:102DD000106D07F11701012298470346002BD4BF5D
:102DE00001230023DBB2002B01D0002363E0FB7D35
:102DF000DC2B03D1BB68C0221A7005E0FB7DDD2B04
:102E000002D1BB68DB221A70BB680133BB607B68F0
:102E1000013B7B60FB690133FB617B68002B49DD73
:102E2000BB691B6D1B6BBA69106D0122B9689847AD
:102E30000346002BD4BF01230023DBB2002B03D0B9
:102E4000BB68FF221A7035E0BB681B78C02B04D129
:102E5000BB69012283F858202CE0BB681B78DB2B70
:102E60001DD1BB691B6D1B6BBA69106D07F1170192
:102E7000012298470346002BD4BF01230023DBB275
:102E8000002B16D1FB7DDC2B03D1BB68C0221A704E
:102E900005E0FB7DDD2B02D1BB68DB221A70BB682D
:102EA0000133BB607B68013B7B60FB690133FB61E5
:102EB000B3E700BFFB6918462037BD4680BD80B52B
:102EC00084B000AF78607B681B68FB60FB681B6D9B
:102ED000002B06D0FB681B6D5B6BFA68126D104609
:102EE000984700BF1037BD4680BD80B584B000AFA5
:102EF000786039607B681B68FB60FB681B6D002B8A
:102F000009D0FB681B6D9B6BFA68126D396810461F
:102F10009847034600E0002318461037BD4680BDA1
:102F200080B58EB000AFF860B9607A60FB681B684E
:102F30003B6200237B63DB23BB823B6A1B6D002B60
:102F40007DD0BB683B630023FB627B68002B62DDA6
:102F50003B6B1B78C02B1FD1DC237B7507F114035F
:102F6000BB620223FB62FB6A002B4ADD3B6A1B6DDE
:102F7000DB6B3A6A106DFA6AB96A9847B861BB6947
:102F8000BA6A1344BB62FA6ABB69D31AFB627A6BF2
:102F9000BB6913447B63E6E73B6B1B78DB2B1FD1DC
:102FA000DD237B7507F114037B620223FB62FB6A5E
:102FB000002B26DD3B6A1B6DDB6B3A6A106DFA6AEB
:102FC000796A9847F861FB697A6A13447B62FA6A06
:102FD000FB69D31AFB627A6BFB6913447B63E6E7F8
:102FE0003B6A1B6DDB6B3A6A106D0122396B9847A7
:102FF0000346002BD4BF01230023DBB2002B00D0FB
:10300000EEE77B68013B7B603B6B01333B637B6B93
:1030100001337B6399E7C0233B753B6A1B6DDB6B18
:103020003A6A106D07F11401012298470346002BFC
:10303000D4BF01230023DBB2002B00D0EDE77B6B74
:1030400018463837BD4680BD80B584B000AF786083
:103050007B681B68FB60FB681B6D002B06D0FB6860
:103060001B6D5B6CFA68126D1046984700BF1037F5
:10307000BD4680BD80B584B000AF78607B681B68BA
:10308000FB60FB681B6D002B06D0FB681B6DDB6CC7
:10309000FA68126D1046984700BF1037BD4680BDD4
:1030A00080B584B000AFF860B9601346FB71FB686F
:1030B000002B02D0BB68002B01D100234FE0FB683E
:1030C000FA681A60FB68BA681A65FB6800225A65DC
:1030D000FB68002283F85820FB6805221A76FB68FB
:1030E000214ADA61FB68214A1A62FB68204A5A6267
:1030F000FB68204A9A62FB681F4ADA62FB79012B5F
:1031000003D1FB681D4A1A6302E0FB681C4A1A637C
:10311000FB681C4A5A63FB681B4A9A63FB681B4A9C
:10312000DA63FB681A4A5A64FB6800225A60FB683B
:1031300000229A60FB6800221A61FB6800225A761E
:10314000FB68144ADA64FB68143301211846FFF760
:1031500045FAFB680C331846FEF7CEF901231846F2
:103160001037BD4680BD00BFF32B00001F2C0000B0
:103170004B2C00007D2C0000B32C0000E92C00003B
:10318000A32D0000BF2E0000EB2E0000212F000019
:10319000493000007530000080B400AFBFF34F8F9E
:1031A00000BF064BDB6803F4E0620449044B1343A1
:1031B000CB60BFF34F8F00BF00BFFDE700ED00E025
:1031C0000400FA0580B483B000AF0E4B1B687B602F
:1031D0000D4B1B683B607B68092B0CD13B68012BB6
:1031E00003D03B68022B02D003E0012304E001235B
:1031F00002E0012300E0002318460C37BD465DF8CD
:10320000047B70473001FF003401FF0080B483B0BD
:1032100000AF0E4B1B687B600D4B1B683B607B68EF
:10322000092B0CD13B68012B03D03B68022B02D049
:1032300003E0012304E0002302E0002300E0002378
:1032400018460C37BD465DF8047B70473001FF001F
:103250003401FF0080B483B000AF0E4B1B687B606D
:103260000D4B1B683B607B68092B0CD13B68012B25
:1032700003D03B68022B02D003E0002304E00123CB
:1032800002E0012300E0002318460C37BD465DF83C
:10329000047B70473001FF003401FF0080B483B02D
:1032A00000AF0E4B1B687B600D4B1B683B607B685F
:1032B000092B0CD13B68012B03D03B68022B02D0B9
:1032C00003E0012304E0002302E0002300E00023E8
:1032D00018460C37BD465DF8047B70473001FF008F
:1032E0003401FF0080B483B000AF0E4B1B687B60DD
:1032F0000D4B1B683B607B68092B0CD13B68012B95
:1033000003D03B68022B02D003E0012304E0012339
:1033100002E0012300E0002318460C37BD465DF8AB
:10332000047B70473001FF003401FF0080B400AF20
:10333000034B044A1A6000BFBD465DF8047B70472A
:10334000D80300200090D00380B582B000AFFFF713
:1033500039FF0346002B09D04FF050230022C3F859
:1033600014214FF050230022C3F81821FFF74EFF1D
:103370000346002B06D05E4B01221A605D4B0122F2
:10338000C3F87825FFF766FF0346002B03D0594B9F
:103390000122C3F87825FFF781FF0346002B02D0F6
:1033A000554B0E221A60FFF79DFF0346002B05D0F8
:1033B000524B00221A60524B01221A6000237B609C
:1033C00000237B6011E04FF47F024FF47F017B68A4
:1033D000603351F8333019467B686033DB001344A7
:1033E0005B680B607B6801337B607B68FF2B08D8D0
:1033F0004FF47F027B68603352F83330B3F1FF3F04
:10340000E1D100F09BF80346002B04D100F084F8D2
:103410000346002B4FD000BF3A4BD3F80034012BAA
:10342000FAD1384B0122C3F8042500BF354BD3F83D
:103430000034012BFAD100F081F80346002B13D0A1
:10344000314BDB69314A1360304B1B6823F00103B9
:103450002F4A13602C4A2E4B1B68D36100BF294BA7
:10346000D3F80034012BFAD100F056F80346002BB4
:1034700015D0254B1B6A254A1360244B1B6823F08B
:10348000FF0343F02003224A13601F4A204B1B68AE
:10349000136200BF1B4BD3F80034012BFAD1194B38
:1034A0000022C3F8042500BF164BD3F80034012BCB
:1034B000FAD1FFF771FE174BD3F88C30154A43F45D
:1034C0004063C2F88C30134BD3F88830114A43F470
:1034D0007003C2F88830BFF34F8F00BFBFF36F8F08
:1034E00000BFFFF723FF00BF0837BD4680BD00BF08
:1034F000384A005000400050E4AE03500C470050E2
:1035000010470050009003500080FF00D0060020BC
:10351000D406002000ED00E080B400AF064B1B6A2B
:10352000B3F1FF3F01D1012300E000231846BD465F
:103530005DF8047B704700BF0080FF0080B400AFDF
:10354000064BDB6903F00103002B01D0012300E0EF
:1035500000231846BD465DF8047B70470080FF00DD
:1035600080B487B000AFF860B9607A60FB70002368
:103570007B61234B3B61FB6803F08003002B01D090
:10358000204B3B61FB68B3F1FF3F32D0BB68B3F126
:10359000FF3F2ED0FB78012B03D17B6943F003035F
:1035A0007B6197F82030032B14D801A252F823F046
:1035B000D5350000C1350000CB350000C135000015
:1035C0007B6943F00C037B6104E07B6943F00403F7
:1035D0007B6100BF97F82430012B03D17B6943F452
:1035E000C0637B613B69BA688032796943F8221015
:1035F00000E000BF1C37BD465DF8047B704700BF8C
:10360000002584500025844080B485B000AF7860E8
:1036100039600F4BFB607B6803F08003002B01D007
:103620000C4BFB607B68B3F1FF3F0AD03B68B3F102
:10363000FF3F06D0FB683A688032022143F822102F
:1036400000E000BF1437BD465DF8047B704700BF43
:10365000002584500025844080B483B000AF034629
:10366000FB7197F90730002B0CDBFB7903F01F028D
:10367000074997F907305B09012000FA02F260332D
:1036800041F8232000BF0C37BD465DF8047B70472E
:1036900000E100E080B485B000AFF860B9607A6006
:1036A000FB68002B0EDBFB68032B0BDC0849FB6877
:1036B000BA6841F83320064AFB68DB0013447A6895
:1036C0005A6000E000BF1437BD465DF8047B7047C8
:1036D000D806002080B500AF074B1B68002B06D032
:1036E000054B5B68044A1268114600209847082081
:1036F000FFF7B2FF00BF80BDD806002080B500AF45
:10370000074B9B68002B06D0054BDB68044A926888
:103710001146012098470920FFF79EFF00BF80BD9A
:10372000D806002080B500AF074B1B69002B06D0E0
:10373000054B5B69044A12691146022098470A202A
:10374000FFF78AFF00BF80BDD806002080B500AF1C
:10375000074B9B69002B06D0054BDB69044A926935
:103760001146032098470B20FFF776FF00BF80BD6E
:10377000D80600200A44431E914200D1704710B57C
:1037800011F8014B914203F8014FF9D110BD00002F
:103790000FB40A4B13B51C6824B1A36913B92046B2
:1037A000FDF7AEFA05AB049AA1682046019300F03C
:1037B000CBF902B0BDE8104004B0704724010020EE
:1037C00070B50E46054618B183690BB9FDF798FA36
:1037D000AB69AC6813B92846FDF792FA2C4B9C42B2
:1037E00020D16C68636EDB0705D4A389980502D4E9
:1037F000A06DFDF723FBA38919071DD52369DBB154
:10380000013EA36816F8011F013BA36039BB002BE2
:1038100038DA22460A21284600F048F8013011D053
:103820000A2511E01B4B9C4201D1AC68DAE71A4B28
:103830009C4208BFEC68D5E72146284600F088F88E
:103840000028DDD04FF0FF35636EDA0705D4A38979
:103850009B0502D4A06DFDF7F2FA284670BD002B3F
:1038600004DAA2699A4206DC0A2904D023685A1CA9
:1038700022601970C5E72246284600F017F801308B
:10388000BFD1DFE723680A255A1C22601D70DBE7E1
:10389000744100009441000054410000024B014675
:1038A0001868FFF78DBF00BF24010020F8B50E4651
:1038B0001446054618B183690BB9FDF721FA214B6F
:1038C0009C422BD16C68A369A360A3891A072FD5EA
:1038D00023696BB32369F6B220683746C01A63695F
:1038E000834204DC21462846FDF706FC30BBA36872
:1038F0000130013BA36023685A1C22601E7063697B
:10390000834204D0A389DB0706D50A2E04D12146C1
:103910002846FDF7F1FB88B93846F8BD0A4B9C42B2
:1039200001D1AC68CFE7094B9C4208BFEC68CAE7FD
:103930002146284600F00CF80028CBD04FF0FF3786
:10394000EAE700BF744100009441000054410000C8
:10395000324B70B51D6806460C4625B1AB6913B9EC
:103960002846FDF7CDF92E4B9C420FD16C68A389F8
:10397000B4F90C2019072CD4DD0611D409233360C7
:1039800042F040034FF0FF30A3813EE0254B9C42C4
:1039900001D1AC68EBE7244B9C4208BFEC68E6E73A
:1039A000580712D5616B41B104F14403994202D02A
:1039B0003046FDF7FBFB00236363A38923F0240358
:1039C000A3810023636023692360A38943F0080374
:1039D000A38123694BB9A38903F42073B3F5007F56
:1039E00003D02146304600F045F8A089B4F90C20F8
:1039F00010F001030AD00023A36063695B42A36156
:103A0000236943B910F08000BAD170BD810758BF57
:103A10006369A360F4E70020F7E700BF24010020FA
:103A200074410000944100005441000070B50E46FE
:103A3000B1F90E1096B0144600291D4607DA00238E
:103A40002B60B3891A0610D44FF480630EE06A46E7
:103A500000F040FB0028F2DB019A02F47042A2F56C
:103A600000535A425A412A60EEE740230020236067
:103A700016B070BD8B8973B59D0706460C4607D5F9
:103A800004F14703236023610123636102B070BD29
:103A900001AB6A46FFF7CAFF009905463046FDF7BD
:103AA000CFF948B9B4F90C309A05EFD423F00303E9
:103AB00043F00203A381E3E70D4BB362A3892060C7
:103AC00043F080032061A381009B6361019B5BB194
:103AD000B4F90E10304600F00FFB28B1A38923F093
:103AE000030343F00103A381A0890543A581CDE72A
:103AF000990C00009368013B002B936010B408DA26
:103B00009469A34201DB0A2903D15DF8044BFFF756
:103B1000CDBE1368581C1060084619705DF8044B40
:103B20007047F8B506460F461446D518AC4201D189
:103B3000002007E03A4614F8011B3046FFF7DAFF91
:103B4000431CF3D1F8BD00002DE9F04F0D469DB0A8
:103B500014469846064618B183690BB9FDF7D0F8AC
:103B6000894B9D421BD175686B6ED90705D4AB8913
:103B70009A0502D4A86DFDF761F9AB891B0701D541
:103B80002B69EBB929463046FFF7E2FEC0B16B6EF8
:103B9000DC070ED54FF0FF301DB0BDE8F08F7B4B3A
:103BA0009D4201D1B568DFE7794B9D4208BFF568BA
:103BB000DAE7AB899805EDD4A86DFDF740F9E9E7A0
:103BC0000023CDF80C804FF00109DFF8C88109937C
:103BD00020238DF8293030238DF82A3023469A4649
:103BE00013F8012B0AB1252AF9D1BAEB040B0BD03B
:103BF0005B46224629463046FFF793FF013000F02E
:103C0000AA80099A5A4409929AF80030002B00F0D1
:103C1000A28000234FF0FF320AF1010A04930793B8
:103C20008DF853301A93CDE905235446052259489F
:103C300014F8011B00F070FA049AD8B9D10644BFF9
:103C400020238DF85330130744BF2B238DF85330B6
:103C50009AF800302A2B15D0079A544600204FF0CE
:103C60000A0C214611F8013B303B092B4ED9B0B16B
:103C7000079214E0A0EB0803A24609FA03F31343EA
:103C80000493D2E7039B191D1B68002B0391BBBF54
:103C90005B4242F0020207930793B8BF0492237875
:103CA0002E2B0CD163782A2B35D1039B02341A1D9D
:103CB0001B68002B0392B8BF4FF0FF330593DFF86A
:103CC000E4A003222178504600F026FA40B14023B8
:103CD000A0EB0A00013403FA00F0049B03430493B1
:103CE00014F8011B06222C488DF8281000F014FA55
:103CF00000283FD0294B1BBB039B073323F007034E
:103D000008330393099B3B44099367E70CFB02329A
:103D10000C460120A5E7002301344FF00A0C194698
:103D20000593204610F8012B303A092A03D9002BBD
:103D3000C5D00591C3E70CFB012104460123F0E740
:103D400003AB2A4604A930460093154B00E000BFA0
:103D50000746781CD6D16B6ED90705D4AB899A0576
:103D600002D4A86DFDF76BF8AB895B063FF512AF87
:103D7000099811E703AB2A4604A930460093084B83
:103D800000F082F8E4E700BF7441000094410000B5
:103D900054410000D8420000E24200000000000050
:103DA000233B0000DE4200002DE9F047164699460D
:103DB0008A6807460B690C46DDF820809342B8BF3D
:103DC0001346336091F843200AB10133336023680E
:103DD000990642BF336802333360256815F0060543
:103DE00006D104F1190AE36832689B1AAB4229DC58
:103DF00094F84320131E226818BF012392062ED484
:103E000004F1430249463846C047013021D02368B7
:103E10001A3454F80E5C03F0060332680026042BB3
:103E200054F8123C08BFAD1A54F80A2C14BF0025F0
:103E300025EAE5759342C4BF9B1AED18B5421AD125
:103E4000002008E00123524649463846C047013069
:103E500003D14FF0FF30BDE8F0870135C3E7E1182B
:103E60005A1C30200233224481F8430094F8451054
:103E700082F84310C4E70123224649463846C0472A
:103E80000130E6D00136D9E72DE9FF470C469146CF
:103E900080469A46277E04F143020C99782F07D872
:103EA000622F0AD8002F00F0D880582F00F0A3808E
:103EB00004F1420684F842703AE0A7F16303152B3F
:103EC000F6D801A050F823F0213F0000353F000054
:103ED000B13E0000B13E0000B13E0000B13E000026
:103EE000353F0000B13E0000B13E0000B13E000091
:103EF000B13E000041400000653F0000234000004B
:103F0000B13E0000B13E000063400000B13E000041
:103F1000653F0000B13E0000B13E00002B400000B4
:103F20000B6804F142061A1D1B680A6084F84230CF
:103F30000123A3E0256808682E0600F104030AD5D2
:103F400005680B60002D03DA2D236D4284F84330A1
:103F50005E480A2319E015F0400F05680B6018BF92
:103F60002DB2EFE70B682568181D0860280601D5FB
:103F70001D6802E06906FBD51D886F2F53480CBFF2
:103F800008230A23002184F843106668002EA660E7
:103F9000A2BF216821F0040121600DB9002E4DD08F
:103FA0001646B5FBF3F103FB1157C75D06F8017D1B
:103FB0002F460D46BB42F4D9082B0BD12368DF07EF
:103FC00008D5236961689942DEBF302306F8013CB9
:103FD00006F1FF36921B22614B4603AA214640465A
:103FE000CDF800A0FFF7E0FE01304CD14FF0FF30DC
:103FF00004B0BDE8F087354884F8457023680E6842
:104000001F0656F8045B0E6014D5D90744BF43F071
:10401000200323601DB9236823F0200323601023AD
:10402000B0E7236843F0200323607823284884F80E
:104030004530E3E75E0648BFADB2E6E71646BBE7AC
:104040000B6826681D1D60690D6035061B6801D56B
:10405000186002E07106FBD5188000231646236124
:10406000BAE70B681A1D0A6000211E6862683046B4
:1040700000F052F808B1801B606063682361002380
:1040800084F84330A8E72369324649464046D04782
:104090000130ABD023689B0713D4E068039B9842A0
:1040A000B8BF1846A4E70123324649464046D047E8
:1040B00001309BD00135E36803995B1AAB42F2DC17
:1040C000EBE7002504F11906F5E700BFE94200001F
:1040D000FA42000038B50023064D04460846114652
:1040E0002B60FCF704FC431C02D12B6803B1236056
:1040F00038BD00BF0407002038B50023054D044635
:1041000008462B60FCF764FD431C02D12B6803B109
:10411000236038BD04070020C9B2024410B59042A4
:10412000034601D1002303E01C7801308C42F6D114
:10413000184610BD280100203A73656D69686F73D9
:1041400074696E672D6665617475726573003A7483
:1041500074000000000000000000000000000000EB
:10416000000000000000000000000000000000004F
:10417000000000000000000000000000000000003F
:10418000000000000000000000000000000000002F
:10419000000000000000000000000000000000001F
:1041A000000000000000000000000000000000000F
:1041B00000000000000000000800000000000000F7
:1041C00000000000000000000700000000000000E8
:1041D00001000000000000000C00000000000000D2
:1041E00000000000000000000B00000000000000C4
:1041F0000100000000000000B441000004000000C5
:104200000008070008000000FF0000000100000097
:10421000000100000100000000000000010000009B
:10422000000000000000000020010000B004002099
:104230000000000000000000000000005541525442
:1042400020536C697020505242532044656D6F00BA
:10425000636E742025750A00B004000000F00400AD
:104260006009000000D00900C012000000B0130077
:1042700080250000005027004038000000F03A0080
:10428000004B000000A04E008070000000C07500D0
:104290000096000000009D0000E100000000EB001F
:1042A000002C010000903A0100C201000000D6017C
:1042B000008403000000B00390D00300000000045D
:1042C000000807000000400700100E000000000F6B
:1042D00040420F0000000010232D302B2000686C9E
:1042E0004C00656667454647003031323334353619
:1042F0003738394142434445460030313233343552
:0B43000036373839616263646566007F
:08430C00CCC1FF7F010000009D
:10431400BD040000431300009904000000000000E5
:104324000000000000000000000000000000000089
:104334000000000000000000000000000000000079
:104344000000000000000000000000000000000069
:104354000000000000000000000000000000000059
:104364000000000000000000000000000000000049
:104374000000000000000000000000000000000039
:104384000000000000000000000000000000000029
:104394000000000000000000000000000000000019
:1043A4000000000000000000000000000000000009
:1043B40000000000000000000000000000000000F9
:1043C40000000000000000000000000000000000E9
:1043D40000000000000000000000000000000000D9
:1043E40000000000000000000000000000000000C9
:1043F40000000000000000000000000000000000B9
:1044040000000000000000000000000000000000A8
:104414000000000000000000000000000000000098
:104424000000000000000000000000001C0000204C
:10443400FF0000002801002000000000744100007B
:1044440094410000544100000000000000000000FE
:104454000000000000000000000000000000000058
:104464000000000000000000000000000000000048
:104474000000000000000000000000000000000038
:104484000000000000000000000000000000000028
:104494000000000000000000ADDEFECAFFFFFFFFC9
:1044A400FFFFFFFF0000000000800050000000003C
:1044B400FFFFFFFFFFFFFFFFFFFFFFFFFFFFFFFF08
:1044C40000000000000000000000000000000000E8
:1044D40000000000000000000000000000000000D8
:1044E40000000000000000000000000000000000C8
:1044F40000000000000000000000000000000000B8
:1045040000000000000000000000000000000000A7
:104514000000000000000000000000000000000097
:104524000000000000000000000000000000000087
:104534000000000001000000009000500000000096
:10454400FFFFFFFFFFFFFFFFFFFFFFFFFFFFFFFF77
:104554000000000000000000000000000000000057
:104564000000000000000000000000000000000047
:104574000000000000000000000000000000000037
:104584000000000000000000000000000000000027
:104594000000000000000000000000000000000017
:1045A4000000000000000000000000000000000007
:1045B40000000000000000000000000000000000F7
:1045C400000000000200000000A0005000000000F5
:1045D400FFFFFFFFFFFFFFFFFFFFFFFFFFFFFFFFE7
:1045E40000000000000000000000000000000000C7
:1045F40000000000000000000000000000000000B7
:1046040000000000000000000000000000000000A6
:104614000000000000000000000000000000000096
:104624000000000000000000000000000000000086
:104634000000000000000000000000000000000076
:104644000000000000000000000000000000000066
:10465400000000000300000000B000500000000053
:10466400FFFFFFFFFFFFFFFFFFFFFFFFFFFFFFFF56
:104674000000000000000000000000000000000036
:104684000000000000000000000000000000000026
:104694000000000000000000000000000000000016
:1046A4000000000000000000000000000000000006
:1046B40000000000000000000000000000000000F6
:1046C40000000000000000000000000000000000E6
:1046D40000000000000000000000000000000000D6
:0C46E40000000000010000000090D00366
:0400000300000411E4
:00000001FF
