:100000000000042095010000890F00008B0F000004
:10001000890F0000890F0000890F00000000000018
:10002000000000000000000000000000890F000038
:10003000890F000000000000890F00008D0F0000F4
:10004000890F0000890F0000610F0000890F000078
:10005000890F0000890F0000890F0000890F000040
:100060000000000000000000000000000000000090
:10007000890F0000890F0000890F0000890F000020
:10008000890F000000000000890F0000890F0000A8
:10009000890F0000890F0000890F0000890F000000
:1000A000890F0000890F0000000000000000000020
:1000B000890F0000890F0000000000000000000010
:1000C000890F0000890F0000890F0000890F0000D0
:1000D00000000000890F0000910F0000890F000050
:1000E000710F0000890F0000890F00000000000060
:1000F00000000000890F000000000000890F0000D0
:1001000000000000000000000000000000000000EF
:1001100000000000000000000000000000000000DF
:1001200000000000000000000000000000000000CF
:1001300000000000000000000000000000000000BF
:1001400000000000000000000000000000000000AF
:10015000000000000000000000000000000000009F
:10016000000000000000000000000000000000008F
:10017000000000000000000000000000000000007F
:10018000000000000000000000000000000000006F
:04019000000000006B
:100194000F481049884208B502D00F4A01F030FBDD
:1001A40000210E4A0E4801F0FDFA01F093F901F026
:1001B40089F90C4B0C4A1B6803F5F40303F59053BF
:1001C400B3FBF2F3094A136000F068F800BEFEE7DF
:1001D40000000020181A000090010000090200002D
:1001E400900100203C0100200024F400380100208C
:1001F400F8B500BFF8BC08BC9E467047F8B500BF10
:10020400F8BC08BC9E4670470348044B834202D0A6
:10021400034B03B118477047900100209001002060
:10022400000000000548064B1B1AD90F01EBA3017F
:10023400491002D0034B03B11847704790010020C6
:10024400900100200000000010B5064C237843B94B
:10025400FFF7DAFF044B13B10448AFF30080012326
:10026400237010BD9001002000000000181A000047
:1002740008B5054B1BB105490548AFF30080BDE83F
:100284000840FFF7CFBF00BF00000000940100202A
:10029400181A0000A3F5803A704700BF174B002BD3
:1002A40008BF134B9D46FFF7F5FF00218B460F4611
:1002B4001348144A121A01F075FA0E4B002B00D0A1
:1002C40098470D4B002B00D09847002000210400D4
:1002D4000D000D48002802D00C48AFF3008001F057
:1002E40069FA2000290000F033F901F027FA00BF71
:1002F40000000800000000000000000000000420CE
:10030400900100209903002000000000000000007C
:1003140008B503681B689847007E08BD036810B5DC
:100324001B689847C36C13B1BDE81040184710BD53
:10033400704720307047C36C20301847836C2030DE
:100344001847436D20301847036E203018470020AB
:100354007047043000F046BC134620300A460021A2
:1003640000F09BBF70B51E4603680C4615461B681B
:10037400984733462A462146BDE8704000F08DBFB9
:1003840010B5044600F0FAFD204610BD1346203097
:100394000A46002100F035BF70B51E4603680C46BE
:1003A40015461B68984733462A462146BDE87040E7
:1003B40000F027BF043000F0CFBD10B5D0F88400A2
:1003C4000C4600F0CCFEA042B4BF0020012010BDBA
:1003D40010B5836E044620309847BFF35B8F00232B
:1003E40084F82C30BFF35B8F10BD2DE9F0411E461D
:1003F400DDE9067803680C4615461B689847CDE985
:10040400067833462A462146BDE8F04100F0DCBFB9
:100414002DE9F0411E46DDE9067803680C461546D1
:100424001B689847CDE9067833462A462146BDE83D
:10043400F04100F071BF10B5BFF35B8F436BBFF3A6
:100444005B8F044600F13402013BBFF35B8F52E83B
:10045400001F42E800300028F9D1BFF35B8F002968
:1004640009DC236C04F120009847BFF35B8F002361
:100474006363BFF35B8F10BD10B4BFF35B8F436B3B
:10048400BFF35B8F00F134020133BFF35B8F52E89B
:10049400001F42E80034002CF9D1BFF35B8F01291F
:1004A40004D1436C5DF8044B203018475DF8044BCD
:1004B400704738B500F12C0204464FF00100BFF339
:1004C4005B8FD2E84F3FC2E8450F002DF9D1BFF34F
:1004D4005B8FDBB20BB1002038BD236D04F120002B
:1004E40098470028F8D1BFF35B8F84F82C00BFF342
:1004F4005B8FF0E710B5836D044620309847BFF357
:100504005B8F002384F82C30BFF35B8F10BD38B5AC
:1005140000F12C0204464FF00100BFF35B8FD2E8D8
:100524004F3FC2E8450F002DF9D1BFF35B8FDBB21B
:100534000BB1002038BDE36D04F12000984700287A
:10054400F8D1BFF35B8F84F82C00BFF35B8FF0E727
:100554002DE9FF411749184800F044FB174B184A8E
:100564001B6853431B430CD0180000BF00BF00BFDF
:1005740000BF00BF00BF00BF00BF00BF00BF013805
:10058400F3DC104FFF25E84600244646284600F0D9
:1005940074FF0134102C08F8010B0546F6D12246ED
:1005A40031463846FFF7D8FE241A002C0644EADD0B
:1005B400F5E700BF1C190000B0010020380100203D
:1005C400A0860100AC01002010B5084C084B204661
:1005D400A822002140F8043B01F0E4F8E467204637
:1005E400044A0549BDE8104001F0A2B8AC0100205E
:1005F400BC1800000C0000203503000003689B6851
:100604005868704730B50A4C0246002354F833004A
:10061400884204EBC30505D313686A685B68C3F8B2
:10062400242530BD0133102BF0D10020F9E700BFA1
:100634008419000001207047704703685B68012239
:100644005A60DA604FF0FF32C3F81425C3F80C2562
:10065400C3F80825C3F810250022C3F80025704705
:1006640003689868704710B504686368D3F8FC2F72
:100674000122C3F8FC2F0022C3F8FC2F6069431C3D
:1006840004D000F01F01400901F046F8A069411CA4
:1006940004D000F01F01400901F03EF8E068421C5C
:1006A40004D000F01F01400901F036F82069431C12
:1006B40006D000F01F01BDE81040400901F02CB83D
:1006C40010BD2DE9F04F1446D0F800B0026985B092
:1006D40005460E4600274FF00109002C5ADD002A7A
:1006E40002F1FF3855DDEFF3108A72B6DBF808200B
:1006F4000394D2F8800003A900F0E0FC48B1039A07
:10070400314601F07DF8039AA41A002C16441744CC
:10071400ECDC8AF31088DBF8082092F8A51011B3FA
:1007240095F819A0D2F88000BAF1000F1DD010235B
:1007340003A9039300F063FC0146A0B1DBF8082091
:1007440000200BF1840A82F8A500039A0192504616
:1007540001F056F8DBF80410019AC1F84825C1F8F5
:1007640044A5C1F808904246B7E7DBF80410C1F885
:100774001CA182F8A59000F027FC0028F3D0DBF838
:10078400082082F8A5A0DBF804200178C2F81C1523
:10079400E9E74246002A07DCDBF80820D2F8A0305B
:1007A400E41B2344C2F8A030384605B0BDE8F08FFE
:1007B4002DE9F34706460F4615460468EFF3108A01
:1007C40072B64FF00009A5B1A368019501A9D86FCD
:1007D40000F015FC014620BB737E53B1A368D86FAB
:1007E40000F0D3FC002804DCE36913B16368012240
:1007F4005A608AF31088A36893F8A4206AB1757EBE
:10080400D5B1002283F8A42063680422C3F83825F4
:1008140080340122C3F834451A60484602B0BDE86A
:10082400F087DDF804803846424600F0E9FFC14411
:100834004744A5EB0805C6E7D86F00F00FFC002875
:10084400EBD06368A268C3F8085182F8A450D3F8C7
:1008540018350370E1E770B50468A36800250646FF
:10086400C3E92455C3E92655C3F8A050D3F8800042
:10087400E56100F066FC737EE2680BB36368C3F85D
:1008840014252269C3F80C256269C3F81025A269EE
:10089400C3F80825D3F8002542F00802C3F8002560
:1008A4000422C3F8382504F18002C3F83425012258
:1008B400C3F810511A60A368012283F8A52070BD03
:1008C4006368C3F814252269C3F80C256269C3F868
:1008D4001025A269C3F80825D3F8002542F00402C4
:1008E400C3F8002501221A609A60E4E72DE9F34178
:1008F40004686568D5F84431064623B10123EB62E8
:100904000023C5F84431D5F81031002B00F0E48001
:100914000023C5F80831C5F81031E361D5F83C353A
:100924000193A36801A9D86F00F0C8FB002800F068
:10093400CC80019A04F1800100F062FFA3680022D8
:1009440083F8A420636801221A60D5F81C3123B30C
:100954000023C5F81C31A36893F83580B8F1000F63
:100964001BD104276368C3F81C81A368D3F88000F3
:1009740000F02AFBA368002840F0F780012283F8E6
:10098400A5205A6F4AB1D3F8800000F0E8FB034673
:10099400A0680022476F0221B8476368D3F820217A
:1009A40012B9D3F8582172B30027C3F82071C3F8E1
:1009B400587110230193A36801A9D3F8800000F0B3
:1009C4001EFBA3680146002800F0DE8083F8A570B2
:1009D400019F04F1840318463A4600F011FF616850
:1009E4000123C1F84875C1F844058B60A3685A6FA8
:1009F4004AB1D3F8800000F0B2FB0346A06800229D
:100A0400476F0221B847D5F82431002B2FD0D5F8F1
:100A14008074A2680023F907C5F824310BD5D2F8F5
:100A24009030767E0133C2F890306368002E00F077
:100A3400B98001225A60A0687A0748BFD0F898307C
:100A4400466F44BF0133C0F89830BB0742BFD0F8AB
:100A540094300133C0F89430D5F88034C5F880342C
:100A64001EB100231A460321B04701232B60D5F899
:100A740000318BB1A068D0F88430466F002223F097
:100A84008003C5F80021C0F884302EB18DF804200D
:100A9400012301AA0321B047D5F8043193B1A0681A
:100AA4000023C5F80431D0F88430446F43F0800348
:100AB400C0F8843034B180238DF8043001AA0123B6
:100AC4000321A04702B0BDE8F081A268D2F89C30AF
:100AD4000133C2F89C3031E7D5F80821002A3FF4ED
:100AE40034AF96F81980A268B8F1000F37D182F8B4
:100AF400A4800427A368C5F80881D86F00F0AEFA73
:100B040018BBA368012283F8A420D3F89C200132E7
:100B1400C3F89C20A3685A6F42B1D86F00F035FB2C
:100B24000346A0680022476F0121B847A3685A6FA3
:100B3400002A3FF40AAFD86F00F027FB0346A068F1
:100B44000022476F0121B847FFE6D5F81835037036
:100B5400D5F80831002BDDD0013FCBD1DAE7C5F859
:100B64000831E3690133E361E0E783F8A580626853
:100B74000178C2F81C15D2F81C21002A3FF401AFF9
:100B8400013F7FF4EFAEFCE6012283F8A5202DE7B8
:100B940083F8A4606368D3F8183503706368D3F8E6
:100BA400083163B16368C3F80861A368D86F00F0C3
:100BB40055FAA3680028EBD1012283F8A420A36886
:100BC4005A6F002A3FF437AFD86F00F0DEFA0346BD
:100BD400A0680022466F0121B0472CE7012070472E
:100BE400704700002DE9F04F0D4685B004460028FB
:100BF40000F09081002900F08D814868002800F001
:100C040025818B68002B40F38581D1F80090B9F1E0
:100C1400010F00F27F81DFF83C83086B942707FB08
:100C2400098301225E68D6F8FC3F91F82830C6F8A3
:100C3400FC2F002800F00D81C96A002940F30981C6
:100C440000F0B0F9E067A86B95F82830002800F0B0
:100C54000681696B002940F30281012200F0A2F9A8
:100C64006F68C4F88000D7E9040A00F01FFD01236F
:100C740003FA0AF3C0F80835AB680393002B00F3BA
:100C8400F58078683B6895F83C204FF0940B00F0B1
:100C94001F000BFB09FB08EB0B0140EA431C7B69BB
:100CA400E1613869D1F804A08C6003F01F0343EAC2
:100CB400401384F83520CAF814C5CAF80C350B6102
:100CC400DAF86C35C1F80CC023F01C03CAF86C3593
:100CD40095F91430013340F0E080DAF86C35CAF845
:100CE4006C35E968039204F11C00FFF78BFC0023C8
:100CF4006060039AC6F80831C6F81C31C6F824317E
:100D0400C6F84431D6F88014C6F88014C6F8003109
:100D14002AB1CAF84C31CAF85031CAF858312B7F7D
:100D2400022BDAF86C3540F0BD807A6A386B43F0F8
:100D34000103CAF86C353B6A02F01F0242EA43120F
:100D44007B6BCAF81025942101FB098103F01F0372
:100D540043EA40134A618B61CAF8083500239421A1
:100D6400C4E92433C4E9263301FB0981012084F852
:100D7400A430C4F8A03084F8A500CB61BFF35B8F26
:100D840084F83700BFF35B8FBFF35B8F84F8383090
:100D9400BFF35B8F6A7F84F83620072284F83420FF
:100DA4002A69A2602A7F2275AA69226195F83F20E8
:100DB400E27595F83E20A27595F83D2062752A6C7F
:100DC400A2612A7D22736A6A6267534AE263534AC4
:100DD4002264534A6264534AA264534AE264534A03
:100DE4002265534A6265534AA265534AE265534AEF
:100DF40062666422E262524AE266524A2267BFF3A2
:100E04005B8F2063BFF35B8FBFF35B8F84F8283065
:100E1400BFF35B8F94F835706C7F0422002F51D0A0
:100E2400496808270BF1800BC1F80075C1F8382513
:100E340008EB0B02C1F83425C1F810314FF0FF3331
:100E44000860C6F80833002C4BD1012005B0BDE87A
:100E5400F08F07FB0980012230212030F0E6942036
:100E640000FB0980012230215030F7E6BA464FF0EA
:100E7400000B9AF80E209AF80C3001929AF80D2083
:100E84000092DAE901125AF8100B00F021FC039BDE
:100E94000BF1010B5B45ECD1F3E6DAF86C3543F06A
:100EA4000E031CE723F00103CAF86C3594234FF0BA
:100EB400FF3203FB0983CAF80825C3E90522CAF8EF
:100EC40010254BE74B68C3F800254FF0FF329860BC
:100ED4001860C6F80823002CB7D01B4AC3F80423B3
:100EE40002E01A4BC1F804332A6A194B5201B9F1D2
:100EF400010FD2B206D00421C3F8801183F8022373
:100F04001960A2E74FF48071C3F8841183F8282391
:100F14005960F6E7002099E73F0600005B080000EF
:100F2400010600000906000039060000B5070000AC
:100F34003D060000E10B0000C7060000E50B0000C1
:100F44006B0600006506000087020200970302009A
:100F540000E100E01000002070470000024B986898
:100F64001C30FFF7C3BC00BF10000020024BD3F8B5
:100F74009C001C30FFF7BABC1000002000F0F0BB4E
:100F840000BEFEE7FEE7FEE770470000044B9A6BE5
:100F9400F1EE103A136C23F09F031364704700BF03
:100FA40000EF00E078B103730023036003614FF0A6
:100FB400FF33436000F12003C0E90521C3612039F8
:100FC400B1FBF2F282607047C0B14368002B14DBBE
:100FD40042688168531C9942D8BF00230168BFF35B
:100FE4005B8F994208BF4FF0FF334360BFF35B8FC1
:100FF4004369C06903FB020070470020704770B466
:10100400034611B970BCFFF7DFBF20B14268002A64
:1010140001DB0C681CB90020086070BC70470268D2
:101024004568AA4204EB05000FDD824202DC541B32
:101034004FF0FF30BFF35B8F5860BFF35B8F5A698B
:10104400D8690C6002FB0500E7E79E688642DFBFB3
:10105400B2FA82F252095042741BEBE700282CD0FA
:10106400026843689A420FD1037B2BBB43688268B2
:10107400BFF35B8F01339A42D8BF00234360BFF3B1
:101084005B8F03690133036102688168BFF35B8F7F
:10109400531C9942D8BF00230360BFF35B8F43689E
:1010A400002B04DABFF35B8F4260BFF35B8F4369AD
:1010B400C06903FB020070470020704773B5044603
:1010C4000D4621B902B0BDE87040FFF7C7BF08B1B3
:1010D4000B6823B900232B60002002B070BD0168A7
:1010E400426891420AD1027B002AF5D101A90193F9
:1010F400FFF785FF2369019A13442361236862681B
:101104002E68934206EB030116DDA068884201DCD9
:10111400C61A0021BFF35B8F002A2160BFF35B8FE7
:1011240004DABFF35B8F6360BFF35B8F6269E069CE
:101134002E6002FB0300D0E78A42DCBFD61A1146B8
:10114400E8E74FF0FF33BFF35B8F43600023BFF347
:101154005B8FBFF35B8F0360BFF35B8F70474368A4
:10116400002B01DA80687047026843689A4202687B
:10117400436803DD8068801A184470479A42BDBFF3
:1011840043680068181A002070474368002B0DDB81
:10119400426803689A42B9BF0368406842680368BA
:1011A400B1BF181A8068801AC018704700207047B1
:1011B40070B500F10C0204464FF00105BFF35B8FDC
:1011C400D2E84F3FC2E8465F002EF9D1BFF35B8FF0
:1011D400DBB20BB1002070BDE36B98470028FAD155
:1011E400BFF35B8F2073BFF35B8FF3E710B5836CA2
:1011F40004469847BFF35B8F00232373BFF35B8FD1
:1012040010BD2DE9F74F044689461F461646A2B382
:10121400002B32DDD0F8108000F10C054FF0010BEB
:10122400BFF35B8FD5E84FAFC5E843BF002BF9D1BF
:10123400BFF35B8F5FFA8AF3D3B9236B4946204629
:101244009847BFF35B8F80B184F81CA0BFF35B8F1A
:101254003A46636B314620469847031E0FDA184618
:1012640003B0BDE8F08F9846DAE72870BFF35B8FD0
:10127400B8F1000F08F1FF33F5DC0023EFE7A26BB0
:10128400019320469047BFF35B8F85F800A0BFF31E
:101294005B8F019B002BE2D1EAE72DE9F04704467E
:1012A40089461F4616467AB1002B0DDDD0F8108012
:1012B4004FF0000A49462046FFF77AFF40B9B8F1DB
:1012C400000F08F1FF3301DC002513E09846F1E735
:1012D400BFF35B8F84F81CA0BFF35B8F3A46236C8B
:1012E400314620469847051E04DB2046FFF77EFF63
:1012F400002DE4D02846BDE8F087BFF35B8FC37EA2
:10130400BFF35B8F13B901390029F6DC0029D4BF80
:1013140000200120704700002DE9F84F1F460A9B6A
:10132400D0F8108004460E46154683B10B9B002B63
:101334000DDD4FF0000A4FF0010B31462046FFF758
:1013440037FF48B9B8F1000F08F1FF3302DC4FF062
:10135400000932E09846F0E7BDB1BFF35B8F84F833
:101364001CB0BFF35B8F636C53B33A4629462046E7
:101374009847002803DA13492046FFF7BEFFBFF35E
:101384005B8F84F81CA0BFF35B8F236B3146204630
:101394009847DDE90A12636B20469847B0F10009CB
:1013A4000BDBA26B20469047BFF35B8F84F80CA045
:1013B400BFF35B8FB9F1000FC4D04846BDE8F88F86
:1013C400236CD2E740420F002DE9F04F83B000AF09
:1013D4008946D7E90CBAD0F8108005461C46114658
:1013E40022B900200C37BD46BDE8F08F03EB0A0696
:1013F400002EF6DDF31D23F00703ADEB030D2246AB
:101404006846C7F804D000F0FBF9BBF1000F1BD00D
:10141400BAF1000F18DD524659460DEB040000F0F6
:10142400EFF94FF0000A49462846FFF7C1FE78B9A4
:10143400B8F1000F08F1FF3308DC4FF0000BA345AF
:10144400CFDBABEB0400CDE72646EAE79846EAE7B4
:10145400BFF35B8F85F81CA0BFF35B8F79682B6C9F
:10146400324628469847B0F1000BE8DB2846FFF7E0
:10147400BDFEBBF1000FE2D1DAE7430983EA901322
:1014840003F0010343EA400000F07F0070470000CE
:101494004FF08053D3F83021082A06D1D3F83431E1
:1014A400052B02D8024AD05C70470020704700BF69
:1014B4000A1A0000024AD2F80034002BFBD070470D
:1014C40000E00140014B024A1A6070473C010020D1
:1014D4000090D0034FF0805310B5D3F83021082A80
:1014E4004ED14FF080420021C2F80C11C2F8101105
:1014F400C2F8381502F54042D3F80414C2F8201596
:10150400D3F80814C2F82415D3F80C14C2F828151B
:10151400D3F81014C2F82C15D3F81414C2F83015EB
:10152400D3F81814C2F83415D3F81C14C2F84015B3
:10153400D3F82014C2F84415D3F82414C2F848157B
:10154400D3F82814C2F84C15D3F82C14C2F850154B
:10155400D3F83014C2F85415D3F83414C2F8601513
:10156400D3F83814C2F86415D3F83C14C2F86815DB
:10157400D3F84014C2F86C15D3F84434C2F870356B
:10158400FFF786FF18B1414B414AC3F88C26FFF799
:101594007FFF18B13F4BFB22C3F81825FFF778FFF4
:1015A40070B14FF080414FF08053D1F8E42ED3F85E
:1015B400583222F00F0203F00F031343C1F8E43E44
:1015C400FFF766FF20B1344B4FF40072C3F8402696
:1015D4004FF08053D3F83031082B09D14FF08043BA
:1015E400D3F80024D20744BF6FF00102C3F80024EB
:1015F4002A4AD2F8883043F47003C2F88830BFF323
:101604004F8FBFF36F8F4FF08053D3F83021082AE8
:101614000ED1D3F83431052B02D8214AD35C3BB127
:101624004FF01023D3F808224FF08043C3F8582515
:101634004FF01023D3F80022002A03DBD3F804323E
:10164400002B22DA174901234FF01020C1F804358A
:101654001224FFF72FFFC0F80042FFF72BFFC0F85A
:101664000442FFF727FF0023C1F80435FFF722FFE8
:10167400BFF34F8F09490C4BCA6802F4E06213436D
:10168400CB60BFF34F8F00BFFDE710BD005000409B
:101694004881030000F000400090024000ED00E0AB
:1016A400041A000000E001400400FA05431C07D0BE
:1016B400012805DC30B10128044818BF0020704718
:1016C400002070474FF0A040704700BF0003005057
:1016D40010B51C469DF80820FFF7E8FFC0B1B1F132
:1016E400FF3F15D0012C14BF00230323022A10D07E
:1016F40002F0FD02012A01D143F00C039DF80C20F5
:1017040001F5E071012A08BF43F4C06340F82130B9
:1017140010BD43F00403F1E708B5FFF7C7FF30B18C
:101724004B1C1EBF01F5E071022340F8213008BDB7
:101734000B460146184600F027B8000008B5064BD2
:10174400044613B10021AFF30080044B1B6803B1BE
:1017540098472046FFF714FC000000009403002083
:10176400024B0146186800F059B800BF4001002040
:10177400014800F043B800BF98030020014800F07E
:101784003EB800BF9803002010B504460448134631
:1017940020B10A4602202146AFF3008010BD00BFED
:1017A4000000000002440346934200D1704703F84E
:1017B400011BF9E770B50D4D0D4C641BA4100026F8
:1017C400A64209D10B4D0C4CFEF712FD641BA4106C
:1017D4000026A64205D170BD55F8043B9847013652
:1017E400EEE755F8043B98470136F2E70000002085
:1017F400000000200000002008000020704770470F
:101804000A44914200F1FF3300D1704710B511F83A
:10181400014B03F8014F9142F9D110BD38B505468B
:10182400002941D051F8043C0C1F002BB8BFE41828
:10183400FFF79EFF1D4A136833B96360146028469E
:10184400BDE83840FFF79ABFA34208D920682118A1
:101854008B4201BF19685B6809182160EDE71A46DD
:101864005B680BB1A342FAD911685018A0420BD19E
:1018740020680144501883421160E0D118685B6805
:10188400536008441060DAE702D90C232B60D6E7D2
:10189400206821188B4204BF19685B68636004BF29
:1018A400091821605460CAE738BD00BF58020020FF
:1018B40000000000000000003703000015030000D2
:1018C4003B030000410300003B0400007D040000D2
:1018D4009D0300006903000015040000EF030000ED
:1018E400B704000047030000F904000013050000DA
:1018F4004D030000D5030000BF03000021030000D6
:10190400350300008503000057030000B9030000FD
:10191400910300005D030000000000006419000052
:101924000200000040420F0008000000FF00000019
:10193400010000000001000001000000530300004A
:101944000100000000000000000000000000000092
:101954000000000001000000000000000000000082
:10196400000000000800000001000000000000006A
:10197400000000000600000001000000010000005B
:10198400B004000000F004006009000000D0090069
:10199400C012000000B01300802500000050270092
:1019A4004038000000003B00004B000000A04E0047
:1019B4008070000000F075000096000000509D004B
:1019C40000E1000000F0EB00002C010000903A015F
:1019D40000C2010000E0D7010084030000B0AF039F
:1019E40090D00300000000040008070000705F07A7
:1019F40000100E0000D0BE0E40420F000000001088
:0C1A0400000000000101010000000000D3
:081A100088E8FF7F01000000DF
:101A180075020000CD0500004D0200000000000026
:101A2800000000000020004000000000FFFFFFFF52
:101A3800FFFFFFFFFFFFFFFFFFFFFFFF00000000AA
:101A4800000000000000000000000000000000008E
:101A5800000000000000000000000000000000007E
:101A6800000000000000000000000000000000006E
:101A7800000000000000000000000000000000005E
:101A8800000000000000000000000000000000004E
:101A9800000000000000000000000000000000003E
:101AA800000000000000000000000000000000002E
:101AB800000000000100000000800240000000005B
:101AC800FFFFFFFFFFFFFFFFFFFFFFFFFFFFFFFF1E
:101AD80000000000000000000000000000000000FE
:101AE80000000000000000000000000000000000EE
:101AF80000000000000000000000000000000000DE
:101B080000000000000000000000000000000000CD
:101B180000000000000000000000000000000000BD
:101B280000000000000000000000000000000000AD
:101B3800000000000000000000000000000000009D
:101B48000000000000000000010000000090D00329
:101B580044010020000000005C020020C4020020B4
:101B68002C0300200000000000000000000000001E
:101B7800000000000000000000000000000000005D
:101B8800000000000000000000000000000000004D
:101B9800000000000000000000000000000000003D
:040000030000019563
:00000001FF
