:1000000000000420110400008F0F00008F0F00007B
:100010008F0F00008F0F00008F0F00008F0F000068
:100020000000000000000000000000008F0F000032
:100030008F0F0000000000008F0F00008F0F0000E6
:100040000000000000000000000000008F0F000012
:10005000000000008F0F0000000000000000000002
:10006000A1150000C5150000E91500000D160000DF
:10007000000000008F0F00008F0F00008F0F0000A6
:100080008F0F00008F0F0000000000000000000034
:100090008F0F00008F0F0000000000000000000024
:1000A0008F0F000000000000000000008F0F000014
:1000B0008F0F00008F0F00008F0F00008F0F0000C8
:1000C0008F0F00008F0F00008F0F00008F0F0000B8
:1000D0008F0F0000000000008F0F000000000000E4
:1000E0008F0F0000000000008F0F000000000000D4
:1000F0000000000000000000000000000000000000
:10010000000000008F0F0000000000000000000051
:1001100000000000000000000000000000000000DF
:10012000000000008F0F0000000000000000000031
:1001300000000000000000000000000000000000BF
:100140008F0F000000000000000000000000000011
:10015000000000000000000000000000000000009F
:10016000000000000000000000000000000000008F
:10017000000000000000000000000000000000007F
:10018000000000000000000000000000000000006F
:10019000000000000000000000000000000000005F
:1001A000000000000000000000000000000000004F
:1001B000000000000000000000000000000000003F
:1001C000000000000000000000000000000000002F
:1001D000000000000000000000000000000000001F
:1001E000000000000000000000000000000000000F
:1001F00000000000000000000000000000000000FF
:1002000000000000000000000000000000000000EE
:1002100000000000000000000000000000000000DE
:1002200000000000000000000000000000000000CE
:1002300000000000000000000000000000000000BE
:1002400000000000000000000000000000000000AE
:10025000000000000000000000000000000000009E
:10026000000000000000000000000000000000008E
:10027000000000000000000000000000000000007E
:10028000000000000000000000000000000000006E
:10029000000000000000000000000000000000005E
:1002A000000000000000000000000000000000004E
:1002B000000000000000000000000000000000003E
:1002C000000000000000000000000000000000002E
:1002D000000000000000000000000000000000001E
:1002E000000000000000000000000000000000000E
:1002F00000000000000000000000000000000000FE
:1003000000000000000000000000000000000000ED
:1003100000000000000000000000000000000000DD
:1003200000000000FFFFFFFFFFFFFFFFFFFFFFFFD9
:10033000FFFFFFFFFFFFFFFFFFFFFFFFFFFFFFFFCD
:10034000FFFFFFFFFFFFFFFFFFFFFFFFFFFFFFFFBD
:10035000FFFFFFFFFFFFFFFFFFFFFFFFFFFFFFFFAD
:10036000FFFFFFFFFFFFFFFFFFFFFFFFFFFFFFFF9D
:10037000FFFFFFFFFFFFFFFFFFFFFFFFFFFFFFFF8D
:10038000FFFFFFFFFFFFFFFFFFFFFFFFFFFFFFFF7D
:10039000FFFFFFFFFFFFFFFFFFFFFFFFFFFFFFFF6D
:1003A000FFFFFFFFFFFFFFFFFFFFFFFFFFFFFFFF5D
:1003B000FFFFFFFFFFFFFFFFFFFFFFFFFFFFFFFF4D
:1003C000FFFFFFFFFFFFFFFFFFFFFFFFFFFFFFFF3D
:1003D000FFFFFFFFFFFFFFFFFFFFFFFFFFFFFFFF2D
:1003E000FFFFFFFFFFFFFFFFFFFFFFFFFFFFFFFF1D
:1003F000FFFFFFFFFFFFFFFFFFFFFFFFFFFFFFFF0D
:10040000FFFFFFFFFFFFFFFFFFFFFFFFFEFFFFFFFD
:100410000F48104908B5884202D00F4A01F05CF934
:100420000E4A00210E4801F064F900F0D1FF00F0FF
:10043000C7FF0C4B0C4A1B6803F5F40303F59053FC
:10044000B3FBF2F3094A136000F042F8FEE700BF85
:10045000000000208C210000C00200007D0100008F
:10046000C0020020580200200024F40050020020A6
:10047000F8B500BFF8BC08BC9E467047F8B500BF91
:10048000F8BC08BC9E46704710B5054C237833B9BC
:10049000044B13B1044800E000BF0123237010BDDA
:1004A000C0020020000000008C21000008B5034BB2
:1004B0001BB10349034800E000BF08BD0000000075
:1004C000C40200208C210000A3F5803A704700BFD1
:1004D000174B002B08BF134B9D46FFF7F5FF00217C
:1004E0008B460F461348144A121A01F002F90E4BBC
:1004F000002B00D098470D4B002B00D098470020D0
:10050000002104000D000D48002802D00C4800E036
:1005100000BF01F0B5F82000290000F01FF901F03C
:100520009BF800BF00000800000000000000000071
:1005300000000420C00200203D0400200000000054
:100540000000000008B503681B689847007E08BDDE
:10055000036810B51B689847836C13B1BDE8104061
:10056000184710BD704724307047C36C24301847BB
:10057000836C24301847436D24301847036E2430B1
:10058000184700207047043000F00ABB134624309F
:100590000A46002100F055BE1FB50468CDE90221CE
:1005A00001932468A047DDE90132039904B0BDE856
:1005B000104000F046BE10B5044600F0E6FC2046B0
:1005C00010BD134624300A46002100F0FEBD1FB5C1
:1005D0000468CDE9022101932468A047DDE90132D6
:1005E000039904B0BDE8104000F0EFBD043000F006
:1005F000CBBC10B5D0F880000C4600F08EFDA042B8
:10060000B4BF0020012010BD7FB50668CDE90221EE
:10061000DDE9084501933668B047DDE90132039909
:10062000CDE9084504B0BDE8704000F06CBE7FB570
:100630000668CDE90221DDE9084501933668B04737
:10064000DDE901320399CDE9084504B0BDE8704009
:1006500000F01FBE10B5044600F13803D3E8EF2FB9
:10066000013AC3E8E12F0029F8D1002A08DC236C05
:1006700004F124009847002204F13803C3E8AF2FA7
:1006800010BD00F13803D3E8EF2F0132C3E8E12FAA
:100690000029F8D1012A02D1436C24301847704751
:1006A00010B5836E044624309847002204F13003CD
:1006B000C3E88F2F10BD10B5836D044624309847D2
:1006C000002204F13003C3E88F2F10BD10B500F1F4
:1006D000300304464FF00100D3E8CF2FC3E8CC0F1E
:1006E000BCF1000FF8D112F0FF0F0AD1E36D04F155
:1006F0002400984720B9002204F13003C3E88F2F6B
:1007000010BD0020FCE710B500F1300304464FF0A7
:100710000100D3E8CF2FC3E8CC0FBCF1000FF8D114
:1007200012F0FF0F0AD1236D04F12400984720B97D
:10073000002204F13003C3E88F2F10BD0020FCE736
:100740000EB403B503AA52F8041B0430019200F062
:1007500043F802B05DF804EB03B0704713B50D49E0
:100760000D4800F01DFA0D490D48FFF7E9FFFF2382
:100770000B4C8DF80730012220460DF10701FFF7E1
:1007800005FF0028F7DD9DF8070000F001FE8DF859
:100790000700F0E784200000E0020020C81F0000EE
:1007A000DC02002010B5084C084B2046A422002192
:1007B00040F8043B00F09DFF2046A467044A054929
:1007C000BDE8104000F034BFDC020020E41F000050
:1007D0000C00002065050000F8B513460A460D49D7
:1007E000054609680C4801F07BF80B4801F044F815
:1007F0000B260446084F2035002C01DD013E00D1B8
:10080000F8BD23463A460021284600F01AFD241A76
:100810000744F1E7540200208403002003689B682A
:100820005868704710B500230446094A52F833004F
:10083000884207D3216802EBC30349685B68C1F8AB
:10084000243510BD0133102BF0D10020F9E700BF93
:10085000CC200000012070477047012203685B68CC
:100860005A60DA604FF0FF32C3F81425C3F80C2544
:10087000C3F80825C3F810250022C3F800257047E7
:1008800003685B68D3F8FC2F0122C3F8FC2F002219
:10089000C3F8FC2F70472DE9F7430E461546046850
:1008A000EFF3108972B64FF0000885B1A36801A973
:1008B000986F019500F097FB014640B1019F3046CB
:1008C0003A4600F009FFB8443E44ED1BEDE789F3DA
:1008D0001088A36893F8A02052B1002283F8A020CA
:1008E000012263688C34C3F83825C3F834451A6094
:1008F000404603B0BDE8F0832DE9F7430D686C680E
:10090000D4F8443113F0FF0F1FBF0123E36200232B
:10091000C4F84431D4F8083113B10023C4F80831C5
:10092000D4F8103133B30023C4F81031AB68986F9A
:1009300000F086FB002800F0988095F88C3003705A
:1009400001264FF00008AB68696805F18C0283F856
:10095000A080C1F83865C1F834251A6F0E604AB11D
:10096000986F00F0F0FB0346A86842463146D0F885
:100970007090C847D4F81C3113B10023C4F81C315F
:100980006B68D3F8202112B9D3F858215AB3002646
:10099000C3F82061C3F8586110230193AB6801A923
:1009A000D86F00F020FBAB680146002864D083F8C4
:1009B000A160019E05F17C031846324600F08CFED2
:1009C00001236968C1F84865C1F844058B60AB68CC
:1009D0001A6F42B1D86F00F0A0FB0346A86800224E
:1009E0000221076FB847D4F8243183B1D4F880349A
:1009F0000023A868C4F82431D4F88024066FC4F812
:100A0000802416B11A460321B04701232360D4F88D
:100A100000318BB10022A868C4F80021D0F88030E2
:100A2000066F23F08003C0F880302EB18DF80420CB
:100A30000123032101AAB047D4F8043193B1002364
:100A4000A868C4F80431D0F88030046F43F0800304
:100A5000C0F8803034B1802303218DF8043001AA1E
:100A60000123A04703B0BDE8F083AA68D2F898300C
:100A70000133C2F8983063E7012283F8A120A6E78A
:100A80002DE9F04F002506460F46A9461446D0F83A
:100A900000A0026985B0002C40DD002A02F1FF3879
:100AA0003BDDEFF3108B72B6DAF8082003A9D06FA4
:100AB000039400F0EDFA48B13946039A00F00CFEB9
:100AC000039AA41A002C17441544EDDC8BF310880C
:100AD000DAF8082092F8A110E9B1717ED9B110239B
:100AE00003A9D06F039300F07EFA014698B1DAF8BB
:100AF00008200AF17C0B82F8A190039A58460192D3
:100B000000F0EAFDDAF80410019AC1F84825012244
:100B1000C1F844058A604246BDE74246002A07DC28
:100B2000DAF80830641BD3F89C201444C3F89C40C6
:100B3000284605B0BDE8F08F70B50025064604686C
:100B4000A368C3E92355C3E92555D86FC3F89C5062
:100B500000F0DAFA737ED3B16368E268C3F8142553
:100B60002269C3F80C256269C3F81025A269C3F88D
:100B70000825D3F8002542F00802C3F8002504F147
:100B80008C02C3F834250122C3F810511A600122E7
:100B9000A36883F8A12070BD012070477047000052
:100BA0002DE9F04F0D46044687B0002800F0E8819B
:100BB000002900F0E5814F68002F00F079818B68F3
:100BC000002B40F3DD810E68032E00F2D9819023C3
:100BD0000122C04F086B03FB0673D3F80490D9F8C9
:100BE000FC3F91F82830C9F8FC2F002800F0648100
:100BF000C96A002940F3608100F0CAF9A067A86BB8
:100C000095F82830002800F05E81696B002940F3D8
:100C10005A81012200F0BCF90123D5F80480E06775
:100C2000D8F814209340D8F8102011064CBFAA4AD7
:100C3000AA4A9360AB68002B00F36E819023734344
:100C400007EB030B05930123D8F80410C4F820B078
:100C5000CBF8084084F83930D8F80030D8F81420A0
:100C600001F01F0141EA4311D8F8103002F01F02D1
:100C700042EA4312DBF80430CBF81020C3F8141515
:100C8000C3F80C25D3F86C25CBF80C1022F01C020D
:100C9000C3F86C2595F91420013240F05181D3F846
:100CA0006C2504F1200AC3F86C255046E968FFF76B
:100CB000B9FD00236060C9F80831C9F81C31C9F8D2
:100CC0002431C9F84431D9F88024C9F8802494F833
:100CD0003920C9F800314AB1902202FB06725268ED
:100CE000C2F84C31C2F85031C2F85831902202FBA0
:100CF000067295F81CE05368BEF1020FD3F86C152C
:100D000040F0238141F00101C3F86C15D8E90801D6
:100D100001F01F0C03904CEA40100490D8E90C8CB1
:100D200050610CF01F0040EA48109061049AC3F82B
:100D30001025C3F808050123039A03FA01F11206EE
:100D40004CBF654A654A18F0800FD16014BF624AF3
:100D5000624A03FA0CF3D36090230022012103FBC3
:100D600006739B6883F8A020C3E92322C3E92522E8
:100D700083F8A110C3F89C20072384F838302B692E
:100D800084F814E0A360AB69236195F83F302376C3
:100D900095F83E30E37595F83D30A3752B6CE36113
:100DA0002B7D23736B7F63756B6A23674C4BE36307
:100DB0004C4B23644C4B63644C4BA3644C4BE3643B
:100DC0004C4B23654C4B63654C4BA3654C4BE36527
:100DD0004C4B6366642323634B4BE36604F134039B
:100DE000C3E8AF1F002204F12C03C3E88F2FDBF808
:100DF0000430D3F8682503F26451012A08BFDA6091
:100E0000D3F86425012A0CD10F20C3F800055A60DD
:100E10000A68002AFCD1D3F88014C3F88014C3F800
:100E2000002594F8393093B19023082203FB067310
:100E30005B680121C3F80025059AC3F838158C3288
:100E400017440022C3F83475C3F8102119604FF01D
:100E5000FF336F7FC9F80833002F00F093805146AD
:100E60002A4A286800F090FB94F839303BB190236F
:100E7000184A03FB0623264A5B68C3F804232A6A40
:100E8000022E4FEA4212234BD2B26BD0032E70D007
:100E9000012E15BF4FF480714FF40071C3F880111B
:100EA000C3F8801114BF83F8082383F8092319605D
:100EB000384607B0BDE8F08F902000FB0670012295
:100EC00030211C3098E6902000FB06700122302172
:100ED0004C309FE6100000200025844000258450FF
:100EE0005B080000390B00001D0800002508000009
:100EF000550800009708000059080000990B0000F1
:100F0000810A00009D0B000081080000F908000024
:100F10009703020000E100E0C24608EB031B9AF8C9
:100F20000E209AF80C3001929AF80D200092DAE91E
:100F300001125AF8100B00F0FDFAD345EFD17DE60F
:100F4000D3F86C2542F00E02ABE621F00101C3F8A4
:100F50006C154FF0FF31C3F80815C2E90511C3F84D
:100F60001015F9E64FF48061C3F8801183F80A2365
:100F70009DE74FF40061C3F8801183F80B2396E7D7
:100F8000002795E7012793E7704700F09DBBFEE738
:100F900078B103730023C0E90521036003612039A0
:100FA0004FF0FF33B1FBF2F2436000F120038260A7
:100FB000C3617047B0B14368002B12DB426881689F
:100FC000531C9942D8BF00230168994208BF4FF0D3
:100FD000FF33011DC1E8AF3F4369C06903FB020055
:100FE000704700207047024670B411B970BCFFF71B
:100FF000E1BF20B14368002B01DB0C681CB9002065
:10100000086070BC704700685368984204EB0305A1
:101010000DDDA84202DC4FF0FF35C41A101DC0E8F8
:10102000AF5F5569D0690C6005FB0300E9E796687E
:10103000AE42DFBFB0FA80F040094542F41AEDE756
:1010400028B3026843689A420DD1037BF3B9436821
:10105000826801339A42D8BF0023021DC2E8AF3F25
:1010600003690133036102688168531C9942D8BF48
:101070000023C0E8AF3F4368002B02DA031DC3E83A
:10108000AF2F4369C06903FB02007047002070471F
:1010900073B504460D4619B9FFF7D2FF02B070BD13
:1010A00008B10B6813B900202860F7E701684268AF
:1010B00091420BD1027B0AB10020EFE701A9019315
:1010C000FFF791FF2369019A134423612368626843
:1010D0002E68934206EB030111DDA068814201DB1B
:1010E0000021C61AC4E8AF1F002A02DA221DC2E896
:1010F000AF3F6269E0692E6002FB0300CEE78A42DF
:10110000DCBF1146D61AEDE74FF0FF32031DC3E8EE
:10111000AF2F0023C0E8AF3F70474368002B01DAD0
:1011200080687047026843689A420268436803DD3A
:101130008068801A184470479A42BDBF43680068AF
:10114000181A002070474368002B0DDB42680368C3
:101150009A42BBBF036840684268181AA1BF03687F
:101160008068801AC01870470020704738B5044660
:101170004FF0010500F10C03D3E8CF2FC3E8CC5F9B
:10118000BCF1000FF8D112F0FF0F08D1A36B984704
:1011900020B9002204F10C03C3E88F2F38BD0020D2
:1011A000FCE710B5436C04469847002204F10C0399
:1011B000C3E88F2F10BD10B5436B0446984700223B
:1011C00004F10C03C3E88F2F10BD2DE9F84F04463E
:1011D00088461E46154622B3002B22DD4FF0000B39
:1011E0004FF00109D0F810A000F10C07D7E8CF3F6D
:1011F000C7E8C29F002AF9D113F0FF0F07D141467B
:101200002046E36A984778B90023C7E88F3FBAF1D0
:10121000000F0AF1FF3302DC5846BDE8F88F9A460A
:10122000E4E74FF0000BF7E732462946236B2046F0
:10123000984783462046FFF7BEFFBBF1000FE6DD6F
:10124000EAE72DE9F843054689461F461646F2B1FE
:10125000002B1CDD0024D0F8108049462846FFF7FB
:1012600085FF50B13A463146EB6B28469847044615
:101270002846FFF796FF002C04DCB8F1000F08F1B8
:10128000FF3302DC2046BDE8F8839846E5E70024FA
:10129000F8E72DE9F84F0446DDE90A9B0F461646AC
:1012A0009846B9F1000F2CD0BBF1000F29DD0025C5
:1012B000D0F810A039462046FFF758FFA8B12EB14C
:1012C000236CE3B142463146204698473946E36AEB
:1012D000204698475A464946236B2046984705467C
:1012E0002046FFF768FF002D04DCBAF1000F0AF179
:1012F000FF3302DC2846BDE8F88F9A46DAE7E36B55
:10130000E0E70025F6E72DE9F84F00AF89460546EE
:101310009B461146FC6A1AB90020BD46BDE8F88F0D
:101320001E19002EF8DDF21D22F00702ADEB020DB2
:10133000D0F810801A46684600F0CEF9BB6AEA463B
:1013400013B3002C20DD224619460DEB0B0000F0F4
:10135000C3F9002449462846FFF708FF50B132463A
:101360005146EB6B2846984704462846FFF719FF7D
:10137000002C04DCB8F1000F08F1FF3306DC5C45FB
:10138000CADBA4EB0B00C8E75E46E2E79846E1E75C
:10139000430983EA901303F0010343EA400000F09D
:1013A0007F007047054B1868043B1B68092B03D16D
:1013B000431E584258417047002070473401FF00D7
:1013C000014B024A1A607047580200200090D00377
:1013D00008B54C4B1B68092B01BF4FF0502300226E
:1013E000C3F81421C3F81821FFF7DCFF30B1012343
:1013F000454A1360A2F63822C2F87835414B1B6883
:10140000092B07D1414B1B68012B1EBF0122404B0A
:10141000C3F87825FFF7C6FF10B10E223D4B1A60C6
:10142000384B1B68092B04D100223B4B1A60012268
:101430005A600022D30003F57F03D3F80013013173
:1014400008D0D3F800130132D3F80433B2F5807F0B
:101450000B60EFD1314BDA69D1073BD5304B1946E0
:10146000D3F80024012AFBD1C3F80425D1F80034B5
:10147000012BFBD1294BDA69D20708D5DA69284953
:1014800022F00102DA61D1F80024012AFBD11A6AA4
:1014900001320AD11A6A22F0FF0242F020021A62D7
:1014A0001F4AD2F80034012BFBD100221C4BC3F899
:1014B0000425D3F80024012AFBD1BFF34F8F19492B
:1014C000194BCA6802F4E0621343CB60BFF34F8F3D
:1014D00000BFFDE71B6A0133C0D0124BD3F88C204C
:1014E00042F44062C3F88C20D3F8882042F47002A2
:1014F000C3F88820BFF34F8FBFF36F8F0B4B0C4A9D
:101500001A6008BD3001FF00384A00503401FF0066
:1015100000400050E4AE03500C4700500080FF0034
:101520000090035000ED00E00400FA05580200208E
:101530000090D00310F0800F9DF800201BD00130E8
:1015400018D00F48B1F1FF3F14D0012B0CBF03237B
:101550000023022A11D002F0FD02012A01D143F03A
:101560000C039DF804208031012A08BF43F4C063B6
:1015700040F8213070470348E4E743F00403F0E704
:10158000002584400025845003289FBF034B43F867
:10159000301003EBC0004260704700BF040400201D
:1015A00008B5064B196811B100205B6898474FF4E5
:1015B0008072034BC3F8802108BD00BF04040020E3
:1015C00000E100E008B5064B996811B10120DB6825
:1015D00098474FF40072034BC3F8802108BD00BF49
:1015E0000404002000E100E008B5064B196911B1C0
:1015F00002205B6998474FF48062034BC3F8802157
:1016000008BD00BF0404002000E100E008B5064B5F
:10161000996911B10320DB6998474FF40062034BCD
:10162000C3F8802108BD00BF0404002000E100E0F1
:101630000B460146184600F001B8000010B5054CF5
:1016400013462CB10A460146022000E000BF10BD3F
:101650002046FCE70000000008B5074B044613B124
:10166000002100E000BF054B1868836A03B198476A
:10167000204600F0A7FC00BF000000004C21000045
:1016800070B50D4D00260D4C641BA410A64209D167
:101690000B4D00260B4CFEF7EBFE641BA410A6427C
:1016A00005D170BD55F8043B01369847EEE755F873
:1016B000043B01369847F2E70000002000000020BC
:1016C0000000002008000020024B0146186800F0CE
:1016D00019B800BF5C0200200A44431E914200D1A9
:1016E000704710B511F8014B914203F8014FF9D141
:1016F00010BD02440346934200D1704703F8011B1A
:10170000F9E7000037B5002947D051F8043C0C1F19
:101710000190002BB8BFE41800F0F0F8204A0198BF
:101720001368154633B96360146003B0BDE83040F8
:1017300000F0EAB8A3420BD921686218934202BFB5
:101740001A685B685218636008BF22602C60ECE77F
:101750001A465B680BB1A342FAD911685518A54225
:101760000BD12468214454181160A342DDD11C68B8
:101770005B68214453601160D7E702D90C230360F2
:10178000D3E7256861198B4202BF19685B68491964
:10179000636008BF21605460C7E703B030BD00BF7D
:1017A00024040020F8B5CD1C064625F003050835B5
:1017B0000C2D38BF0C25002D01DBA94203D90C23C9
:1017C00033600020F8BD00F099F821490A681446FA
:1017D0009CB9204F3B6823B92146304600F03CF8C5
:1017E00038602946304600F037F8431C23D10C23DB
:1017F0003046336000F088F8E3E723685B1B17D4BA
:101800000B2B03D923601C44256004E06368A242CB
:101810000CBF0B605360304600F076F804F10B000B
:10182000231D20F00700C21ACCD01B1AA350C9E711
:1018300022466468CCE7C41C24F00304A042E3D031
:10184000211A304600F008F80130DDD1CFE700BFA3
:10185000240400202804002038B50023054D044648
:1018600008462B6000F0A0FB431C02D12B6803B19B
:10187000236038BD30040020034613F8012B002AF2
:10188000FBD1181A0138704730B5141E05469BB0BD
:10189000184605DA8B234FF0FF302B601BB030BDAC
:1018A0004FF40273024600912846ADF80C3014BF85
:1018B00004F1FF33234604916946029305934FF6E2
:1018C000FF73ADF80E301E9B00F080F8431CBCBFC8
:1018D0008B232B60002CE1D0009B00221A70DDE7E7
:1018E00007B5009313460A46014603480068FFF710
:1018F000CBFF03B05DF804FB5C020020014800F060
:10190000FBBA00BF38040020014800F0F6BA00BF5F
:10191000380400202DE9F0478E6882460C46904638
:101920009E421F4638D88A8912F4906F32D02568BB
:1019300001330969A5EB0109656905EB45054B44D0
:1019400005EBD5756D109D4238BF1D46530531D549
:101950002946FFF727FF064650B90C234FF0FF300A
:10196000CAF80030A38943F04003A381BDE8F087A3
:101970004A462169FFF7B0FEA38923F4906343F040
:101980008003A38126614E446561A5EB09052660AD
:101990003E46A560BE4200D93E46324641462068DA
:1019A00000F0BAFAA368226800209B1B3244A360AF
:1019B0002260DBE72A4600F0C9FA06460028E1D19A
:1019C00021695046FFF79EFEC7E700002DE9F04F62
:1019D00098468B899DB007461B060D4614460ED5CA
:1019E0000B6963B94021FFF7DDFE2860286120B94B
:1019F0000C233B604FF0FF30D1E040236B610023AC
:101A0000CDF80C804FF00109DFF8AC810993202359
:101A10008DF8293030238DF82A3023469A4613F862
:101A2000012B0AB1252AF9D1BAEB040B0BD05B4686
:101A3000224629463846FFF76DFF013000F0AA80A4
:101A4000099A5A4409929AF80030002B00F0A280BB
:101A500000234FF0FF320AF1010A049307938DF837
:101A600053301A93CDE9052354460522524814F801
:101A7000011B00F043FA049AD8B9D00644BF2023D2
:101A80008DF85330110744BF2B238DF853309AF84B
:101A900000302A2B15D0079A544600204FF00A0C2C
:101AA000214611F8013B303B092B4ED9B0B10792CA
:101AB00014E0A0EB0803A24609FA03F313430493CE
:101AC000D2E7039B191D1B68002B0391BBBF5B4230
:101AD00042F0020207930793B8BF049223782E2B9B
:101AE0000CD163782A2B35D1039B02341A1D1B6855
:101AF000002B0392B8BF4FF0FF330593DFF8C8A067
:101B000003222178504600F0F9F940B14023A0EBC0
:101B10000A00013403FA00F0049B0343049314F811
:101B2000011B062225488DF8281000F0E7F900284F
:101B300038D0234B1BBB039B073323F00703083329
:101B40000393099B3344099367E70CFB02320C466D
:101B50000120A5E7002301344FF00A0C1946059334
:101B6000204610F8012B303A092A03D9002BC5D0A2
:101B70000591C3E70CFB012104460123F0E703AB09
:101B80002A4604A9384600930E4B00E000BF421CD1
:101B90000646D6D1AB895B063FF52CAF09981DB040
:101BA000BDE8F08F03AB2A4604A938460093054BE5
:101BB00000F07CF8EBE700BF502100005A21000044
:101BC0000000000015190000562100002DE9F04723
:101BD000164699468A6807460B690C46DDF8208050
:101BE0009342B8BF1346336091F843200AB10133E2
:101BF00033602368990642BF336802333360256837
:101C000015F0060506D104F1190AE36832689B1A3B
:101C1000AB4229DC94F84320131E226818BF01232D
:101C200092062ED404F1430249463846C04701309B
:101C300021D023681A3454F80E5C03F0060332688E
:101C40000026042B54F8123C08BFAD1A54F80A2C95
:101C500014BF002525EAE5759342C4BF9B1AED1811
:101C6000B5421AD1002008E00123524649463846C1
:101C7000C047013003D14FF0FF30BDE8F087013598
:101C8000C3E7E1185A1C30200233224481F8430094
:101C900094F8451082F84310C4E7012322464946D0
:101CA0003846C0470130E6D00136D9E72DE9FF4775
:101CB0000C46914680469A46277E04F143020C99D1
:101CC000782F07D8622F0AD8002F00F0D880582F1D
:101CD00000F0A38004F1420684F842703AE0A7F1D4
:101CE0006303152BF6D801A050F823F0451D000022
:101CF000591D0000D51C0000D51C0000D51C00009B
:101D0000D51C0000591D0000D51C0000D51C00008A
:101D1000D51C0000D51C0000651E0000891D0000B8
:101D2000471E0000D51C0000D51C0000871E0000C7
:101D3000D51C0000891D0000D51C0000D51C00002A
:101D40004F1E00000B6804F142061A1D1B680A6052
:101D500084F842300123A3E0256808682E0600F1CC
:101D600004030AD505680B60002D03DA2D236D42AC
:101D700084F843305E480A2319E015F0400F0568E7
:101D80000B6018BF2DB2EFE70B682568181D0860BF
:101D9000280601D51D6802E06906FBD51D886F2F56
:101DA00053480CBF08230A23002184F843106668B7
:101DB000002EA660A2BF216821F0040121600DB9A8
:101DC000002E4DD01646B5FBF3F103FB1157C75D4E
:101DD00006F8017D2F460D46BB42F4D9082B0BD1E6
:101DE0002368DF0708D5236961689942DEBF302385
:101DF00006F8013C06F1FF36921B22614B4603AA0E
:101E000021464046CDF800A0FFF7E0FE01304CD15E
:101E10004FF0FF3004B0BDE8F087354884F84570D6
:101E200023680E681F0656F8045B0E6014D5D907A8
:101E300044BF43F0200323601DB9236823F020032F
:101E400023601023B0E7236843F020032360782346
:101E5000284884F84530E3E75E0648BFADB2E6E7C0
:101E60001646BBE70B6826681D1D60690D603506C8
:101E70001B6801D5186002E07106FBD518800023AD
:101E800016462361BAE70B681A1D0A6000211E6816
:101E90006268304600F032F808B1801B6060636809
:101EA0002361002384F84330A8E72369324649467A
:101EB0004046D0470130ABD023689B0713D4E0687D
:101EC000039B9842B8BF1846A4E70123324649460F
:101ED0004046D04701309BD00135E36803995B1A37
:101EE000AB42F2DCEBE7002504F11906F5E700BF91
:101EF000612100007221000070477047C9B202449E
:101F000010B59042034601D1002303E01C78013054
:101F10008C42F6D1184610BD884210B501EB020480
:101F200002D98442234607D8431EA14208D011F8A3
:101F3000012B03F8012FF8E7024401468A4200D141
:101F400010BD13F8014D02F8014DF7E7F8B507464B
:101F500014460E4621B91146BDE8F840FFF722BCF1
:101F600022B92546FFF7CEFB2846F8BD00F014F84D
:101F7000A0420FD221463846FFF714FC0546002840
:101F8000F2D031462246FFF7A7FB31463846FFF72D
:101F9000B9FBE9E73546E7E751F8043C181F002B89
:101FA000BCBF0B58C01870470449054A0B68002B8A
:101FB00008BF13461A1818460A6070472C04002000
:101FC00040040020FEE700BF5541525420505242C9
:101FD0005320546573740A0D0000000000000000D7
:101FE0000000000067050000450500006B050000CB
:101FF000710500005506000083060000CF050000B3
:10200000990500002F0600000906000007070000E0
:1020100077050000B7060000CD0600007D05000032
:10202000A1060000F3050000510500006505000051
:10203000B705000087050000ED050000C30500009E
:102040008D050000000000001C00000001000000E1
:1020500000000000000000001D0000000100000062
:1020600001000000000000001A0000000100000054
:1020700000000000000000001B0000000100000044
:1020800001000000000000004420000004000000E7
:1020900040420F0008000000FF00000001000000A7
:1020A00000010000010000008305000001000000A5
:1020B0000000000000000000000000000000000020
:1020C000010000000000000000000000B00400005B
:1020D00000F004006009000000D00900C0120000F8
:1020E00000B0130080250000005027004038000099
:1020F00000F03A00004B000000A04E00807000008D
:1021000000C075000096000000009D0000E1000086
:102110000000EB00002C010000903A0100C2010019
:102120000000D601008403000000B00390D003003B
:1021300000000004000807000000400700100E0027
:102140000000000F40420F0000000010600200205D
:10215000232D302B2000686C4C0065666745464790
:102160000030313233343536373839414243444513
:102170004600303132333435363738396162636482
:0321800065660091
:0821840044E3FF7F01000000AD
:10218C00AD040000A5070000890400000000000059
:10219C000000000000800050000000000000000063
:1021AC000000000000000000000000000100000022
:1021BC000000000000000000000000000000000013
:1021CC000000000000000000000000000000000003
:1021DC0000000000000000000000000000000000F3
:1021EC0000000000000000000000000000000000E3
:1021FC0000000000000000000000000000000000D3
:10220C0000000000000000000000000000000000C2
:10221C0000000000000000000000000000000000B2
:10222C0001000000009000500000000000000000C1
:10223C000000000000000000000000000100000091
:10224C000000000000000000000000000000000082
:10225C000000000000000000000000000000000072
:10226C000000000000000000000000000000000062
:10227C000000000000000000000000000000000052
:10228C000000000000000000000000000000000042
:10229C000000000000000000000000000000000032
:1022AC000000000000000000000000000000000022
:1022BC000200000000A00050000000000000000020
:1022CC000000000000000000000000000100000001
:1022DC0000000000000000000000000000000000F2
:1022EC0000000000000000000000000000000000E2
:1022FC0000000000000000000000000000000000D2
:10230C0000000000000000000000000000000000C1
:10231C0000000000000000000000000000000000B1
:10232C0000000000000000000000000000000000A1
:10233C000000000000000000000000000000000091
:10234C000300000000B0005000000000000000007E
:10235C000000000000000000000000000100000070
:10236C000000000000000000000000000000000061
:10237C000000000000000000000000000000000051
:10238C000000000000000000000000000000000041
:10239C000000000000000000000000000000000031
:1023AC000000000000000000000000000000000021
:1023BC000000000000000000000000000000000011
:1023CC000000000000000000000000000000000001
:1023DC0001000000800000000090D003600200208B
:1023EC0000000000000000000000000000000000E1
:1023FC0000000000000000000000000000000000D1
:10240C0000000000000000000000000000000000C0
:10241C0000000000000000000000000000000000B0
:10242C0000000000000000000000000000000000A0
:10243C000000000000000000000000000000000090
:0400000300000411E4
:00000001FF
